:020000041000EA
:1000000000200008EB0000100D0000004D01001062
:1000100000000000000000000000000000000000E0
:100020000000000000000000000000004901001076
:10003000000000000000000049010010490100100C
:100040004901001049010010490100104901001048
:100050004901001049010010490100104901001038
:100060004901001049010010490100104901001028
:100070004901001049010010490100104901001018
:1000800010B5064C2378002B07D1054B002B02D06E
:10009000044800E000BF0123237010BDB003000836
:1000A000000000000C150010044B10B5002B03D00D
:1000B0000349044800E000BF10BDC0460000000036
:1000C000B40300080C1500100230800803D0013082
:1000D0000238FCD1C046C0467047EFF3108072B6BC
:1000E000704780F3108870477047FFF7FDFF72B6C6
:1000F0000F4C104DAC4209DA21686268A368043BDA
:1001000002DBC858D050FAE70C34F3E70A490B4A2F
:100110000020521A02DD043A8850FCDC08480949E4
:100120000860BFF34F8F00F0F9FE00F0A9FEFEE774
:100130001815001030150010B0030008C80500089D
:100140000000000808ED00E0FEE7FEE700B504202F
:100150007146084202D0EFF3098002E0EFF3088015
:10016000043000F08DFCFEE7014B18607047C0467C
:10017000C4050008044B1B681A00BA3212881B6AB7
:100180005043C0187047C046C40500081D4B984234
:100190000FD010D840282FD005D8002830D01028F4
:1001A00028D019481EE0802828D080235B00984280
:1001B000F7D1144816E0154B984214D008D8A02364
:1001C0001B0698421CD0124B9842EAD1A0200BE0AB
:1001D000104B98420AD0104B984209D00F4B9842CE
:1001E000DFD10F487047A420C003FBE70D48F9E7B3
:1001F0000D48F7E70D48F5E70D48F3E70D48F1E73F
:100200000020EFE706005200FF005200010000F05E
:10021000090000A0040000F0050000F0030000F059
:100220000100520002005200030052000100500081
:10023000020050000500520010B50020FFF79AFFA1
:100240000A4B1C682300BC331B68C0180368002BD2
:100250000ADB074B1868FFF799FF012263689A6071
:100260009A68002AFCD110BD0248FCE7C4050008CA
:10027000CC03000802005000064B1B68BC331B680F
:10028000C3181B68002B03DA89B241600020704755
:100290000148FCE7C405000801008A000368002B40
:1002A00004DA89B2C2608160002070470048FCE730
:1002B00001008A00064B1B68BC331B68C3181B680F
:1002C000002B03DAC36800200B6070470148FCE78D
:1002D000C405000801008A00024B1A68002A00D1F8
:1002E00018607047E0030008F0B52C246043154CFB
:1002F0001F0024681D0A2018FF2425402740124CA7
:100300001B0C26680760346A45608360BA363688FD
:1003100077433F1907612F0080376D017F01E7198F
:1003200064190A4D47611F043B436419236000238D
:100330008361059BC2610162002B01D01B88838110
:10034000F0BDC046E0030008C40500080810000026
:10035000F0B5836885B002AD2B800368066A173359
:100360006B804368476A0095826AC16A0400039300
:100370000369C068FFF7B8FF00213B000A00009145
:100380003000FFF7B1FF216B280000F02DFB0022A9
:10039000AB5E002B06DB1F2213401E3A9A4013006F
:1003A000014A136005B0F0BD00E100E0F7B52C256F
:1003B000134C684326686943341825690193711802
:1003C000002D19D08869002818D12E68002E15DA62
:1003D0006768012426004B689E40B44613689EB2AD
:1003E00063461B041E431660EA608C61BC40019B9F
:1003F000A4B24B62AC60FEBD0248FCE70248FAE7DB
:10040000E003000804028A0007028A0073B5002690
:1004100042690400D56801962B0CB34221D01B041D
:1004200013601368194B00691B68BC331B68C31841
:100430001B68B34215DA01A9FFF73CFFB0420CD1AB
:100440000198E26903681E0CDBB29A4205D9226A60
:100450009B009B58002B00D0984731002069FFF784
:100460000BFFADB2002D09D063691D6000251B682C
:10047000636AAB4205D098476562A56163691B68F2
:1004800073BDA36A002BF8D09847F6E7C4050008AF
:100490002C2310B54343034A1068C018FFF7B6FF7A
:1004A00010BDC046E0030008F8B5194B0F001B68EB
:1004B0001A0033321278824227D9002925D01F250D
:1004C0000A68154021D11900BA310C88114E6043D9
:1004D0001C6AD208041929007868346000F07EFF95
:1004E00029002000FFF7C8FE3A0029003068FFF716
:1004F000D5FE041E07D101003068FFF7BDFE0300E2
:100500002000002B00D00448F8BD0448FCE7C0469A
:10051000C4050008E403000801018A0003018A0001
:1005200010B5002A0DD1002914D10B4B1A68130005
:10053000BA331B885843136AC018084B1860080068
:1005400010BD002906D0064B196019005A60FFF74C
:10055000ABFFF5E70348F3E7C4050008E403000830
:100560007803000803018A00F7B5184F04003B68C0
:100570000191DE683368834226D90025A94202D161
:10058000FFF7ABFD050038680368002B1ADA1F225D
:1005900001232240934064097268A4001419226860
:1005A00013420DD09A43226000240021FFF764FE1D
:1005B000019B002B02D12800FFF793FD2000FEBD18
:1005C000034CF2E7034CF3E7034CF7E7E4030008BE
:1005D000020188000301880004018A000A4B1B689D
:1005E000DB681A6882420DD959681F2342091840F6
:1005F0001E3B8340920050581840431E9841034BC5
:10060000C01870470248FCE7E403000800018800B6
:1006100004018A00054B1B681A0088321B681268A7
:100620009B181868000AC0B27047C046C40500088D
:10063000044B1B681A0088321B6812689B181868E4
:10064000000E7047C4050008024B18694007C00F30
:100650007047C04600002740A6220549D2008B58AB
:100660000220DB439B0702D00123885818407047C3
:100670000000264010B5FFF7EFFF0023022801D14C
:10068000014B1B68180010BDEC030008094A8300E9
:100690009B18D0229200985807221040042807D1B6
:1006A000C022920098581F23034080204000184326
:1006B0007047C0460000264010B5FFF7E7FF02284C
:1006C0001CD005D8002824D0012814D0002014E024
:1006D0001223FF33984214D01423FF33984215D0CD
:1006E000033B9842F2D10C4A0C4BD358002BEDDA65
:1006F0008020000201E00A4B186810BDFFF7BAFF26
:10070000FBE7FFF7A1FF0028E0D0F1E7024A054B25
:10071000EBE70548F1E7C046000026400C05000065
:10072000E80300083C05000000127A00B023154AD7
:10073000DB00D35810B59903DB01DB0F890BC371C4
:10074000114B0160D3580F24D904DB01DB0D038169
:10075000B123DB00D358C90C81801900214081727C
:1007600019092140C172D9029B009B0F8373074B6B
:10077000C90CD35881815A05DB01520FDB0D827100
:10078000038210BD00002640840500008C05000097
:1007900010B5104B421E1B683F331B78934216D98D
:1007A0007F221F248030FF300B4B8000C3581A403B
:1007B0000A701A0C2240180A8A701A012040E2407E
:1007C000487000209B009B0FCA700B7110BD03483E
:1007D000FCE7C046C40500080000264001004A00AE
:1007E000F0B589B003AC14220021200000F0F6FD22
:1007F0002000FFF79BFFB0231A4ADB00D2580023EA
:100800009A4203DAA37B023B5A1E9341E579002604
:100810006A1E95410135B34221D0A488B4421ED04E
:10082000039B30000193FFF747FF2A0033000700C6
:100830003100200000F0BCFC0C0005003300019AE0
:100840003100380000F0B4FCE6076A083243630860
:10085000801859412A00230000F08AFC060030006D
:1008600009B0F0BD00002640F0B50026244B85B04D
:100870001B6807003F331B78B3423ED0B0423CD0E8
:1008800083423AD30522310002A800F0A7FD02A955
:100890003800FFF77DFF3B008033FF33194A9B0090
:1008A0009B58B34229DA02AB1B79022B25D002AB4D
:1008B0005C78B44221D09D78B5421ED01B783800B8
:1008C0000193FFF7F9FE2A003300070031002000F2
:1008D00000F06EFC0C0005003300019A3100380076
:1008E00000F066FCE6076A08324363088018594145
:1008F0002A00230000F03CFC0600300005B0F0BDEB
:10090000C40500080000264010B5041E04D1FFF7FE
:1009100067FF002806D008E0064B1B683F331B78B2
:10092000834203D22000FFF7C7FE10BDFFF79CFFF4
:10093000EFE7C046C4050008E02210B50124094BCA
:1009400080009200C018835880589B069B0F9C40E3
:100950000F231840FFF7D8FF63081818210000F094
:100960007BFB10BD00002640144B30B51A680724ED
:1009700013002C331B781F2B15D883081D00A543AB
:100980002C1E0FD103342040A040814012689B00F0
:100990002032D3180A00FF2181401C6862401140B8
:1009A0006140196030BD802320401B06184380231E
:1009B0009B011268C91889008850F3E7C405000834
:1009C000064B9A680300064810339B00824202D10E
:1009D000985899507047034AD058FBE700ED00E063
:1009E0000000000800000010F8B506000D00002807
:1009F0003AD00023C05E002828DB7188FFF7B4FFDF
:100A00000024FF22032794460023F05E716883B21E
:100A10001F40FF006646BA4089013140D243B940C9
:100A2000002815DB114E83089B009B19C026B600D9
:100A30009F593A40114399510D4B9A680D4B9A4278
:100A400002D12900FFF7BCFF2000F8BD0A4CD8E70F
:100A50000F263340083B064E9B089B009B19DE691E
:100A600032401143D961E7E7034CEDE700E100E0D4
:100A700000ED00E00000000801005600FEE7000065
:100A800002680A4B10B51A6042685A6082689A6020
:100A9000C268DA6002691A6142695A6182699A61C0
:100AA000C269DA61FFF7EAFF10BDC0469003000893
:100AB000B0235B055A782120002A01D05878C0B2B3
:100AC0007047B0235B059A89002A02D0988980B2CA
:100AD000704780204000FBE77FB5274B86000D0064
:100AE000F458042901D0012927D100200FE0A36880
:100AF0002B420BD1E36829001A685B6802920193CC
:100B0000039302A8236898471C4B1C606469002C5F
:100B10000BD01B4B9842EAD1012DE8D1174B184856
:100B20001A68184B9A5104B070BD012DFBD1144BBB
:100B30009842F3D0134B9C51F5E7022906D10F4B95
:100B40001B68181EEFD01C6903E01C006369002BB2
:100B5000FBD10020002CE6D0A3682B4209D1E3682A
:100B600029001A685B6802920193039302A8236824
:100B700098472469EEE7C046300400082C040008BA
:100B8000FF004200180400081A4B1B681900883146
:100B90001A68096851180968016219008C310968DE
:100BA0005218126842621A0046321278002A1FD088
:100BB0009A68E0321268D2061AD5F222DB68D201B6
:100BC0009A580260F022D2019A5842600A4A9A5812
:100BD00082600A4A9A58C260094A9A580261094AD0
:100BE0009A584261084A9A588261084A9B58C361E0
:100BF0007047C046C405000804780000087800006B
:100C00000C780000107800001478000018780000BC
:100C10001A4B1B681A008832196812688A18016A10
:100C200011601A008C32196812688A18416A1160C2
:100C30001A0046321278002A1ED09A68E0321268F2
:100C4000D20619D5F0224168DB68D201995081683B
:100C50000B4A9950C1680B4A995001690A4A995048
:100C600041690A4A99508169094A9950C169094AFA
:100C700099500168E83299507047C046C405000891
:100C800004780000087800000C780000107800005C
:100C90001478000018780000F7B50700FFF708FF88
:100CA000664D06006B68002B00D07DE0FFF715FA5B
:100CB0006B680090002B00D089E0614C2268130023
:100CC000BA33198807234B43126A9B181A68002A03
:100CD000FCDADB68DA0021D51B0F1B0759480193AA
:100CE000FFF752FF5849212E00D075E0226890206E
:100CF000130088331C68136800011C1923680B401B
:100D00000343236013008C3312681B68D3181A68DE
:100D10001140084318604B4B019A13438022484E00
:100D20009205316813430A00BA3210880722002462
:100D30004243096A5218D36054605368FFF7C1FEFA
:100D400080235B0098425DD1380000F05DFB326883
:100D50001300BA33198807234B43126A9B181A6889
:100D6000002AFCDADF68FB0003D538010009FFF731
:100D70004FFF364B32681F401300BA3319880723E0
:100D80004B43126A00989B180022DF605A60FFF7FD
:100D9000A8F9002C0FD16B68002B03D0082101208B
:100DA000FFF79AFE2000FEBD01210800FFF794FE28
:100DB000041E00D17AE76B68002B03D002210120CA
:100DC000FFF78AFE224B9C42ECD0224CEAE704213A
:100DD0000120FFF781FE70E720688022030088333E
:100DE0001C68036852001C1923680B4013432360DE
:100DF00003008C3300681B68C318186801400A435D
:100E00001A6088E733681A00BC32196A12685218EF
:100E10001168002910DBBA331B889A181368002B5D
:100E20000ADB04230C4A11690B431361012F01D023
:100E300030BF8CE720BF8AE7054C88E73004000804
:100E4000C4050008F0030008FF00FFFFFFFFFFDFFD
:100E500005004200FF00420000ED00E0C0228020BB
:100E6000064952008B58C0059B009B0803438B50DA
:100E7000802388581B0603438B5070470000264090
:100E800010B562B6034800F0C1F80020FFF704FF78
:100E9000FBE7C0460020001010B50020FFF7F8FA6D
:100EA00010BD704710B50020FFF746FD041E25D089
:100EB000134B1860FFF7BCFB411C200000F0CCF87E
:100EC000104B04001860FFF7A5FB411C200000F048
:100ED000C3F80D4B441E18600C49200000F0BCF80C
:100EE000FA210B4B013018708900200000F0B4F893
:100EF000084B01301860084BC003186010BDC04695
:100F000084000008880000088000000840420F00AC
:100F100094000008900000088C00000810B52048DC
:100F2000FFF722F9B022E02130201E4CD200A35856
:100F300089005B005B08A3506358834363508023A0
:100F40005B04A350184B194AE250A02204339201CB
:100F5000E250FF22164BE250FFF780FFC022012132
:100F60005200A3588B43A350FFF79BFFFFF79AFF54
:100F7000104B03201A681300BA33198807234B4318
:100F8000126A80219B180022DA605A600A4AFFF731
:100F9000C7FA0A48FFF7A0F90948FFF7D9F910BDC9
:100FA0001814001000002640840500000100020013
:100FB0008C050000C40500088003000844040008F4
:100FC000D81400109023034A5B01D0580323184023
:100FD0007047C0460000204010B59024FFF77DF810
:100FE000074B64011A5907491140074A0A431A512D
:100FF000102259681142FCD0FFF773F810BDC046AB
:1010000000002040FCFF00000100FA05F8B5902523
:101010000E4C6D010700FFF760F863590600DB43D3
:101020009B0701D1FFF7D8FF80239B00E75063594E
:10103000074A1A40074B13436351102362681A4250
:10104000FCD03000FFF74DF8F8BDC046000020404E
:10105000FCFF00000300FA05002243088B4274D312
:1010600003098B425FD3030A8B4244D3030B8B42A9
:1010700028D3030C8B420DD3FF22090212BA030CB2
:101080008B4202D31212090265D0030B8B4219D393
:1010900000E0090AC30B8B4201D3CB03C01A5241B3
:1010A000830B8B4201D38B03C01A5241430B8B42FB
:1010B00001D34B03C01A5241030B8B4201D30B03E4
:1010C000C01A5241C30A8B4201D3CB02C01A52410B
:1010D000830A8B4201D38B02C01A5241430A8B42CE
:1010E00001D34B02C01A5241030A8B4201D30B02B7
:1010F000C01A5241CDD2C3098B4201D3CB01C01AD1
:10110000524183098B4201D38B01C01A52414309DA
:101110008B4201D34B01C01A524103098B4201D3C8
:101120000B01C01A5241C3088B4201D3CB00C01A35
:10113000524183088B4201D38B00C01A52414308AD
:101140008B4201D34B00C01A5241411A00D20146D2
:10115000524110467047FFE701B5002000F006F845
:1011600002BDC0460029F7D076E770477047C046F9
:10117000002B11D1002A0FD1002900D1002802D064
:101180000021C943081C07B4024802A1401802907C
:1011900003BDC046D9FFFFFF03B4684601B50298FE
:1011A00000F030F8019B9E4602B00CBC7047C04670
:1011B000F0B5CE46474615042D0C2E0080B5070429
:1011C000140C3F0C9946030C7E435D436743634315
:1011D0007F19340CE4199C46A54203D980235B0295
:1011E0009846C4444B4643435143250C360465445A
:1011F000360C2404A4195B19591820000CBC904625
:101200009946F0BDF0B54F464646D646C0B50400F7
:1012100082B00D00914698468B422FD82CD0414683
:10122000484600F0CFF829000600200000F0CAF878
:10123000331A9C46203B9A4600D576E04B465246F0
:1012400093401F004B46624693401E00AF4228D891
:1012500025D05346A41BBD41002B00DA7BE00022C1
:1012600000230092019301235246934001930123EE
:1012700062469340009318E08242D0D900220023B6
:10128000009201930A9B002B01D01C605D600098C6
:10129000019902B01CBC90469946A246F0BDA342FB
:1012A000D7D900220023009201936346002BE9D096
:1012B000FB079846414672080A437B0866460EE0E3
:1012C000AB4201D1A2420CD8A41A9D41012024199D
:1012D0006D410021013E24184D41002E06D0AB4245
:1012E000EED9013E24196D41002EF8D100980199E4
:1012F000534600196941002B23DB2B005246D34093
:101300002A006446E2401C0053461500002B2DDBEA
:1013100026005746BE40330026006746BE403200D6
:10132000801A994100900191ACE7624620239B1AF4
:101330004A46DA406146130042468A4017001F437E
:1013400080E7624620239B1A2A0066469A402300C3
:10135000F3401343D4E76246202300219B1A002266
:10136000009101920122DA40019280E72023624637
:1013700026009B1ADE402F00B0466646B740464620
:101380003B003343C8E7C0461C2101231B0498429D
:1013900001D3000C10391B0A984201D3000A083906
:1013A0001B09984201D30009043902A2105C4018BD
:1013B0007047C04604030202010101010000000061
:1013C0000000000010B5002903D1FFF7DDFF203039
:1013D00002E0081CFFF7D8FF10BDC046030012183A
:1013E000934200D1704719700133F9E7F8B5C04650
:1013F000F8BC08BC9E467047F8B5C046F8BC08BCAF
:101400009E4670470000000001B40248844601BCBB
:10141000604700BF61020008000020400000244037
:1014200000000040000000000000234000003040A9
:101430000000314000009F400000224000001040AA
:1014400000009B402020202020132010101E208010
:1014500017007500FF03050104001C0310000000C5
:101460001FC0000000040000000000000019324B03
:10147000647D0202000000804000080B10000000A4
:101480000000FF012002001F00800004FF08101868
:10149000001000140018001C4044484C500000008C
:1014A0000810000008000000040000000410000004
:1014B00000120000042100000021000000160000BE
:1014C00040114002C41300138013A013401388136B
:1014D000A81320001C000000030000000100000011
:1014E000010000000000000005036000040000008F
:1014F0000100000000000000010000000604600080
:1015000008000000A4050008990E0010000000006B
:10151000F4FCFF7F01000000000000100000000844
:10152000800000003815001080000008F80200005C
:10153000B00300081802000000093D0000127A0004
:1015400000093D000000D007A00F000004000000CB
:10155000A90000108100001080B230B5C00020D07A
:10156000104B07221C682300BA331B885A43236A96
:10157000D31819680029FCDA3E210B4B06251960A7
:101580000A4B0B491960A3210A4BC9005D500A4957
:1015900058505858206A1218002050605A58002A93
:1015A000FCDA30BDC40500080401264008012640CD
:1015B0001E1F0000000026401C05000010B54378E7
:1015C000FF2B11D100F00CF90400032000F0E8F823
:1015D000C3685A68012311681943116011681942E0
:1015E000FCD1200000F01CF910BDF7B500900020E0
:1015F000019100F0D5F83F4D06002B681A005033DA
:10160000BC3214681B780419002B5AD000F0F8F88B
:10161000070003281BD000F0E3F8374A374B0500DA
:10162000D358002B3EDA364A0121300000F0C0F8D2
:10163000002837D10198FFF78FFF009B002B3ED089
:101640002368002BFCDB00F0C3F804002BE006202D
:1016500000F0A6F82B68BC331B68C0180368002B89
:1016600002DA284C2000FEBD002000F0C1F8264B15
:101670009842F6D00023254A19001268012000F094
:101680009FF80025A842ECD1002000F0B1F81E4AD6
:101690001F4B904203D09D42E3D00135F4E79D42B9
:1016A000B9D1DEE7174C032F05D10121002000F04E
:1016B000AFF80028F9D1280000F0B2F8D2E7154CB5
:1016C000F1E700F08DF80E4A05000121300000F02E
:1016D0006FF8002809D1009B002B08D02368002B4D
:1016E000FCDB00F075F80400E5E7064CE3E7094C85
:1016F000E1E7C046C4050008000026401C050000C4
:10170000CC0300080500520001018800DC0300083A
:10171000F049020001005000184BF7B51B68184A49
:101720005C68042311690B431361012824D030BF86
:101730002300FC331B69002B1DD1A320114B124940
:10174000124AC0000F681E5815680195104D0D60B3
:1017500006251D503E2010600E483E351D501D5878
:10176000002DFCDA0C48FC3420610F60A321C90075
:101770005E50019B1360F7BD20BFD9E7C405000888
:1017800000ED00E00000264008012640040126404C
:101790001E1F00001C050000AAAAAAAA0000000043
:1017A00001B40248844601BC604700BF75010010C7
:1017B00001B40248844601BC604700BF9D0200108E
:1017C00001B40248844601BC604700BFAD0300106D
:1017D00001B40248844601BC604700BF39020010D2
:1017E00001B40248844601BC604700BFDB00001022
:1017F00001B40248844601BC604700BFDD0500100B
:1018000001B40248844601BC604700BFC50F001008
:1018100001B40248844601BC604700BF690500105E
:1018200001B40248844601BC604700BFE3000010D9
:1018300000000000000000000000000000000000A8
:081840000000000000000000A0
:1020000000F80108412300100D000000B523001066
:10201000B5230010B5230010B52300100000000008
:10202000000000000000000000000000B1230010CC
:10203000B123001000000000B1230010B1230010F4
:10204000B123001000000000B1230010B1230010E4
:1020500000000000B1230010B1230010B1230010D4
:10206000B1230010B1230010B1230010B1230010E0
:10207000B123001000000000B1230010B1230010B4
:10208000B1230010B1230010B1230010B1230010C0
:10209000B1230010B1230010B1230010B1230010B0
:1020A000B1230010B1230010B1230010B1230010A0
:1020B000B1230010B1230010B1230010B123001090
:1020C000B1230010B1230010B1230010B123001080
:1020D000B1230010B1230010B1230010B123001070
:1020E000B1230010B123001000000000B123001044
:1020F000B1230010B1230010B1230010B123001050
:1021000000000000B1230010B1230010B123001023
:10211000B1230010B12300100000000000000000F7
:10212000B1230010B1230010B1230010B12300101F
:10213000B1230010B1230010B1230010B12300100F
:10214000B1230010B1230010B1230010B1230010FF
:10215000B1230010B1230010B1230010B1230010EF
:10216000B1230010B1230010B1230010B1230010DF
:10217000B1230010B1230010B1230010B1230010CF
:10218000B1230010B1230010B1230010B1230010BF
:10219000B1230010B1230010B1230010B1230010AF
:1021A000B1230010B1230010B1230010B12300109F
:1021B000B1230010B1230010B1230010B12300108F
:1021C000B1230010B1230010B1230010B12300107F
:1021D000B1230010B1230010B1230010B12300106F
:1021E000B1230010B1230010B1230010B12300105F
:1021F000B1230010B1230010B1230010B12300104F
:10220000B1230010B1230010B1230010B12300103E
:10221000B1230010B1230010B1230010B12300102E
:10222000B1230010B1230010B1230010B12300101E
:10223000B1230010B1230010B123001000000000F2
:10224000000000000000000000000000B1230010AA
:10225000B1230010B1230010B1230010B1230010EE
:10226000B1230010B1230010B123001000000000C2
:10227000000000000000000000000000000000005E
:102280000000000000000000B1230010000000006A
:10229000000000000000000000000000000000003E
:1022A000000000000000000000000000000000002E
:1022B000000000000000000000000000000000001E
:1022C000B1230010B1230010B1230010B12300107E
:1022D00000000000000000000000000000000000FE
:1022E000B1230010B1230010B1230010B12300105E
:1022F000B1230010B1230010B123001010B5054C1C
:10230000237833B9044B13B10448AFF300800123A1
:10231000237010BDF4290008000000004CAD00102F
:1023200008B5034B1BB103490348AFF3008008BD58
:1023300000000000F82900084CAD001070477047FD
:10234000FFF7FCFF72B6144C144DAC4209DA216859
:102350006268A368043BA2BFC858D050FAE70C34A7
:10236000F3E70F490F4A00209142BCBF41F8040B2C
:10237000FAE70D480D490860BFF34F8F00F0A4FA4B
:1023800000F088FAFFF7DBFF04F094FD00F0D8FAC4
:1023900004F07CFDFEE7000058AD001070AD0010A9
:1023A000F4290008B42D00080020000808ED00E022
:1023B000FEE7FEE700B504207146084202D0EFF3C5
:1023C000098002E0EFF30880043003F08DFFFEE7A0
:1023D00000B583B04FF4E1330093FF231A46282160
:1023E000292004F0A9FB00B101BE03B05DF804FB95
:1023F00008B500231A461946332000F099FC00B1B5
:1024000001BE00231A461946342000F091FC00B1A9
:1024100001BE00231A461946352000F089FC00B1A0
:1024200001BE08BD224B1B6913F0080F02D1214ADF
:102430000121117013F0100F02D11F4A01211170F8
:1024400013F0200F02D11D4A012111701B4A12788E
:1024500022BB194A12781ABB164A127812BB23F013
:102460000802012A0ED023F01002012A0ED023F018
:102470002003012B0ED0114B1B78ABB90E4B1B78F0
:10248000A3B970470B4A00211170ECE70A4A0021FA
:102490001170ECE7094B00221A70ECE7032070473B
:1024A00002207047012070470620704705207047C2
:1024B00000033140102A0008112A0008122A0008DF
:1024C00008B5FFF795FF00231A461946322000F0A1
:1024D0002FFC00B101BE00231A461946332000F03C
:1024E00027FC00B101BE00231A461946342000F033
:1024F0001FFC00B101BE08BD08B513E0414BD3F885
:10250000802022F00102C3F880201A6822F0010224
:102510001A60D3F8802022F00102C3F88020322014
:1025200001F0BCF8FFF77EFF062855D801A353F849
:1025300020F000BFFD24001051250010752500106B
:102540009D250010C1250010C9250010D1250010BF
:102550002C4BD3F8802042F00102C3F880201A6887
:1025600022F001021A60D3F8802022F00102C3F8A1
:102570008020D4E7234BD3F8802042F00102C3F837
:102580008020D3F8802022F00102C3F88020D3F805
:10259000802022F00102C3F88020C0E7194B1A689E
:1025A00042F001021A60D3F8802022F00102C3F841
:1025B0008020D3F8802022F00102C3F88020AEE70B
:1025C000114805F01DF9AAE7104805F019F9A6E72A
:1025D0000F4805F015F9A2E70A4BD3F8802022F046
:1025E0000102C3F880201A6822F001021A60D3F8B1
:1025F000802022F00102C3F88020064805F000F98F
:102600008DE700BF00043140C0A40010D4A4001026
:10261000E8A40010FCA4001008B500F039F800F0A0
:1026200003F800F015F808BD08B50021084602F0CF
:102630005DFFFF220021084602F032FE002108461D
:1026400002F012FF014800F079FC08BD14A500104B
:1026500010B5094C094A0621204601F0DDFE084864
:1026600000F06CFC074A0721204601F0D5FE064821
:1026700000F064FC10BD00BF0003314050A5001005
:1026800084A5001018A500104CA50010FEE700005E
:1026900010B59621002003F079FE012004F086F9A0
:1026A00004F02CF904F006FA04F0F0F900210846D1
:1026B00003F048F8002002F0B3FF012002F098FF79
:1026C000002002F045FF4A4B1B6893F83F4003E0AF
:1026D000204603F0ADFA013C002CF9D10021012085
:1026E00003F0B6F8002003F01BF8002869D003F0CF
:1026F00063F90021084603F0ABF80021084602F018
:10270000EFFF002002F08CFF002002F071FF00209C
:1027100002F01EFF0021012003F09AF80021084674
:1027200003F096F80021022003F092F80021032024
:1027300003F08EF80021042003F08AF82D4803F0FE
:1027400055F9002848D12C4803F000FA002846D15A
:102750000021084602F0C4FF0021084602F0F2FF03
:102760002649012003F08AFA00283BD142F2107179
:10277000012003F011FBC0BB02F030FF002002F08B
:1027800001FF002002F014FF02F01EFF6421002070
:1027900003F0FCFD00F044F803F012F8002003F011
:1027A00023F8174800F0CAFB164800F0C7FB16488C
:1027B00000F0C4FB154800F0C1FB154800F0BEFB5B
:1027C00010BD03F073F840F2111398428FD101212C
:1027D000002002F085FF8AE70420FFF757FF04205E
:1027E000FFF754FF0320FFF751FF0320FFF74EFFD1
:1027F000A02C000888A50010400D0300B0A5001013
:102800009CA50010A0A50010A4A50010A8A500106C
:10281000ACA5001008B5012002F02EF808BD7047E5
:1028200010B5002003F0C2FC00B910BD0446114BE6
:10283000186002F0EBFE0130B4FBF0F00E4B1860B4
:1028400002F0FCFE0130B4FBF0F40C4B1C60013CC8
:102850000B4BA3FB04239B0C01330A4A13700A4B56
:10286000A3FB04239B090133084A1360DB03084AD6
:102870001360DAE720230008242300081C23000843
:1028800083DE1B4330230008D34D62102C23000845
:102890002823000808B5094801F00CFCFFF7BFFF2A
:1028A000FFF7BEFF00221146032002F03BF8044868
:1028B00001F09CFE034801F0F1FE08BD98A800104D
:1028C000142A0008B8A50010EFF3108172B6074A69
:1028D000D2F8883043F47003C2F88830BFF34F8FCA
:1028E000BFF36F8F81F31088704700BF00ED00E0E9
:1028F00008B5044803F0CCFE08B1002008BD02482A
:10290000FCE700BF342300080000020610B500F009
:1029100013FB044628B144B1FFF77EFE5CB12046AC
:1029200010BD00F069FE0446F5E740F6E4410020E2
:1029300000F0AAFEF0E7FFF7DBFF0446EFE7000038
:1029400010B5FFF7E3FF00B101BEFFF741FD62B62E
:102950000F4804F055FF0F4C204604F051FF0E497C
:102960000E4804F04DFF0E490E4804F049FF0E4991
:102970000E4804F045FF0E490E4804F041FF204682
:1029800004F03EFFFFF79CFDFFF7B6FDFEE700BF3A
:10299000ECA50010F8A50010FC22000830A60010DD
:1029A00038A6001044A6001050A600105CA6001027
:1029B0005023000868A600100230800803D00130C0
:1029C0000238FCD100BF00BF7047EFF3108072B631
:1029D000704780F31088704701BE0148704700BF00
:1029E00002020204024B0B600723136000207047B1
:1029F0005C23000808B5407803F0D8FB08BD000050
:102A000038B5054614468A4294BF00230123834209
:102A100009D080F001038A422CBF002101218B42A2
:102A200001D04DB138BD03F063FF0549A1FB04316E
:102A3000890C03F0ABFCF4E7FFF7F2FEF2E700BF0E
:102A400083DE1B432DE9F04104460A78A2F10D0311
:102A5000DBB2012B04D90F2A2FD14E78013600E0CA
:102A60004E78002002F08EFE0746002002F058FE4D
:102A700003F07CFB20FA07F8304603F077FB20FADE
:102A800007F763786BB1F1B2607802F029FE054672
:102A900063789BB958B93A4641460020FFF7B0FF2A
:102AA0000CE03A4641460120FFF7AAFFEBE7424619
:102AB00039460020FFF7A4FF00E0024D2846BDE89C
:102AC000F08100BF01020204F8B50546013907296B
:102AD00035D8DFE801F004263406343434240026E7
:102AE00000E00226002002F04DFE0746002002F022
:102AF00017FE03F03BFB20FA07F720FA06F46B7889
:102B00008BB13146687802F01DFE06466B78BBB982
:102B100078B9224639460020FFF772FF10E00326FD
:102B2000E0E70126DEE7224639460120FFF768FF8D
:102B3000E7E73A4621460020FFF762FF00E0014E3A
:102B40003046F8BD0002020408B519B1407802F021
:102B500081FD08BD407802F0A7FDFAE708B540788E
:102B600002F090FD08BD08B590F800C01CF0020FFF
:102B700006D14A1E41780CF0030002F091FB08BD1B
:102B800000234A1E41780CF0030002F0CBFBF6E76D
:102B900008B531B10378417803F0030002F064FC1A
:102BA00008BD0378417803F0030002F09FFCF7E7CB
:102BB0000048704720A700102DE9F04182B0074679
:102BC0000D469046084601F006FAC6B2002401E020
:102BD0000134E4B2B44213D205238DF804308DF8E9
:102BE00005508DF8064001A800F0A8F9034600281A
:102BF000EED13D707C700122BA70C7F8048000E00D
:102C0000024B184602B0BDE8F08100BF020E02047C
:102C100030B583B00C46054678B184B105238DF8F4
:102C2000043023788DF8053063788DF8063001A8DC
:102C300000F084F928B103B030BD01BEEDE701BE5C
:102C4000ECE7226863682A606B600123AB70F2E7EF
:102C500010B5034648B11878122808D003280AD9BD
:102C6000586844681846A04710BD01BEF3E71846EF
:102C7000FFF76AFFF8E71846FFF78AFFF4E708B5A1
:102C8000034648B11A78122A08D0032A0AD95A688A
:102C900012691846904708BD01BEF3E71846FFF7D2
:102CA00013FFF8E71846FFF75EFFF4E710B582B0B0
:102CB000044690B1A37803B901BE05238DF8043012
:102CC00023788DF8053063788DF8063001A800F080
:102CD00079F90023A37002B010BD01BEEAE708280D
:102CE0001CD8DFE800F00923051E0B0D0F1113009F
:102CF0000A20012917D07047082070470C20F8E7F8
:102D00000D20F6E70E20F4E70F20F2E74B1EDBB2B2
:102D1000012B01D90820ECE70E20EAE701BE0820CC
:102D2000E7E70B20E5E700F0070070470020E2E747
:102D30002DE9F04387B00F4616461D462F4B1B78F2
:102D4000FBB94FF0000C07E02D4C002344F82C3069
:102D50000CF1010C5FFA8CFCBCF10E0FF4D94FF0B2
:102D6000000C08E0264B03EB4C0300229A870CF181
:102D7000010C5FFA8CFCBCF1050FF3D91F4B01224B
:102D80001A700B238DF80830C4088DF8094000F044
:102D900007088DF80A80029BADF814301B0C8DF8E3
:102DA0001630059BADF810301B0C8DF81230049BCB
:102DB000ADF80C301B0C8DF80E3003A800F0BEF8F7
:102DC000814618B1484607B0BDE8F0833946304621
:102DD000FFF785FF02460E2C0BD80A4B1B6898693B
:102DE00000EBC410002300932B46414601F030FA5B
:102DF000E8E7044B1B689869F4E700BF9C2B0008C8
:102E000018290008A02C000870B504280DD00D4624
:102E1000114602463C4C34F810E0441C1D2C07D8E7
:102E2000E4B2394E36F8144004E00D250520F0E7F1
:102E300040F205144FF0010C0CFA02FC334A0CEA84
:102E400002023AB9AE44A3F800E01B88A34258D26C
:102E5000002070BDC21E182A32D8DFE802F00D3102
:102E60003431310F25312931313131312B312D318F
:102E700031313131312F2700254A00E0254A1C80AD
:102E8000002AE2D00338182836D8DFE800F01E35D3
:102E90003835351E2F353135353535351E351E352E
:102EA0003535353535331E001B4AE8E71B4AE6E762
:102EB0001B4AE4E71B4AE2E71B4AE0E71B4ADEE75E
:102EC00001BE0022DBE71A4AD9E70126B542BCD28F
:102ED00032F81500704411FA80F11980691CB14272
:102EE000B3DA32F811407444A4B2AEE70226EDE73B
:102EF0001026EBE70226E9E701BE0026E6E71A26E0
:102F0000E4E70C48A5E700BFD0A70010280B0A0C87
:102F100060A7001098A700109CA70010CCA7001075
:102F2000A0A70010C0A70010C4A70010C8A70010D9
:102F300064A70010000E020400207047F0B583B0B3
:102F400004460027FFF741FD06460DF10603A2786F
:102F500061782078FFF758FF054668B9BDF806305C
:102F6000C3F3C70203F007031449895C012202FA84
:102F700003F3194218BF174605B9EFB92DB1304612
:102F8000FFF727FD284603B0F0BD0DF10603A27838
:102F900061782078FFF738FF05460028EFD1BDF8AB
:102FA0000630C3F3C70103F00703044801229A4027
:102FB000435C13434354E2E7014DE0E7A02B0008D4
:102FC000010E020430B583B00446FFF7FEFC05464F
:102FD0000DF10603A27861782078FFF715FF02460D
:102FE00060B9BDF80630C3F3C70003F00703074C10
:102FF00001219940235C23EA0103235402B101BE5D
:103000002846FFF7E6FC03B030BD00BFA02B000848
:1030100070B582B00D468378772B16D8DA0813493D
:1030200009688E6906EBC216C27803F007040092A5
:1030300001232A462146304601F00AF90A2D08D01C
:103040000B2D0CD0002002B070BD084A12689669A2
:10305000EAE701222146304601F054F9F2E7002266
:103060002146304601F04EF9ECE700BFA02C0008E5
:1030700010B582B00146772810D8C308094A1268F3
:10308000906900EBC310002400940123082201F092
:10309000070101F0DDF8204602B010BD014B1B68AE
:1030A0009869F0E7A02C000800B583B0ADF80000E7
:1030B00001911146684603F0BFF803B05DF804FBC8
:1030C000123820281CD8DFE800F0191B1B1B1B1B23
:1030D0001B1B1B1B1B1B1B1B1B1B1B1B1B1B1B1B40
:1030E0001B1B1B1B1B111E131B15170000207047F9
:1030F0000220704704207047052070470620704763
:1031000001BE0020704701207047000038B503461B
:10311000084850F82340084850F8235044B12DB1D6
:10312000002318460BB92046A84738BD0123F8E70D
:103130000123F6E7E02B0008C42B00082DE9F0413D
:1031400005460E46084600F02EFF074600244FF0C5
:10315000010817E0022229463846FFF7D7FF01375A
:10316000FFB2BC42F6D8022E1AD0082E18D0012E7B
:1031700019D1B8F1000F16D00C4B01221A7012E0D1
:103180000134E4B2062CEED83A4629462046FFF731
:10319000BDFF80460028F3D1012EF1D10027E0E7E2
:1031A000024B00221A704046BDE8F081C12B000896
:1031B00008B5EFF30580103800B240F2FF339842B3
:1031C00005D0FFF77DFF034B53F8200008BD00201A
:1031D000FCE700BFE02B00082DE9F04383B08046F8
:1031E0000E4617469946002416E099F802206B789F
:1031F0009A4201D0002325E0012323E017238DF814
:103200000430735C8DF805306B788DF8063001A8BA
:10321000FFF794FEC8B10134BC421AD2A10006EBFC
:10322000840595F802C0C445F5D1B9F1000FE5D089
:1032300099F80030172BE1D199F80120735C9A427C
:10324000D3D00023002BE6D004E001A8FFF7BAFE9C
:1032500000E00025284603B0BDE8F0832DE9F043E7
:1032600083B007460D4616460024A14600E001340F
:10327000B44220D24FEA840805EB840393F802C0DD
:10328000BC45F4D117228DF8042015F824208DF8C0
:1032900005205B788DF8063001A8FFF74FFE002867
:1032A000E5D101A8FFF78EFE15F808200123934011
:1032B00049EA0309DBE7484603B0BDE8F0830000B4
:1032C000014B1878704700BFC12B000808B5124B9E
:1032D00043F82010114B43F8202000231A4601E048
:1032E0000133DBB2062B08D80B4850F82300002826
:1032F000F6D0012A07D00132F2E72AB901B101BEA6
:10330000074800F06DF908BD012AFCD10029FAD068
:10331000034800F059F9F6E7E02B0008C42B000839
:10332000782300082DE9F0410446884616461F46DA
:1033300004E0012288F80020E2B1E46840F28975D7
:10334000AC4217D02568002DF7D094F804C036EAB7
:103350000C03F2D1637937EA0303EED0A268394651
:103360003046A8470028E4D1012F01D00122E1E72F
:103370000022DFE72046BDE8F08170B504460D4627
:10338000164600E0E468AC420FD02368002BF9D069
:10339000217936EA0102F5D1627912F0020FF1D1FA
:1033A000A268022130469847ECE770BD38B5054663
:1033B0000C46FFF70AFBE36813B1FFF70AFB38BDC1
:1033C0002B68E3602C60F8E738B504460D46FFF73C
:1033D000FCFA01E003F10C04236840F28972934285
:1033E00005D0AB42F6D1EB6823600023EB60FFF71A
:1033F000F0FA38BD2DE9F04182B00D4600F0DFFD56
:10340000044601238DF80730022808D0082806D08A
:10341000102804D01A4B1E681A4B1F6803E0184B83
:103420001F68184B1E6823462A460DF107013846CF
:10343000FFF778FF80469DF8073063B930469DF866
:1034400007300BB9012C0ED09DF80730B3B1002026
:1034500002B0BDE8F08123462A460DF1070130464F
:10346000FFF760FFEBE72A4601463046FFF785FF8E
:103470002A4641463846FFF780FFE5E70248E7E77E
:103480008C23000888230008FF00420038B50C4652
:1034900010212046FFF7AEFF0546042C01D0284638
:1034A00038BD002002F082FE0349A1FB0031890CE7
:1034B000012002F06BFFF2E783DE1B4338B50C46B8
:1034C00008212046FFF796FF0546082C01D0284624
:1034D00038BD002002F06AFE0349A1FB0031890CCF
:1034E000002002F053FFF2E783DE1B4308B50846D5
:1034F0000421FFF77FFF08BD10B50446FFF77AFFF0
:10350000042C02D0082C17D010BD4FF0E0231B690B
:1035100013F0010F04D00E4B1B7813B1012300E010
:1035200000230C4A1370002BEED04FF0E0221369F9
:1035300023F001031361E7E7064B1B78002BE3D070
:103540004FF0E022136943F001031361DCE700BF91
:10355000FE2B0008982C000808B50846012902D166
:10356000044B1B881BB90221FFF7C6FF08BD0248A8
:10357000FCE700BFFC2B0008FF00420008B508462E
:103580000121FFF7B9FF08BD38B584468E461546C0
:103590000C4C0FCCCCF80000CCF80410CCF8082070
:1035A000CCF80C3007CCCCF81000CCF81410CCF8C8
:1035B0001820CCF800508CF804E0604603F068F85E
:1035C00038BD00BF38A8001008B5014618B103483F
:1035D000FFF7ECFE08BD01BEF9E700BF8C23000831
:1035E00008B5014618B10348FFF7EEFE08BD01BE5D
:1035F000F9E700BF8C23000808B503F03FFA38B99B
:10360000164A00211648FFF7BFFF20B9154808BD2C
:1036100003F088F8F4E7144A01211448FFF7B4FFD7
:1036200008B91048F3E7124A02211248FFF7ACFF2D
:1036300008B90C48EBE7104A03211048FFF7A4FF34
:1036400008B90848E3E70E4A04210E48FFF79CFF3B
:1036500008B10020DBE70348D9E700BF7D35001043
:10366000782C0008011A020459350010082C0008B3
:10367000ED340010242C0008BD3400105C2C000830
:103680008D340010402C0008024600B101BE024BF0
:1036900043F82210704700BF942C000808B502F0D0
:1036A000FFFD002008BD012803D0022803D103201C
:1036B000704702207047002070470138032809D85E
:1036C000DFE800F0020B0406022070470620704776
:1036D0000820704701BE02207047042070478142D5
:1036E00006D9091A642303FB01F1B1FBF0F070471E
:1036F000411A642303FB01F1B1FBF0F070470000B5
:103700002DE9F04F87B004460D46174698469DF8C0
:1037100040901E23037100234373FF23C371037280
:1037200043728372994218D0FF2F1AD0FF2D02D115
:10373000FF2F00F0E380FFF748F98246FF2D15D1F7
:103740004FF0FF36FF2F18D1B8F1FF0F1CD1B9F1A0
:10375000FF0F20D136B300232BE09945E4D0684E0B
:10376000A9E0B8F1FF0FE1D0654EA4E00822654959
:103770002846FFF773FD0646E4E70822624938460B
:10378000FFF76CFD0640DFE7062260494046FFF781
:1037900065FD0640DBE706225D494846FFF75EFD12
:1037A0000640D7E75046FFF714F9554E83E0013342
:1037B000DBB226FA03F212F0010FF8D017228DF8CF
:1037C00014208DF8153000238DF8163005AB082233
:1037D0004C492846FFF700FD834605AB08224A49BD
:1037E0003846FFF7F9FC029005AB062247494046F0
:1037F000FFF7F2FC019005AB062245494846FFF76A
:10380000EBFC0390FF2D02D0BBF1000F0DD0FF2F7A
:1038100001D0029B4BB1B8F1FF0F01D0019B23B146
:10382000B9F1FF0F02D0039B03B901BE05A8FFF752
:1038300085FB06465046FFF7CCF8002E3BD1059B92
:10384000A3801B0CA371FF2D39D10EB9FF2F3FD1DF
:103850005EB9019B4BB10821184600F048FB0646B3
:1038600018B90123E37284F809805EB9039B4BB158
:103870000621184600F03BFB064618B901232373C6
:1038800084F80A9056B9119B5BB30023637304F16B
:103890001003119A92E8030083E803005EB960798F
:1038A000022801D90138C0B2217C627C01F00301F9
:1038B00001F09EFD0646304607B0BDE8F08F0621B8
:1038C000584600F014FB06460028BED12572BCE71E
:1038D0000821029800F00BFB06460028B8D1E771DA
:1038E000B6E701231A46211D04F1100000F090FBF9
:1038F0000646B0FA80F35B096373CFE7004EDAE760
:10390000001F0204C8A60010A8A6001078A6001088
:1039100090A600102DE9F8430446037AFF2B0CD043
:10392000D908772B05D84C480068866906EBC11684
:1039300004E0494909688E6900E00026A17AFF2960
:103940000ED0207BD0B1C808772905D8424D2D680C
:10395000AF6907EBC01704E03F480068876900E0E3
:10396000002703F0070501F00708013A072A65D888
:10397000DFE802F0064F64686464644F0027F0E7F4
:10398000A14659F8180B494601F0F6FB10F0010F5B
:1039900001D0002054E04946206801F0EBFB10F014
:1039A000010F51D12168D1F80832C3F30803D1F8CF
:1039B0000822C2F3C032D34248D1D1F80833C3F34E
:1039C0000803002B44D176B12946304600F07AFC3A
:1039D00084F898002946304600F0A2FC00222946CF
:1039E000304600F0FDFB77B14146384600F06AFCF6
:1039F00084F899004146384600F092FC0022414686
:103A0000384600F0EDFB4946206801F00FFB01202D
:103A100016E02268136843F0004313602EB194F857
:103A200098202946304600F0DBFB9FB194F899209E
:103A30004146384600F0D4FB012001E001BE0020E1
:103A4000BDE8F8830120FBE70020F9E70020F7E755
:103A50000020F5E70120F3E7A02C0008F8B5314D70
:103A60002E68FFF7A5FB2860002859D004460146C0
:103A700051F8180BD0F88C5FD0F8CC7F01F07EFBAA
:103A800015F0200F09D023682022C3F8802FD3F827
:103A9000803FE36C0BB11046984715F0400F09D0FA
:103AA00023684022C3F8802FD3F8803FE36C0BB12A
:103AB0002020984715F0010F04D0E36C13B14FF4A8
:103AC0008070984715F4007F13D023684FF400727C
:103AD000C3F8802FD3F8803F2268D2F8883F43F4A0
:103AE000007123F4EE6323F0030303B101BEC2F8B7
:103AF000881F17F0400F09D023684022C3F8C02F59
:103B0000D3F8C03FE36C0BB11020984717F0010FBA
:103B100004D0E36C13B14FF400709847014B1E6062
:103B2000F8BD00BF9C2C000838B50C46154602F0C5
:103B30004DFB05FB04F4B0FBF4F038BD2DE9F84370
:103B400080460E460824FF27A14601E00134E4B276
:103B5000102C15D806FB04F502F038FB00EB5501DC
:103B60002246B1FBF5F14046FFF7DEFF0146304645
:103B7000FFF7B5FDC0B28742E8D90746A146E5E7A1
:103B80004846BDE8F883000070B5044642791A4BF8
:103B900053F82200214641F8540B04F1180201F0B9
:103BA00095F8054608B1284670BD0023C4F89C303E
:103BB000C4F8A030C4F894306379104E104A032141
:103BC00036F91300FFF770FA637936F91330002BDA
:103BD00007DB03F01F015B0901228A40094941F814
:103BE0002320094A21466079FFF770FB2268136899
:103BF00043F000431360D6E70CA8001028A800107B
:103C00005D3A001000E100E01539001010B50446DF
:103C100088B1206840B104F1180101F007FA20686A
:103C200001F0E0F90023236023791E2B05D194F8DD
:103C3000A43023B310BD01BEEBE762791B4B33F90F
:103C40001230002B0CDB03F01F015B0901228A40BC
:103C50002033174941F82320BFF34F8FBFF36F8FF5
:103C6000002211466079FFF731FB94F8A43013B1BC
:103C70001E232371DBE7201DFFF7A4F9F8E7E01D01
:103C800000F02AF904F1080000F026F904F10A0016
:103C900000F022F904F1090000F01EF9637B002B0B
:103CA000C8D004F11000FFF701F8C3E728A80010FE
:103CB00000E100E0437B0BB9334870472DE9F04742
:103CC00004460E4690460546002155F8100B01F0BB
:103CD000ADF9002211462846FEF7BAFF30B122683E
:103CE000136843F000431360BDE8F08704F1040952
:103CF00031464846FFF722FF0746A06500FB06F65F
:103D000002F064FA00EB5600B0FBF6F631462846A6
:103D1000FEF7B5FF824640BB3A4631464846FFF7BC
:103D200003FFB8F1000F01D0C8F800000022012104
:103D30002846FEF78DFF94F8703013B34FF48033AC
:103D4000E26D082A01D84FF4006A43EA0A03013FF2
:103D500007F00F071F43236847F000771F602268B2
:103D6000136843F000431360BEE700220121284698
:103D7000FEF76EFF2268136843F00043136050465D
:103D8000B2E75346DCE700BF061F0204F8B506465B
:103D90000F461546FFF794FAA8B93368D3F84033B5
:103DA0002C4602E03368D3F84033B3F1FF3F07D12C
:103DB000002DF7D04CB1012002F072FA013CF1E77E
:103DC0003B700020F8BD0248FCE70248FAE700BF5C
:103DD000031A0204021F020438B504460D46FFF719
:103DE0006FFA28B1044806E02946206800F05FFE1B
:103DF0000028F9D0002038BD031A020408B5034694
:103E000030B139B153F8180B01F01CF9002008BD8E
:103E100001BEF6E701BEF5E72DE9F04182B00C46A0
:103E2000164698460A9F0546002844D0A82200213D
:103E3000284603F071F8099B01939DF82030009308
:103E40004346324621462846FFF75AFC044618BB33
:103E500005F1540C1F4C0FCCACE80F000FCCACE8B4
:103E60000F000FCCACE80F0094E80F008CE80F00B7
:103E7000EB7A85F874305FB13B68EB653879FFF712
:103E80001CFC85F86100387AFFF70DFC85F86200AC
:103E90002846FFF779FE044644B92FB1F96819B1F5
:103EA0003A692846FFF7AAFF6B7B33B96CB9204605
:103EB00002B0BDE8F08101BEB8E700224FF4E13165
:103EC0002846FFF7F7FE0446F0E72846FFF79EFE78
:103ED000EDE700BF54A8001010B504460078FF2895
:103EE00000D110BD00F037F8FF232370F9E770B55B
:103EF00084B004460D4683780B228DF80020DA0842
:103F00008DF8012003F007038DF80230009BADF817
:103F10000C301B0C8DF80E30039BADF808301B0CD9
:103F20008DF80A30029BADF804301B0C8DF806307A
:103F300001A8FFF703F8064610B1304604B070BD83
:103F400029462046FFF764F806460028F5D001A868
:103F5000FFF738F8F1E710B584B00446FFF788F8AA
:103F600000B101BE0B238DF80030E3088DF801305D
:103F700004F007048DF80240009BADF80C301B0CD8
:103F80008DF80E30039BADF808301B0C8DF80A300D
:103F9000029BADF804301B0C8DF8063001A8FFF72A
:103FA00011F804B010BD431E072B05D8DFE803F05D
:103FB000060604060404040601BE01207047431EE1
:103FC000072B05D8DFE803F0060604060404040600
:103FD00001BE01207047122815D8DFE800F00A164C
:103FE0000C0E1414141414141414141214101414A5
:103FF0000A0004207047022070470120704701200A
:104000007047052070470120704708207047000066
:104010002DE9F04383B0054616461F460B4651B1C5
:104020001978152909D01D2914D0052919D0002483
:10403000A1461B4827E001BEF2E71A4B93E80300B4
:1040400002AB03E9030069462846FEF7E1FD03B031
:10405000BDE8F083144B93E8030002AB03E90300CF
:10406000F1E701BE1148F2E74FF00109B5B1FEF7E3
:104070009FFD024641462846FEF79EFD0028E6D0F9
:10408000002FE4D00134032CE1D8094B13F804804D
:104090004645E9D0B9F1000FF4D0E7E701BEE6E705
:1040A000020E0204F8A6001000A70010020202048B
:1040B00094A80010014B1860704700BFA02C0008A6
:1040C000B0F1204F3CD018D880283BD007D9B0F5AC
:1040D000807F3FD0244B984209D024487047102855
:1040E00032D0402801D12248704700282ED1704795
:1040F0004FF4A40070471D4870471E4B98422BD0C8
:104100002DD31D4B98422CD8B0F1704F12D900F12D
:10411000805001380428EED801A353F820F000BFE6
:10412000F1400010F74000105141001039410010DB
:104130003D4100100D4870471048704710487047C7
:10414000002070470F4870470F4870470748704776
:104150000E487047044870474FF4A000704703486A
:1041600070470248C3E700BF06005200FF0052003C
:1041700002005000090000A0050000F002005200FB
:1041800003005200050052000100500001005200DF
:1041900010B5104B1B6893F83330012B00D801BECB
:1041A0000C4B1C68236AB4F8BA201344D4F8BC2022
:1041B000D358002B0BDB084B1868FFF781FF6368AF
:1041C00001229A6063689B68002BFBD110BD0348F5
:1041D000FCE700BFA02C0008A42C0008020050003F
:1041E00010B5072900D901BE32F01F0300D001BE6F
:1041F000164B1B689C69001BC0095B694FEA001CD9
:1042000003EB0010032910D853F80C00C9004FF03D
:104210001F0E0EFA01FE20EA0E0002F01F0202FA43
:1042200001F1014343F80C1010BD04394368C90083
:104230004FF01F0C0CFA01FC23EA0C0302F01F02E2
:1042400002FA01F119434160EEE700BFA02C00081B
:10425000F8B507460D4614461E469DF81820072956
:1042600000D901BE34F00F0303D1012C01D0092C79
:1042700000D101BE012E00D901BE32F01F0300D0D3
:1042800001BE29463846FFF7ABFF3B680122AA4032
:1042900023EA020306F00106AE401E433E60084BCF
:1042A0001B6893F88110CB59AD000F22AA4023EA76
:1042B000020304F00F04AC401C43CC51F8BD00BF16
:1042C000A02C0008072900D901BE0D4B1B689A6974
:1042D000801AC0095B69020103EB0010032906D8AC
:1042E0009858C90020FA01F101F01F007047043905
:1042F0004068C90020FA01F101F01F00704700BFBB
:10430000A02C0008072900D901BE012A00D901BE4E
:10431000012303FA01F10AB94160704781607047D7
:10432000072900D901BE012303FA01F1816070471A
:1043300000B5072900D901BE32F00F0303D1012ACD
:1043400001D0092A00D101BE89000A4B1B6893F8ED
:1043500081E05EF800304FF00F0C0CFA01FC23EA0C
:104360000C0302F00F028A401A434EF800205DF859
:1043700004FB00BFA02C000800B5072900D901BE2E
:10438000012A00D901BE0A4B1B6893F882E05EF84F
:1043900000304FF0010C0CFA01FC23EA0C0302F090
:1043A00001028A401A434EF800205DF804FB00BF6A
:1043B000A02C0008082900D901BE012A00D901BE9D
:1043C00083694FF0010C0CFA01FC23EA0C0302F0A4
:1043D00001028A401A4382617047000000B5082933
:1043E00000D901BE032A00D901BE4900094B1B6850
:1043F00093F880E05EF800304FF0030C0CFA01FCFB
:1044000023EA0C0302F003028A401A434EF800200C
:104410005DF804FBA02C0008002800F0A280F8B58D
:104420000D4614460646002A00F09D80072900D953
:1044300001BE2368012B00D901BE636833F00F026F
:1044400003D1012B01D0092B00D101BE237A33F017
:104450001F0300D001BEE368032B00D901BE23690E
:10446000012B00D901BE6369012B00D901BE236A6B
:10447000012B00D901BE636A012B00D901BEA36ADA
:10448000012B00D901BEE36A032B00D901BE236BC7
:10449000072B00D901BEE369032B00D901BEA36934
:1044A000012B00D901BE0121A9406A0002F1100CC4
:1044B000032303FA0CF319432C4F3B6893F8830052
:1044C000835923EA0101A36903F00103AB400B43C5
:1044D000E26902F0030202FA0CF213438351227ADA
:1044E00029463046FFF77CFE626829463046FFF7D2
:1044F0001FFFE26829463046FFF770FF2269294610
:104500003046FFF757FF626929463046FFF734FF10
:104510003B6893F88410705820F0FF00236A03F082
:104520000103626A520002F002021343A26A92007F
:1045300002F004021343E26AD20002F018021343AD
:10454000226B5201D2B21343AA0002F47E7293404E
:1045500003437350226829463046FFF7D3FE0020FC
:10456000F8BD034870470248FAE700BFA02C0008D6
:1045700001005A00084B1B68D3F8BC301B58002BB5
:1045800007DA0B0C1B0403B101BE89B241600020A5
:1045900070470248704700BFA02C000801008A0045
:1045A0000368002B08DAC2600B0C1B0403B101BEC8
:1045B00089B28160002070470048704701008A007E
:1045C0000A4651B1074B1B68D3F8BC301B58002B6F
:1045D00005DAC36813600020704701BEF2E70248A5
:1045E000704700BFA02C000801008A00034B1B6825
:1045F00003B17047014B1860FBE700BFC82C0008EF
:10460000F0B4049D234C2468002C40D0214C276832
:104610002C2400FB04F43819DEB23E51C3F3072406
:1046200044601B0C83601C4B1B6893F833309E4224
:1046300000D301BE184B1B681C6AB3F8BA7007FBA5
:1046400006440461446893F834309C4200D301BEB0
:10465000114B1B681B6A803403EB4413436184686D
:10466000260C360406B101BE260C360406B101BE86
:104670001FFA84FC4CEA04449C60C261016200237E
:10468000836115B1B5F900308381F0BC704701BE7C
:10469000BCE700BFC82C0008A02C000830B58FB0C4
:1046A0000446002847D0A369072B00D901BEE36A5E
:1046B000002B42D0236B002B41D00DF11C0C04F1D8
:1046C000140EBEE80F00ACE80F00DEF80030CCF8A6
:1046D00000300DF1080CA646BEE80F00ACE80F0054
:1046E000DEF80030CCF80030079B1733ADF83030DF
:1046F000089B0D930CAD00950B9BA26AE16A0A988A
:10470000FFF77EFF00210091069B0A460598FFF700
:1047100077FF216B284601F08FFDBDF93030002B6B
:1047200007DB03F01F015B0901228A40054941F8BC
:1047300023200FB030BD01BEB5E701BEBAE701BE10
:10474000BBE700BF00E100E030B51546002A30D0DD
:104750001D4A1268002A2ED01B4A14684FF02C0CF8
:104760000CFB00420CFB014148684FF0010E0EFAB1
:1047700000F04FEA004C50680EFA00FE1469E4B1F4
:104780008869E0B92468002C1BDA2C882C6044EA84
:104790000C042C601469E56001248C614B62126981
:1047A0004FEA1E431B0403B101BE1FFA8EF3936050
:1047B00030BD01BECCE701BECEE70448F8E70448AF
:1047C000F6E70348F4E700BFC82C000804028A009B
:1047D00007028A0070B582B000230193044628B313
:1047E00023692BB363692BB3236A2BB36369DD6839
:1047F0002A0C0BD02A0C12041A601B6820691D4B6E
:104800001B68D3F8BC301B58002B17DBADB24DB181
:1048100063691D601B68636A3BB39847002363624A
:104820000023A36163691B6802B070BD01BED7E7B6
:1048300001BED7E701BED7E701BED7E701A9FFF761
:10484000BFFE60B9019803681E0CDBB2E2699A42B0
:1048500006D9226A52F8233013B1984700E00026A7
:1048600031462069FFF786FED0E7A36A002BD7D038
:104870009847D5E7A02C000808B5064B1B683BB14C
:10488000044B1B682C2202FB0030FFF7A3FF08BD7E
:1048900001BEF5E7C82C00081E4B1B6893F83330A7
:1048A000834233D970B50C46002931D00B6813F020
:1048B0001F0F01D0184870BD164B1B6893F833309A
:1048C000984200D301BE134B1B681D6AB3F8BA307F
:1048D00003FB0055114E35602268D2080021606844
:1048E00002F01AFB00212846FFF744FE2246002171
:1048F0003068FFF755FE08B10948DCE70021306851
:10490000FFF738FE0028D6D00548D4E702487047A4
:104910000148D0E7A02C000803018A00CC2C000835
:1049200001018A0010B50B4614461AB1E4B1ABB9C7
:104930000E4810BD0029F9D10D4A126892F83320B3
:10494000904200D301BE0A4A11680A6AB1F8BA104F
:1049500001FB0020074A10601846EAE706490B6091
:104960004C60FFF799FFE4E70048E2E703018A00A3
:10497000A02C0008CC2C0008082900082DE9F041E3
:10498000194B1B68DD682B6883422BD90C464609FE
:1049900000F01F00012303FA00F8B9B10027124B01
:1049A00018680368002B17DA6A6852F8263013EA91
:1049B000080F0FD023EA080342F826300025002113
:1049C000FFF7D8FD54B12846BDE8F081FDF7FDFFA3
:1049D0000746E4E7054DF2E7054DF3E73846FDF7F6
:1049E000F8FFF0E7034DEEE7CC2C00080201880049
:1049F0000301880004018A000B4B1B68DB681A68FE
:104A000082420CD9410900F01F00012202FA00F095
:104A10005B6853F82130034203D0044870470448D0
:104A200070470448704700BFCC2C00080101880083
:104A300004018A0000018800084B1B689B6CC3407E
:104A400013F0010F00D101BE044B1B681B6910302D
:104A50008002185800F00F00704700BFA02C00081B
:104A600010B4D0F8003313F0080305D000230DE094
:104A7000D0F84043CC5401339342F9D35DF8044B52
:104A80007047D0F8404321F8134001339342F8D3E4
:104A9000F4E710B51446D0F80833C3F308039A427C
:104AA00000D31C462246FFF7DBFF204610BD0368FB
:104AB00013F4006F0AD08022D0F80832C3F3080341
:104AC000934205D0C0F84012012070474022F3E71E
:104AD0000020704710B4D0F8003213F0080305D05E
:104AE00000230DE0CC5CC0F8404201339342F9D37F
:104AF0005DF8044B704731F81340C0F84042013371
:104B00009342F8D3F4E710B51446036813F4006F2A
:104B10000DD08023D0F80822C2F308029B1AA342CA
:104B200000D81C462246FFF7D5FF204610BD402383
:104B3000F0E70346026812F4006F07D080204008B7
:104B40001B6D13F0FF0300D0184670474020F6E7B6
:104B50002DE9F04105460C46036813F4006F12D0AE
:104B60008027D5F8006206F00806A26A012A0CD850
:104B7000D5F80832C3F308039F4202D0A36A012B81
:104B800018D0BDE8F0814027EBE7D4F82480E2623A
:104B9000013AB8F1000F00D002B901BE41462846E3
:104BA000FFF7B1FFA36A1B1AA36206B1400040449D
:104BB0006062DDE70023A3623EBB636A1E78FDF7F7
:104BC00004FF4FF40073C5F8803FD5F8803FC5F867
:104BD0004062FDF7FEFED5F8883F23F4007222F014
:104BE000010242F4007223F4EE6323F0030303B1E5
:104BF00001BEC5F8882F236843F002032360636B6E
:104C0000002BBED001209847BBE7636A1E88D6E719
:104C100070B505460C46FFF78CFF0646A169E269B0
:104C200001B102B901BE2846FFF733FF236A0344EE
:104C30002362E3691B1AE3614BBBA3681BB3E06803
:104C4000B0421CD3013E2B6813F4006F19D08023AF
:104C50009E4200D301BED5F8043323F0FF03F6B221
:104C60001E43C5F804630123C5F8C83F636823F0F9
:104C700001036360636B0BB10420984770BD461E4F
:104C8000E1E74023E4E70023C5F8C83FEEE7A26967
:104C9000D5F8001311F0080F00D040001044A061B7
:104CA000B342EBD2013B2A6812F4006F0CD0802291
:104CB000934200D301BED5F8042322F0FF02DBB2F9
:104CC0001343C5F80433D9E74022F1E7002800F088
:104CD0007F810346002900F07D8110B40878022806
:104CE00000D901BE487B0238C0B2062800D901BEF7
:104CF000887B20B1022802D0032800D001BE91F8A1
:104D00002100012800D901BE91F82800012800D90E
:104D100001BE0878012806D9887F48B14868013863
:104D2000062805D903E048680838082800D901BEDC
:104D300088680538042800D901BE4869FF2800D9D1
:104D400001BE8869FF2800D901BE887C30B108788F
:104D500018B98868092800F0828001BE486B20F4E9
:104D6000366020F00D0000B101BEC86B20F4EE608B
:104D700020F0030000B101BE0878022874D0486812
:104D800000F1FF3C087F002874D04FF480308C681D
:104D9000082C71D84FF4006420430CF00F0C40EA4B
:104DA0000C0040F0007018600C6B186810F4006F75
:104DB00064D08020844200D301BE8C6B186810F44C
:104DC000006F5DD08020844200D301BE4C6A186819
:104DD00010F4006F56D08020844200D301BE0878C2
:104DE000000600F040701864487F00284CD0402036
:104DF0008C7C002C4AD04FF4806420430C7C002C27
:104E000046D04FF4807420434C7C002C42D04FF4A9
:104E100000742043CC6A04F1FF3C4FEA0C4C0CF4C4
:104E2000702C40EA0C0091F80DC00CF1FF3C0CF026
:104E3000070C40EA0C0091F80EC04FEA0C1C0CF075
:104E4000300C40EA0C009864087B28B34FF4807063
:104E5000CC7B1CBB0C78022C48D0002420E0887B43
:104E600000283FF47BAF78E7887F002887D14FF098
:104E7000000C87E700208AE700248DE7402099E7AF
:104E80004020A0E74020A7E70020B1E70024B4E7D6
:104E90000024B8E70024BCE70020D9E74FF40074F1
:104EA00020438C6804F1FF3C0CF00F0C40EA0C002E
:104EB000C3F8000391F814C08869000400F47F006F
:104EC0004CEA0000C3F81003CC6AD3F8000300F0EA
:104ED0000F000330844201D3102C00D901BEC87FDB
:104EE00038B10878012863D0002403E04FF400743F
:104EF000D6E70024487B013800F00700204391F8F2
:104F00000EC04FEA0C1C0CF0300C40EA0C00586448
:104F1000087B00284FD04FF480748868013800F077
:104F20000F0020430C78012C47D000242043C3F805
:104F3000000291F83000C3F8040391F82000002823
:104F40003ED04FF0007091F82140012C3AD000245F
:104F5000204391F82840012C37D00024204391F8B9
:104F600024402043186591F83800C3F80402486BC8
:104F700020F4926020F002000005000DC3F8C80F75
:104F8000C86B20F08C004005400DC3F8880F1AB3A1
:104F90000020506010609060D0601062D06250635A
:104FA0008B7F82F830300D4B93635DF8044B704774
:104FB0004FF480749EE70024AFE74FF48034B5E7E8
:104FC0000020C0E74FF08074C2E74FF48034C5E79B
:104FD00003487047024870470020E6E7EFCDAB007A
:104FE0000160AA00104B03604FF04073036400237C
:104FF000836440F20712C0F80023C0F80433C0F8FD
:1050000010334364C0F80022C0F804320365C0F8CE
:10501000C83EC0F8883EC0F8C83FC0F8883FC0F816
:10502000083FC0F8483F70470F000003036823F0B3
:105030000043036021B100224A600A600A62CA622A
:1050400070470000F8B505460E4614461F4653B19A
:10505000BA6B174B9A4200D001BE06B104B901BE2B
:1050600006B114B9F8BD01BEF2E72846FFF761FDAD
:10507000BE60FC6000233B617B61844214D3441E0C
:105080002B6813F4006F11D080239C4200D301BE23
:10509000D5F8043323F0FF03E4B21C43C5F80443FE
:1050A0000123C5F8C83FDDE7013CE9E74023ECE711
:1050B000EFCDAB0008694B69834202D84B69C01A37
:1050C0007047CB684A699B1A184470472DE9F04134
:1050D00007460D46FFF72DFD8046D7F80863C6F357
:1050E00008062C6931E0002435E06B6B0BB1082019
:1050F00098476B69A34231D10023C7F8C83FECB190
:10510000013C2C61EC6829463846FFF7D3FF201A92
:10511000804511D900B101383B6813F4006F27D0E6
:105120008023984200D301BED7F8043323F0FF0355
:10513000C0B21843C7F80403BDE8F081EC68013C35
:10514000DFE7AB6823F81420013E002ED9D00134EC
:10515000EB68A342C7D06B69A342C6D0D7F84023FF
:10516000D7F8003313F0080FEBD1AB681A55EBE713
:105170004023D6E7486870470868704738B504464A
:105180000D46D0F8003E13F0080F3FD0D0F8CC3FCA
:1051900013F448730AD04A681A434A60C0F8C03F03
:1051A000D0F8C03F4B6B0BB110209847D4F8CC3FE0
:1051B00013F4006F09D06B6843F400636B604FF425
:1051C0000063C4F8C03FD4F8C03FD4F8CC3F13F01C
:1051D000010F0DD0EB69002B52D1AB681BB12946F2
:1051E0002046FFF773FF0123C4F8C03FD4F8C03F47
:1051F000D4F8CC3F13F0040F08D06B6B0BB14020F8
:1052000098470423C4F8C03FD4F8C03FD4F8003E08
:1052100013F0040F33D0D4F88C3F13F4A0630AD0FA
:105220002A681A432A60C4F8803FD4F8803F6B6B29
:105230000BB120209847D4F88C3F13F0010F24D1F4
:10524000D4F88C3F13F4007F0BD00022C4F8882FD1
:105250002B6823F001032B60EA626B6B0BB1022019
:105260009847D4F88C3F13F0100F08D06B6B0BB13C
:10527000802098471023C4F8803FD4F8803F38BD81
:1052800029462046FFF7C4FCADE729462046FFF734
:105290005FFC0123C4F8803FD4F8803FD0E70000D2
:1052A000A0B9032931D8FF2A31D81C4B186883686C
:1052B000B0F878C09C445CF8210020F47F401202D2
:1052C00092B202434CF8212000207047012801D0FF
:1052D0001348704707291CD8B2F5803F1BD20F4BEB
:1052E00018688368B0F87AC09C445CF8210020F408
:1052F0007F0020F47F40130223F07F4323F0FF035D
:1053000003434CF82130002070470548704704489B
:105310007047034870470248704700BFA02C000840
:1053200001004A0030B4022804D003282DD02E48B2
:1053300030BC704701294BD8B2F5803F4AD21F2BB1
:105340004AD82A4C2568A868B5F87CC084445CF823
:10535000210020F47F0020F47F40120222F07F42DF
:1053600022F0FF0210434CF8210022689068B2F846
:105370007C20104450F8212022F0F802DB00DBB240
:10538000134340F821300020D2E739BBB2F1807FCF
:1053900026D21F2B26D8154C2568A868B5F87EC0E4
:1053A00084445CF82100C0B240EA02224CF821207B
:1053B00022689068B2F87E20104450F8212022F034
:1053C000F802DB00DBB2134340F821300846AFE7B8
:1053D0000548ADE70448ABE70348A9E70248A7E75B
:1053E0000148A5E70048A3E701004A00A02C0008F7
:1053F0001B4B1B6893F842C084452BD903292BD83B
:1054000009B9032A0ED9012905D0022906D003299A
:1054100007D014487047072A04D9F6E7012AF6D8BE
:1054200000E0DAB900B593F875E001FA0EF14FF03B
:10543000030C0CFA0EFC01EA0C0193F874C00CEAA0
:1054400002029B68114300F5407043F820100020D1
:105450005DF804FB034870470248704701487047F5
:10546000A02C000801004A00032836D808B90329F7
:105470000ED9012805D0022806D0032807D01948E4
:105480007047072904D9F6E70129F6D800E031BBB7
:1054900010B5154B1A6892F877304FF0030E0EFADC
:1054A00003F392F874C092F876400CFA04F42343A4
:1054B00092F87540A0400EFA04FE00EA0E00184370
:1054C0000CEA01019368084340F00040C3F800046F
:1054D0009368D3F80034002010BD0248704701489B
:1054E000704700BF01004A00A02C0008032826D8FE
:1054F00008B903290ED9012805D0022806D00328AF
:1055000007D011487047072904D9F6E70129F6D8D2
:1055100000E0B1B90D4B1A6892F875C000FA0CF0B2
:10552000032303FA0CF3184092F87430194093687F
:10553000084340F08040C3F8000400207047024850
:1055400070470148704700BF01004A00A02C0008C6
:10555000054B1A681168D2F888208B5823F47F43D2
:1055600043EA00238B507047A02C0008044B1B68B3
:105570001A68D3F88830D058C0F30720704700BFAE
:10558000A02C000840F20133984200D901BE074A1E
:10559000D2F8043523F4407323F0010320F0FE0019
:1055A0008005800D0343C2F8043570470000264093
:1055B000044AD2F8043523F47F0343EA0043C2F8D7
:1055C0000435704700002640034AD2F8043543F002
:1055D0000043C2F80435704700002640034AD2F861
:1055E000043523F00043C2F804357047000026401C
:1055F000054B1A681168D2F888208B5823F07F4336
:1056000043EA00638B507047A02C0008034B1B68D3
:105610001A68D3F88830D058000E7047A02C0008C4
:10562000054B1A681168D2F88C208B5823F47F43FD
:1056300043EA00238B507047A02C0008044B1B68E2
:105640001A68D3F88C30D058C0F30720704700BFD9
:10565000A02C0008084B1B6893F84030834209D9FE
:10566000064AE03052F8203043F0004342F8203040
:105670000020704702487047A02C00080000264018
:1056800001004A00064B1B6893F84030834205D95D
:10569000E030044B53F82000C00F704700207047E3
:1056A000A02C000800002640034678B1094A126881
:1056B00092F8402082420BD90749E03351F8232069
:1056C00022F0004241F82320002070470348704731
:1056D00002487047A02C00080000264001004A0044
:1056E0000C4B1B6893F8403083420ED90F290ED81B
:1056F000094AE03052F8203023F00F0301F00F0187
:10570000194342F8201000207047044870470348AE
:10571000704700BFA02C00080000264001004A008E
:10572000064B1B6893F84030834200D801BEE0303E
:10573000034B53F8200000F00F007047A02C000826
:10574000000026400C4B1B6893F8403083420FD971
:1057500003290FD8094AE03052F8203023F03003F3
:10576000090101F03001194342F820100020704770
:105770000348704702487047A02C000800002640EC
:1057800001004A00064B1B6893F84030834200D862
:1057900001BEE030034B53F82000C0F30110704706
:1057A000A02C000800002640024B1869C0F38000BE
:1057B000704700BF0000274000207047002070475E
:1057C000074BD3F8800110F0010007D11A46D3F837
:1057D0000C3523F00043C2F80C3570470148704780
:1057E0000000264003004A00064BD3F80C3523F096
:1057F000010328B101221343024AC2F80C35704755
:105800000022F8E700002640014B1868704700BFEF
:10581000D42C0008074BD3F8303503F00303032BD7
:1058200005D0044BD3F8300500F00100704702208A
:10583000704700BF0000264008B5FFF7EBFF0228C5
:1058400001D0002008BD014B1868FBE7D82C0008E8
:10585000134B1B6893F83E3083421DD9042904D9A9
:10586000A1F580739BB2132B18D8FF290CD901F036
:105870001F010C4B00F1C00243F82210D03004226B
:1058800043F820200020704701F00701D030054B7D
:1058900043F82010002070470348704702487047C3
:1058A000A02C00080000264001004A0002460C4BD4
:1058B0001B6893F83E30834200D801BE02F1D0034A
:1058C000084951F8230000F00700042800D0704771
:1058D000C03251F8220000F01F0040F48070F6E75B
:1058E000A02C00080000264008B5284B1B6893F840
:1058F0003E30834200D801BEFFF7D8FF03280DD900
:10590000B0F58A7F40D2B0F5887F0FD3A0F58870BC
:10591000032835D8DFE800F0151F3127032803D806
:10592000DFE800F03006090C00202CE000202AE01F
:10593000FFF76AFF27E0FFF77FFF24E0FFF73CFF58
:1059400021E0134BD3F80C35002B01DB00201AE0CB
:105950004FF4004017E0FFF727FF08B9002012E0DE
:105960004FF400400FE00A4BD3F83C35002B01DB2D
:10597000002008E04FF4004005E0FFF71FFF02E0C1
:10598000002000E0034808BD0020FCE7A02C000830
:105990000000264000127A00024BD3F88005C00FA9
:1059A000704700BF00002640024BD3F8900500F07E
:1059B00001007047000026400B4BD3F8882522F0E9
:1059C000405242F00052C3F88825D3F8802522F0D7
:1059D0000042C3F88025D3F88C2522F00042C3F89A
:1059E0008C250020704700BF0000264010B50446FB
:1059F00000286ED0FFF7D0FF00286ED12368B3F5E2
:105A0000802F00D301BE2368C3F31103E279002A7B
:105A100061D04FF080721343314AC2F88035A388B9
:105A2000B3F5005F00D301BE2389B3F5007F00D337
:105A300001BEA388C3F30C0321892A4A02EA01426A
:105A40001343274AC2F88435A37A0F2B00D901BE2D
:105A5000E37A0F2B00D901BEA389B3F5005F00D311
:105A600001BEA37A03F00F03E27A1201D2B213430C
:105A7000A1891D4A02EA01221343A27B120702F008
:105A800040521343164AC2F88835A379042B00D933
:105A900001BE238AB3F5007F00D301BE1049D1F8BF
:105AA0008C3523F4E063A279120202F4E06213431E
:105AB000C1F88C35D1F88C3523F0FF7323F4803393
:105AC000208A084A02EA00421343C1F88C350020BC
:105AD00010BD01BE8EE700229DE70448F8E700BF35
:105AE000000026400000FF0100FF1F0003004A00E5
:105AF000034638B31449D1F88025C2F31100186069
:105B0000C2F30062DA71D1F88425C2F30C009880E8
:105B1000C2F308421A81D1F8882502F00F0098726A
:105B2000C2F30310D872C2F30C209881C2F3017241
:105B30009A73D1F88C25C2F302219971C2F30842FD
:105B40001A82704701BED5E70000264038B50546E9
:105B5000214AD2F88C3543F00043C2F88C35044614
:105B600003E0012000F0B4FB013C1B4BD3F890355F
:105B700013F0040F01D1002CF3D1174AD2F8883565
:105B800023F0405343F00053C2F8883505B15CB1AF
:105B9000114AD2F8803543F00043C2F8803503E063
:105BA000012000F095FB013CFFF7FEFE08B9002C38
:105BB000F6D105B15CB1084AD2F8883543F04053BC
:105BC000C2F888350DB12CB10025284638BDFFF745
:105BD000F3FEF7E7014DF8E70000264002004A0017
:105BE0000138074B1B6893F83F30834200D801BE51
:105BF00000F5C070034B53F82000C00F704700BF82
:105C0000A02C0008000026400138074B1B6893F8C1
:105C10003F30834200D801BE00F5C870034B53F8F3
:105C2000200000F001007047A02C00080000264072
:105C300038B501380E4B1B6893F83F30834201D8CA
:105C40000C4838BD0C4D00F5C07455F8243023F0D5
:105C5000405343F0005345F82430012000F038FB56
:105C600055F8243023F0004345F824300020E8E7BD
:105C7000A02C000801004A000000264038B52F4B38
:105C80001B6893F83F30834201D22D4838BD04464B
:105C90000D46FFF7A5FF002844D1AA78931EDBB27A
:105CA0000E2B41D86B78002B40D0122B40D829788E
:105CB000E87888B34FF0130C61453BD378B34FF0CD
:105CC000380C614538D8013C95F804C0BCF1020F8E
:105CD00012D001F07F011B0203F4F8530B431204AE
:105CE00002F4F8121A43C00600F00060024304F503
:105CF000C073144941F82320124904F5C07451F8C7
:105D0000243023F040532A79120702F04052134303
:105D100041F824300020B9E74FF0160CCCE74FF0E3
:105D2000700CCEE70848B1E70548AFE70448ADE797
:105D30000348ABE70248A9E70148A7E7A02C000801
:105D400001004A000000264003004A0001380F4BC2
:105D50001B6893F83F30834215D900F5C0700C4B97
:105D600053F8203003F07F020A70C3F304224A7014
:105D7000C3F304428A70C3F3C062CA70C3F30173F1
:105D80000B71002070470348704700BFA02C00082B
:105D90000000264001004A0070B5451E274B1B68D5
:105DA00093F83F30AB4246D90E46254A05F5C071FF
:105DB00052F8213043F0004342F82130344603E0EA
:105DC000012000F085FA013C05F5C8731C4A52F821
:105DD000233013F0010F01D1002CF1D106B1A4B191
:105DE00005F5C073164A52F82330C3F30173022B32
:105DF00001D0002070BD05F5C07552F8253043F084
:105E0000405342F825300020F4E70D4C05F5C075ED
:105E100054F8253023F0405343F0005344F8253024
:105E2000012000F055FA54F8253023F0004344F8DF
:105E300025300448DEE70448DCE700BFA02C00085A
:105E40000000264002004A0001004A00F8B501396E
:105E5000072900F2F280DFE811F008001200F000DC
:105E60001600F000F000F0007900764B1B78002B54
:105E700040F0E680744B01221A700027DEE0002714
:105E8000714B1F70DAE00024704B1C80704B1C803B
:105E900004E02046FFF7A4FE58B901346D4B1B689F
:105EA00093F83F30A3424FD3002CF2D1FFF774FD9B
:105EB000F2E72046FFF7FAFC02280BD0002CECD1C9
:105EC000654AD2F8883523F0405343F00053C2F8B6
:105ED0008835E2E7A4B9604AD2F8883523F0405308
:105EE00043F00053C2F8883500212046FFF7B0FC8C
:105EF0000123A3409BB2554A11880B431380CCE782
:105F0000621E04F27F13544951F8233013F0405FAE
:105F100007D002F5C07351F82330C3F30173012B8E
:105F200006D10123A3409BB24949088803430B8053
:105F3000494902F5C07251F8223023F0405343F032
:105F4000005341F82230CFE7002777E03F4B1B8812
:105F5000002B59D0414CFFF75DFC022802D00CB158
:105F6000013CF8E7002C4CD13D4F374B00221A7012
:105F700064E0013CFFF718FD08B9002CF9D144B1E9
:105F80002DBB354AD2F8883543F04053C2F88835E6
:105F90002F4601352F4B1B6893F83F30AB42E4D3BB
:105FA0000126AE40B6B2294B1B881E42F1D0022119
:105FB0002846FFF74DFC002DDCD000E0013C2846D0
:105FC000FFF722FE0028DAD1002CF7D1D7E7204BCB
:105FD0001B881E420AD0204A05F27F1152F8213058
:105FE00023F0405342F821300027D2E71A4A05F245
:105FF0007F1152F8213043F0405342F821300027FE
:10600000C7E70025164FC5E7FFF7C6FC88B900278C
:10601000ABE7013CFFF7C8FC08B9002CF9D154B13B
:106020000D4AD2F8883543F04053C2F8883500272E
:106030009BE70A4CEEE70A4F97E70A4F3846F8BD50
:10604000084FFBE7D22C0008DE2C0008D02C0008FB
:10605000DC2C0008A02C00080000264040420F0065
:1060600002004200FF00420070B586B00023019399
:10607000029303930493059301A8FFF739FDFFF7FB
:106080008BFC38B19DF81230022B01D0012102E0C7
:10609000002100E00021019DBDF8084020469DF848
:1060A0000B3083B1022681B184B10020FFF71CFCC4
:1060B000A0FB0501A4FB06235408001941F10001CF
:1060C00000F064FD02E00126EDE7002006B070BD9F
:1060D000254B1B6893F83F20002A43D0F0B583B0CE
:1060E000044658B193F83E30834200D801BE1E4B9F
:1060F0001B6893F83F30A34202D2002003B0F0BDEA
:10610000002300938DF8043069462046FFF71EFEF9
:106110002046FFF765FD38B19DF80430022B01D011
:10612000012302E0002300E000239DF800709DF8A9
:10613000015028469DF8026093B1002DDED00EB9C3
:106140003046DBE72046FFF7CFFBA0FB0771A5FB3E
:1061500006235008381841F1000100F017FDCDE783
:106160000020CBE700207047A02C000810B50446A3
:106170000D4B1B6893F83E30834200D801BE4CB1F2
:10618000094B1B6893F83F30A34208D22046FFF723
:10619000ABFB10BDFFF768FF0028FAD1F6E72046F9
:1061A000FFF796FFF8E700BFA02C000870B5064681
:1061B000FFF7E8FA0446012585403046FFF7B0FABC
:1061C000FFF7D4FF00EB5500E04070BD10B5002094
:1061D000FFF7ECFF0446FFF719FA013004EB500417
:1061E000B4FBF0F010BD10B5FFF7F0FF0446FFF769
:1061F000BDF9013004EB5004B4FBF0F010BD000019
:106200000A4B9A680A4B9A4204D01030094B53F853
:106210002000704739B100F11003054A52F82300FD
:1062200042F82310704701BEF5E700BF00ED00E023
:10623000002000080020001038B308B584464368E9
:10624000072B00D901BEBCF90030DCF80420002B7C
:106250000EDB5201D2B203F1604303F5614383F8D0
:1062600000230B4B9A680B4B9A4208D0002008BDC4
:1062700003F00F035201D2B20748C254F1E7BCF950
:106280000000FFF7BDFF0020F1E70448704700BFA2
