:020000041000EA
:1000000000200008EB0000100D0000004D01001062
:1000100000000000000000000000000000000000E0
:100020000000000000000000000000004901001076
:10003000000000000000000049010010490100100C
:100040004901001049010010490100104901001048
:100050004901001049010010490100104901001038
:100060004901001049010010490100104901001028
:100070004901001049010010490100104901001018
:1000800010B5064C2378002B07D1054B002B02D06E
:10009000044800E000BF0123237010BDB003000836
:1000A000000000000C150010044B10B5002B03D00D
:1000B0000349044800E000BF10BDC0460000000036
:1000C000B40300080C1500100230800803D0013082
:1000D0000238FCD1C046C0467047EFF3108072B6BC
:1000E000704780F3108870477047FFF7FDFF72B6C6
:1000F0000F4C104DAC4209DA21686268A368043BDA
:1001000002DBC858D050FAE70C34F3E70A490B4A2F
:100110000020521A02DD043A8850FCDC08480949E4
:100120000860BFF34F8F00F0F9FE00F0A9FEFEE774
:100130001815001030150010B0030008C80500089D
:100140000000000808ED00E0FEE7FEE700B504202F
:100150007146084202D0EFF3098002E0EFF3088015
:10016000043000F08DFCFEE7014B18607047C0467C
:10017000C4050008044B1B681A00BA3212881B6AB7
:100180005043C0187047C046C40500081D4B984234
:100190000FD010D840282FD005D8002830D01028F4
:1001A00028D019481EE0802828D080235B00984280
:1001B000F7D1144816E0154B984214D008D8A02364
:1001C0001B0698421CD0124B9842EAD1A0200BE0AB
:1001D000104B98420AD0104B984209D00F4B9842CE
:1001E000DFD10F487047A420C003FBE70D48F9E7B3
:1001F0000D48F7E70D48F5E70D48F3E70D48F1E73F
:100200000020EFE706005200FF005200010000F05E
:10021000090000A0040000F0050000F0030000F059
:100220000100520002005200030052000100500081
:10023000020050000500520010B50020FFF79AFFA1
:100240000A4B1C682300BC331B68C0180368002BD2
:100250000ADB074B1868FFF799FF012263689A6071
:100260009A68002AFCD110BD0248FCE7C4050008CA
:10027000CC03000802005000064B1B68BC331B680F
:10028000C3181B68002B03DA89B241600020704755
:100290000148FCE7C405000801008A000368002B40
:1002A00004DA89B2C2608160002070470048FCE730
:1002B00001008A00064B1B68BC331B68C3181B680F
:1002C000002B03DAC36800200B6070470148FCE78D
:1002D000C405000801008A00024B1A68002A00D1F8
:1002E00018607047E0030008F0B52C246043154CFB
:1002F0001F0024681D0A2018FF2425402740124CA7
:100300001B0C26680760346A45608360BA363688FD
:1003100077433F1907612F0080376D017F01E7198F
:1003200064190A4D47611F043B436419236000238D
:100330008361059BC2610162002B01D01B88838110
:10034000F0BDC046E0030008C40500080810000026
:10035000F0B5836885B002AD2B800368066A173359
:100360006B804368476A0095826AC16A0400039300
:100370000369C068FFF7B8FF00213B000A00009145
:100380003000FFF7B1FF216B280000F02DFB0022A9
:10039000AB5E002B06DB1F2213401E3A9A4013006F
:1003A000014A136005B0F0BD00E100E0F7B52C256F
:1003B000134C684326686943341825690193711802
:1003C000002D19D08869002818D12E68002E15DA62
:1003D0006768012426004B689E40B44613689EB2AD
:1003E00063461B041E431660EA608C61BC40019B9F
:1003F000A4B24B62AC60FEBD0248FCE70248FAE7DB
:10040000E003000804028A0007028A0073B5002690
:1004100042690400D56801962B0CB34221D01B041D
:1004200013601368194B00691B68BC331B68C31841
:100430001B68B34215DA01A9FFF73CFFB0420CD1AB
:100440000198E26903681E0CDBB29A4205D9226A60
:100450009B009B58002B00D0984731002069FFF784
:100460000BFFADB2002D09D063691D6000251B682C
:10047000636AAB4205D098476562A56163691B68F2
:1004800073BDA36A002BF8D09847F6E7C4050008AF
:100490002C2310B54343034A1068C018FFF7B6FF7A
:1004A00010BDC046E0030008F8B5194B0F001B68EB
:1004B0001A0033321278824227D9002925D01F250D
:1004C0000A68154021D11900BA310C88114E6043D9
:1004D0001C6AD208041929007868346000F07EFF95
:1004E00029002000FFF7C8FE3A0029003068FFF716
:1004F000D5FE041E07D101003068FFF7BDFE0300E2
:100500002000002B00D00448F8BD0448FCE7C0469A
:10051000C4050008E403000801018A0003018A0001
:1005200010B5002A0DD1002914D10B4B1A68130005
:10053000BA331B885843136AC018084B1860080068
:1005400010BD002906D0064B196019005A60FFF74C
:10055000ABFFF5E70348F3E7C4050008E403000830
:100560007803000803018A00F7B5184F04003B68C0
:100570000191DE683368834226D90025A94202D161
:10058000FFF7ABFD050038680368002B1ADA1F225D
:1005900001232240934064097268A4001419226860
:1005A00013420DD09A43226000240021FFF764FE1D
:1005B000019B002B02D12800FFF793FD2000FEBD18
:1005C000034CF2E7034CF3E7034CF7E7E4030008BE
:1005D000020188000301880004018A000A4B1B689D
:1005E000DB681A6882420DD959681F2342091840F6
:1005F0001E3B8340920050581840431E9841034BC5
:10060000C01870470248FCE7E403000800018800B6
:1006100004018A00054B1B681A0088321B681268A7
:100620009B181868000AC0B27047C046C40500088D
:10063000044B1B681A0088321B6812689B181868E4
:10064000000E7047C4050008024B18694007C00F30
:100650007047C04600002740A6220549D2008B58AB
:100660000220DB439B0702D00123885818407047C3
:100670000000264010B5FFF7EFFF0023022801D14C
:10068000014B1B68180010BDEC030008094A8300E9
:100690009B18D0229200985807221040042807D1B6
:1006A000C022920098581F23034080204000184326
:1006B0007047C0460000264010B5FFF7E7FF02284C
:1006C0001CD005D8002824D0012814D0002014E024
:1006D0001223FF33984214D01423FF33984215D0CD
:1006E000033B9842F2D10C4A0C4BD358002BEDDA65
:1006F0008020000201E00A4B186810BDFFF7BAFF26
:10070000FBE7FFF7A1FF0028E0D0F1E7024A054B25
:10071000EBE70548F1E7C046000026400C05000065
:10072000E80300083C05000000127A00B023154AD7
:10073000DB00D35810B59903DB01DB0F890BC371C4
:10074000114B0160D3580F24D904DB01DB0D038169
:10075000B123DB00D358C90C81801900214081727C
:1007600019092140C172D9029B009B0F8373074B6B
:10077000C90CD35881815A05DB01520FDB0D827100
:10078000038210BD00002640840500008C05000097
:1007900010B5104B421E1B683F331B78934216D98D
:1007A0007F221F248030FF300B4B8000C3581A403B
:1007B0000A701A0C2240180A8A701A012040E2407E
:1007C000487000209B009B0FCA700B7110BD03483E
:1007D000FCE7C046C40500080000264001004A00AE
:1007E000F0B589B003AC14220021200000F0F6FD22
:1007F0002000FFF79BFFB0231A4ADB00D2580023EA
:100800009A4203DAA37B023B5A1E9341E579002604
:100810006A1E95410135B34221D0A488B4421ED04E
:10082000039B30000193FFF747FF2A0033000700C6
:100830003100200000F0BCFC0C0005003300019AE0
:100840003100380000F0B4FCE6076A083243630860
:10085000801859412A00230000F08AFC060030006D
:1008600009B0F0BD00002640F0B50026244B85B04D
:100870001B6807003F331B78B3423ED0B0423CD0E8
:1008800083423AD30522310002A800F0A7FD02A955
:100890003800FFF77DFF3B008033FF33194A9B0090
:1008A0009B58B34229DA02AB1B79022B25D002AB4D
:1008B0005C78B44221D09D78B5421ED01B783800B8
:1008C0000193FFF7F9FE2A003300070031002000F2
:1008D00000F06EFC0C0005003300019A3100380076
:1008E00000F066FCE6076A08324363088018594145
:1008F0002A00230000F03CFC0600300005B0F0BDEB
:10090000C40500080000264010B5041E04D1FFF7FE
:1009100067FF002806D008E0064B1B683F331B78B2
:10092000834203D22000FFF7C7FE10BDFFF79CFFF4
:10093000EFE7C046C4050008E02210B50124094BCA
:1009400080009200C018835880589B069B0F9C40E3
:100950000F231840FFF7D8FF63081818210000F094
:100960007BFB10BD00002640144B30B51A680724ED
:1009700013002C331B781F2B15D883081D00A543AB
:100980002C1E0FD103342040A040814012689B00F0
:100990002032D3180A00FF2181401C6862401140B8
:1009A0006140196030BD802320401B06184380231E
:1009B0009B011268C91889008850F3E7C405000834
:1009C000064B9A680300064810339B00824202D10E
:1009D000985899507047034AD058FBE700ED00E063
:1009E0000000000800000010F8B506000D00002807
:1009F0003AD00023C05E002828DB7188FFF7B4FFDF
:100A00000024FF22032794460023F05E716883B21E
:100A10001F40FF006646BA4089013140D243B940C9
:100A2000002815DB114E83089B009B19C026B600D9
:100A30009F593A40114399510D4B9A680D4B9A4278
:100A400002D12900FFF7BCFF2000F8BD0A4CD8E70F
:100A50000F263340083B064E9B089B009B19DE691E
:100A600032401143D961E7E7034CEDE700E100E0D4
:100A700000ED00E00000000801005600FEE7000065
:100A800002680A4B10B51A6042685A6082689A6020
:100A9000C268DA6002691A6142695A6182699A61C0
:100AA000C269DA61FFF7EAFF10BDC0469003000893
:100AB000B0235B055A782120002A01D05878C0B2B3
:100AC0007047B0235B059A89002A02D0988980B2CA
:100AD000704780204000FBE77FB5274B86000D0064
:100AE000F458042901D0012927D100200FE0A36880
:100AF0002B420BD1E36829001A685B6802920193CC
:100B0000039302A8236898471C4B1C606469002C5F
:100B10000BD01B4B9842EAD1012DE8D1174B184856
:100B20001A68184B9A5104B070BD012DFBD1144BBB
:100B30009842F3D0134B9C51F5E7022906D10F4B95
:100B40001B68181EEFD01C6903E01C006369002BB2
:100B5000FBD10020002CE6D0A3682B4209D1E3682A
:100B600029001A685B6802920193039302A8236824
:100B700098472469EEE7C046300400082C040008BA
:100B8000FF004200180400081A4B1B681900883146
:100B90001A68096851180968016219008C310968DE
:100BA0005218126842621A0046321278002A1FD088
:100BB0009A68E0321268D2061AD5F222DB68D201B6
:100BC0009A580260F022D2019A5842600A4A9A5812
:100BD00082600A4A9A58C260094A9A580261094AD0
:100BE0009A584261084A9A588261084A9B58C361E0
:100BF0007047C046C405000804780000087800006B
:100C00000C780000107800001478000018780000BC
:100C10001A4B1B681A008832196812688A18016A10
:100C200011601A008C32196812688A18416A1160C2
:100C30001A0046321278002A1ED09A68E0321268F2
:100C4000D20619D5F0224168DB68D201995081683B
:100C50000B4A9950C1680B4A995001690A4A995048
:100C600041690A4A99508169094A9950C169094AFA
:100C700099500168E83299507047C046C405000891
:100C800004780000087800000C780000107800005C
:100C90001478000018780000F7B50700FFF708FF88
:100CA000664D06006B68002B00D07DE0FFF715FA5B
:100CB0006B680090002B00D089E0614C2268130023
:100CC000BA33198807234B43126A9B181A68002A03
:100CD000FCDADB68DA0021D51B0F1B0759480193AA
:100CE000FFF752FF5849212E00D075E0226890206E
:100CF000130088331C68136800011C1923680B401B
:100D00000343236013008C3312681B68D3181A68DE
:100D10001140084318604B4B019A13438022484E00
:100D20009205316813430A00BA3210880722002462
:100D30004243096A5218D36054605368FFF7C1FEFA
:100D400080235B0098425DD1380000F05DFB326883
:100D50001300BA33198807234B43126A9B181A6889
:100D6000002AFCDADF68FB0003D538010009FFF731
:100D70004FFF364B32681F401300BA3319880723E0
:100D80004B43126A00989B180022DF605A60FFF7FD
:100D9000A8F9002C0FD16B68002B03D0082101208B
:100DA000FFF79AFE2000FEBD01210800FFF794FE28
:100DB000041E00D17AE76B68002B03D002210120CA
:100DC000FFF78AFE224B9C42ECD0224CEAE704213A
:100DD0000120FFF781FE70E720688022030088333E
:100DE0001C68036852001C1923680B4013432360DE
:100DF00003008C3300681B68C318186801400A435D
:100E00001A6088E733681A00BC32196A12685218EF
:100E10001168002910DBBA331B889A181368002B5D
:100E20000ADB04230C4A11690B431361012F01D023
:100E300030BF8CE720BF8AE7054C88E73004000804
:100E4000C4050008F0030008FF00FFFFFFFFFFDFFD
:100E500005004200FF00420000ED00E0C0228020BB
:100E6000064952008B58C0059B009B0803438B50DA
:100E7000802388581B0603438B5070470000264090
:100E800010B562B6034800F0C1F80020FFF704FF78
:100E9000FBE7C0460020001010B50020FFF7F8FA6D
:100EA00010BD704710B50020FFF746FD041E25D089
:100EB000134B1860FFF7BCFB411C200000F0CCF87E
:100EC000104B04001860FFF7A5FB411C200000F048
:100ED000C3F80D4B441E18600C49200000F0BCF80C
:100EE000FA210B4B013018708900200000F0B4F893
:100EF000084B01301860084BC003186010BDC04695
:100F000084000008880000088000000840420F00AC
:100F100094000008900000088C00000810B52048DC
:100F2000FFF722F9B022E02130201E4CD200A35856
:100F300089005B005B08A3506358834363508023A0
:100F40005B04A350184B194AE250A02204339201CB
:100F5000E250FF22164BE250FFF780FFC022012132
:100F60005200A3588B43A350FFF79BFFFFF79AFF54
:100F7000104B03201A681300BA33198807234B4318
:100F8000126A80219B180022DA605A600A4AFFF731
:100F9000C7FA0A48FFF7A0F90948FFF7D9F910BDC9
:100FA0001814001000002640840500000100020013
:100FB0008C050000C40500088003000844040008F4
:100FC000D81400109023034A5B01D0580323184023
:100FD0007047C0460000204010B59024FFF77DF810
:100FE000074B64011A5907491140074A0A431A512D
:100FF000102259681142FCD0FFF773F810BDC046AB
:1010000000002040FCFF00000100FA05F8B5902523
:101010000E4C6D010700FFF760F863590600DB43D3
:101020009B0701D1FFF7D8FF80239B00E75063594E
:10103000074A1A40074B13436351102362681A4250
:10104000FCD03000FFF74DF8F8BDC046000020404E
:10105000FCFF00000300FA05002243088B4274D312
:1010600003098B425FD3030A8B4244D3030B8B42A9
:1010700028D3030C8B420DD3FF22090212BA030CB2
:101080008B4202D31212090265D0030B8B4219D393
:1010900000E0090AC30B8B4201D3CB03C01A5241B3
:1010A000830B8B4201D38B03C01A5241430B8B42FB
:1010B00001D34B03C01A5241030B8B4201D30B03E4
:1010C000C01A5241C30A8B4201D3CB02C01A52410B
:1010D000830A8B4201D38B02C01A5241430A8B42CE
:1010E00001D34B02C01A5241030A8B4201D30B02B7
:1010F000C01A5241CDD2C3098B4201D3CB01C01AD1
:10110000524183098B4201D38B01C01A52414309DA
:101110008B4201D34B01C01A524103098B4201D3C8
:101120000B01C01A5241C3088B4201D3CB00C01A35
:10113000524183088B4201D38B00C01A52414308AD
:101140008B4201D34B00C01A5241411A00D20146D2
:10115000524110467047FFE701B5002000F006F845
:1011600002BDC0460029F7D076E770477047C046F9
:10117000002B11D1002A0FD1002900D1002802D064
:101180000021C943081C07B4024802A1401802907C
:1011900003BDC046D9FFFFFF03B4684601B50298FE
:1011A00000F030F8019B9E4602B00CBC7047C04670
:1011B000F0B5CE46474615042D0C2E0080B5070429
:1011C000140C3F0C9946030C7E435D436743634315
:1011D0007F19340CE4199C46A54203D980235B0295
:1011E0009846C4444B4643435143250C360465445A
:1011F000360C2404A4195B19591820000CBC904625
:101200009946F0BDF0B54F464646D646C0B50400F7
:1012100082B00D00914698468B422FD82CD0414683
:10122000484600F0CFF829000600200000F0CAF878
:10123000331A9C46203B9A4600D576E04B465246F0
:1012400093401F004B46624693401E00AF4228D891
:1012500025D05346A41BBD41002B00DA7BE00022C1
:1012600000230092019301235246934001930123EE
:1012700062469340009318E08242D0D900220023B6
:10128000009201930A9B002B01D01C605D600098C6
:10129000019902B01CBC90469946A246F0BDA342FB
:1012A000D7D900220023009201936346002BE9D096
:1012B000FB079846414672080A437B0866460EE0E3
:1012C000AB4201D1A2420CD8A41A9D41012024199D
:1012D0006D410021013E24184D41002E06D0AB4245
:1012E000EED9013E24196D41002EF8D100980199E4
:1012F000534600196941002B23DB2B005246D34093
:101300002A006446E2401C0053461500002B2DDBEA
:1013100026005746BE40330026006746BE403200D6
:10132000801A994100900191ACE7624620239B1AF4
:101330004A46DA406146130042468A4017001F437E
:1013400080E7624620239B1A2A0066469A402300C3
:10135000F3401343D4E76246202300219B1A002266
:10136000009101920122DA40019280E72023624637
:1013700026009B1ADE402F00B0466646B740464620
:101380003B003343C8E7C0461C2101231B0498429D
:1013900001D3000C10391B0A984201D3000A083906
:1013A0001B09984201D30009043902A2105C4018BD
:1013B0007047C04604030202010101010000000061
:1013C0000000000010B5002903D1FFF7DDFF203039
:1013D00002E0081CFFF7D8FF10BDC046030012183A
:1013E000934200D1704719700133F9E7F8B5C04650
:1013F000F8BC08BC9E467047F8B5C046F8BC08BCAF
:101400009E4670470000000001B40248844601BCBB
:10141000604700BF61020008000020400000244037
:1014200000000040000000000000234000003040A9
:101430000000314000009F400000224000001040AA
:1014400000009B402020202020132010101E208010
:1014500017007500FF03050104001C0310000000C5
:101460001FC0000000040000000000000019324B03
:10147000647D0202000000804000080B10000000A4
:101480000000FF012002001F00800004FF08101868
:10149000001000140018001C4044484C500000008C
:1014A0000810000008000000040000000410000004
:1014B00000120000042100000021000000160000BE
:1014C00040114002C41300138013A013401388136B
:1014D000A81320001C000000030000000100000011
:1014E000010000000000000005036000040000008F
:1014F0000100000000000000010000000604600080
:1015000008000000A4050008990E0010000000006B
:10151000F4FCFF7F01000000000000100000000844
:10152000800000003815001080000008F80200005C
:10153000B00300081802000000093D0000127A0004
:1015400000093D000000D007A00F000004000000CB
:10155000A90000108100001080B230B5C00020D07A
:10156000104B07221C682300BA331B885A43236A96
:10157000D31819680029FCDA3E210B4B06251960A7
:101580000A4B0B491960A3210A4BC9005D500A4957
:1015900058505858206A1218002050605A58002A93
:1015A000FCDA30BDC40500080401264008012640CD
:1015B0001E1F0000000026401C05000010B54378E7
:1015C000FF2B11D100F00CF90400032000F0E8F823
:1015D000C3685A68012311681943116011681942E0
:1015E000FCD1200000F01CF910BDF7B500900020E0
:1015F000019100F0D5F83F4D06002B681A005033DA
:10160000BC3214681B780419002B5AD000F0F8F88B
:10161000070003281BD000F0E3F8374A374B0500DA
:10162000D358002B3EDA364A0121300000F0C0F8D2
:10163000002837D10198FFF78FFF009B002B3ED089
:101640002368002BFCDB00F0C3F804002BE006202D
:1016500000F0A6F82B68BC331B68C0180368002B89
:1016600002DA284C2000FEBD002000F0C1F8264B15
:101670009842F6D00023254A19001268012000F094
:101680009FF80025A842ECD1002000F0B1F81E4AD6
:101690001F4B904203D09D42E3D00135F4E79D42B9
:1016A000B9D1DEE7174C032F05D10121002000F04E
:1016B000AFF80028F9D1280000F0B2F8D2E7154CB5
:1016C000F1E700F08DF80E4A05000121300000F02E
:1016D0006FF8002809D1009B002B08D02368002B4D
:1016E000FCDB00F075F80400E5E7064CE3E7094C85
:1016F000E1E7C046C4050008000026401C050000C4
:10170000CC0300080500520001018800DC0300083A
:10171000F049020001005000184BF7B51B68184A49
:101720005C68042311690B431361012824D030BF86
:101730002300FC331B69002B1DD1A320114B124940
:10174000124AC0000F681E5815680195104D0D60B3
:1017500006251D503E2010600E483E351D501D5878
:10176000002DFCDA0C48FC3420610F60A321C90075
:101770005E50019B1360F7BD20BFD9E7C405000888
:1017800000ED00E00000264008012640040126404C
:101790001E1F00001C050000AAAAAAAA0000000043
:1017A00001B40248844601BC604700BF75010010C7
:1017B00001B40248844601BC604700BF9D0200108E
:1017C00001B40248844601BC604700BFAD0300106D
:1017D00001B40248844601BC604700BF39020010D2
:1017E00001B40248844601BC604700BFDB00001022
:1017F00001B40248844601BC604700BFDD0500100B
:1018000001B40248844601BC604700BFC50F001008
:1018100001B40248844601BC604700BF690500105E
:1018200001B40248844601BC604700BFE3000010D9
:1018300000000000000000000000000000000000A8
:081840000000000000000000A0
:1020000000F80108412300100D000000B523001066
:10201000B5230010B5230010B52300100000000008
:10202000000000000000000000000000B1230010CC
:10203000B123001000000000B1230010B1230010F4
:10204000B123001000000000B1230010B1230010E4
:1020500000000000B1230010B1230010B1230010D4
:10206000B1230010B1230010B1230010B1230010E0
:10207000B123001000000000B1230010B1230010B4
:10208000B1230010B1230010B1230010B1230010C0
:10209000B1230010B1230010B1230010B1230010B0
:1020A000B1230010B1230010B1230010B1230010A0
:1020B000B1230010B1230010B1230010B123001090
:1020C000B1230010B1230010B1230010B123001080
:1020D000B1230010B1230010B1230010B123001070
:1020E000B1230010B123001000000000B123001044
:1020F000B1230010B1230010B1230010B123001050
:1021000000000000B1230010B1230010B123001023
:10211000B1230010B12300100000000000000000F7
:10212000B1230010B1230010B1230010B12300101F
:10213000B1230010B1230010B1230010B12300100F
:10214000B1230010B1230010B1230010B1230010FF
:10215000B1230010B1230010B1230010B1230010EF
:10216000B1230010B1230010B1230010B1230010DF
:10217000B1230010B1230010B1230010B1230010CF
:10218000B1230010B1230010B1230010B1230010BF
:10219000B1230010B1230010B1230010B1230010AF
:1021A000B1230010B1230010B1230010B12300109F
:1021B000B1230010B1230010B1230010B12300108F
:1021C000B1230010B1230010B1230010B12300107F
:1021D000B1230010B1230010B1230010B12300106F
:1021E000B1230010B1230010B1230010B12300105F
:1021F000B1230010B1230010B1230010B12300104F
:10220000B1230010B1230010B1230010B12300103E
:10221000B1230010B1230010B1230010B12300102E
:10222000B1230010B1230010B1230010B12300101E
:10223000B1230010B1230010B123001000000000F2
:10224000000000000000000000000000B1230010AA
:10225000B1230010B1230010B1230010B1230010EE
:10226000B1230010B1230010B123001000000000C2
:10227000000000000000000000000000000000005E
:102280000000000000000000B1230010000000006A
:10229000000000000000000000000000000000003E
:1022A000000000000000000000000000000000002E
:1022B000000000000000000000000000000000001E
:1022C000B1230010B1230010B1230010B12300107E
:1022D00000000000000000000000000000000000FE
:1022E000B1230010B1230010B1230010B12300105E
:1022F000B1230010B1230010B123001010B5054C1C
:10230000237833B9044B13B10448AFF300800123A1
:10231000237010BD4C2A0008000000004CF600108D
:1023200008B5034B1BB103490348AFF3008008BD58
:1023300000000000502A00084CF60010704770475B
:10234000FFF7FCFF72B6144C144DAC4209DA216859
:102350006268A368043BA2BFC858D050FAE70C34A7
:10236000F3E70F490F4A00209142BCBF41F8040B2C
:10237000FAE70D480D490860BFF34F8F01F0D4FB19
:1023800001F0B8FBFFF7DBFF07F0B4FE01F008FC3B
:1023900007F09CFEFEE7000058F6001070F60010F3
:1023A0004C2A0008C82E00080020000808ED00E0B4
:1023B000FEE7FEE700B504207146084202D0EFF3C5
:1023C000098002E0EFF30880043006F089FCFEE7A4
:1023D00000B583B04FF4E1330093FF231A46282160
:1023E000292007F079FC00B101BE03B05DF804FBC1
:1023F000F0B59C46394C0126C4F884600223C4F829
:102400008430374F2A253D600425C4F88450C4F831
:102410008850C4F88830C4F888604FEA102EC0B2E3
:10242000C4F88460C7F800E0C4F88450C4F8885049
:102430003860C4F88450C4F88850C4F88860080A2A
:10244000C9B2C4F884603860C4F88450C4F88850B5
:102450003960C4F88450C4F88850C4F88860C4F85F
:102460008460C4F884302B213960C4F88450C4F8E7
:102470008850C4F88830C4F88860110AD2B2C4F811
:1024800084603960C4F88450C4F888503A60C4F855
:102490008450C4F88850C4F888604FEA1C215FFA61
:1024A0008CF2C4F884603960C4F88450C4F8885051
:1024B0003A60C4F88450C4F88850C4F88860C4F8FE
:1024C0008460C4F884302C223A60C4F88450C4F884
:1024D0008850C4F88830C4F88860F0BD00003140EE
:1024E0000001314070B50446EF23002240F23F1155
:1024F0001046FFF77DFF4FF0000C1CE0210AE0B210
:10250000104B0125C3F884500F4E31600421C3F8ED
:102510008410C3F888103060C3F88410C3F88810A2
:10252000C3F888502A4492B2B2F5A07FE6D30CF1EA
:10253000010C1FFA8CFCBCF1EF0F01D80022F3E76D
:1025400070BD00BF00003140000131402DE9F84F5F
:1025500086468C4615469946DDF82880BDF82C70D5
:10256000BDF830600024A0EB520080B20EEB5201A7
:1025700089B212F0010F01D1013989B2ACEB5902D5
:1025800092B20CEB59039BB219F0010F01D1013B40
:102590009BB2FFF72DFF4FEAD50C15F0070F01D0C6
:1025A0000CF1010C002249E014F0800F2AD1330A0B
:1025B0005FFA86FE24484FF0010AC0F884A0DFF8D5
:1025C0008CB0CBF800300423C0F88430C0F88830D9
:1025D000CBF800E0C0F88430C0F88830C0F888A09C
:1025E0006400E4B2013189B2A94225D211F0070F8B
:1025F000DAD112FB0CF3C80810FA83F39BB218F877
:102600000340D1E7380A5FFA87FE0F4B4FF0010A0B
:10261000C3F884A0DFF834B0CBF800000420C3F87E
:102620008400C3F88800CBF800E0C3F88400C3F846
:102630008800C3F888A0D3E7013292B24A4501D29C
:102640000021D1E7BDE8F88F0000314000013140A2
:102650002DE9F843EA4C0125C4F884504FF00208F4
:10266000C4F88480E74F3D600426C4F88460C4F851
:102670008860C4F88880C4F88850322006F00CFBCB
:10268000C4F88450C4F884804FF01109C7F8009052
:10269000C4F88460C4F88860C4F88880C4F888509E
:1026A000782006F0F9FAC4F88450C4F88480CF2367
:1026B0003B60C4F88460C4F88860C4F88880C4F8BB
:1026C0008850C4F8845000233B60C4F88460C4F888
:1026D0008860C4F88850C4F8845083223A60C4F8F3
:1026E0008460C4F88860C4F88850C4F884503022EC
:1026F0003A60C4F88460C4F88860C4F88850C4F8AC
:102700008450C4F88480ED223A60C4F88460C4F830
:102710008860C4F88880C4F88850C4F88450642263
:102720003A60C4F88460C4F88860C4F88850C4F87B
:10273000845003223A60C4F88460C4F88860C4F806
:102740008850C4F8845012223A60C4F88460C4F8F7
:102750008860C4F88850C4F8845081223A60C4F874
:102760008460C4F88860C4F88850C4F88450C4F801
:102770008480E8223A60C4F88460C4F88860C4F8B1
:102780008880C4F88850C4F8845085223A60C4F820
:102790008460C4F88860C4F88850C4F884503D60F0
:1027A000C4F88460C4F88860C4F88850C4F88450C1
:1027B00079223A60C4F88460C4F88860C4F888500C
:1027C000C4F88450C4F88480CB223A60C4F8846092
:1027D000C4F88860C4F88880C4F88850C4F884506D
:1027E00039223A60C4F88460C4F88860C4F888501C
:1027F000C4F884502C223A60C4F88460C4F888601D
:10280000C4F88850C4F884503B60C4F88460C4F8AD
:102810008860C4F88850C4F8845034223A60C4F800
:102820008460C4F88860C4F88850C4F88450C7F83D
:102830000080C4F88460C4F88860C4F88850C4F884
:102840008450C4F88480F7213960C4F88460C4F8E7
:102850008860C4F88880C4F88850C4F88450202167
:102860003960C4F88460C4F88860C4F88850C4F83B
:102870008450C4F88480EA213960C4F88460C4F8C4
:102880008860C4F88880C4F88850C4F884503B60DD
:10289000C4F88460C4F88860C4F88850C4F88450D0
:1028A0003B60C4F88460C4F88860C4F88850C4F8F9
:1028B0008450C4F88480C1213960C4F88460C4F8AD
:1028C0008860C4F88880C4F88850C4F88450C7F879
:1028D0000090C4F88460C4F88860C4F88850C4F8D4
:1028E0008450C4F88480C5213960C4F88460C4F879
:1028F0008860C4F88880C4F88850C4F884503A606E
:10290000C4F88460C4F88860C4F88850C4F884505F
:102910003D223A60C4F88460C4F88860C4F88850E6
:10292000C4F88450C4F88480C7223A60C4F8846034
:10293000C4F88860C4F88880C4F88850C4F884500B
:10294000C0223A60C4F88460C4F88860C4F8885033
:10295000C4F88450C4F8848036223A60C4F8846095
:10296000C4F88860C4F88880C4F88850C4F88450DB
:1029700068223A60C4F88460C4F88860C4F888505B
:10298000C4F88450C4F884803A223A60C4F8846061
:10299000C4F88860C4F88880C4F88850C4F88450AB
:1029A00055223A60C4F88460C4F88860C4F888503E
:1029B000C4F88450C4F88480B1223A60C4F88460BA
:1029C000C4F88860C4F88880C4F88850C4F884507B
:1029D0003B60C4F88460C4F88860C4F88850C4F8C8
:1029E00084501D223A60C4F88460C4F88860C4F83A
:1029F0008850C4F88450C4F88480B62104E000BF35
:102A000000003140000131403960C4F88460C4F8EE
:102A10008860C4F88880C4F88850C4F884500A22BA
:102A20003A60C4F88460C4F88860C4F88850C4F878
:102A30008450A2203860C4F88460C4F88860C4F868
:102A40008850C4F8845027203860C4F88460C4F8E3
:102A50008860C4F88850C4F884503B60C4F884602F
:102A6000C4F88860C4F88850C4F88450C4F88480DE
:102A7000B7233B60C4F88460C4F88860C4F88880D9
:102A8000C4F88850C4F8845007233B60C4F88460BD
:102A9000C4F88860C4F88850C4F88450C4F88480AE
:102AA0003960C4F88460C4F88860C4F88880C4F8C9
:102AB0008850C4F8845008233B60C4F88460C4F88C
:102AC0008860C4F88850C4F88450C4F884802623F1
:102AD0003B60C4F88460C4F88860C4F88880C4F897
:102AE0008850C4F884503D60C4F88460C4F888609D
:102AF000C4F88850C4F88450C4F88480E0233B6054
:102B0000C4F88460C4F88860C4F88880C4F8885029
:102B1000C4F884501F233B60C4F88460C4F8886004
:102B2000C4F88850C4F884501A233B60C4F8846009
:102B3000C4F88860C4F88850C4F8845018233B60F7
:102B4000C4F88460C4F88860C4F88850C4F884501D
:102B50003A60C4F88460C4F88860C4F88850C4F847
:102B600084500F233B60C4F88460C4F88860C4F8C4
:102B70008850C4F8845006233B60C4F88460C4F8CD
:102B80008860C4F88850C4F8845045233B60C4F87A
:102B90008460C4F88860C4F88850C4F884508723DF
:102BA0003B60C4F88460C4F88860C4F88850C4F8F6
:102BB00084504FF03209C7F80090C4F88460C4F81C
:102BC0008860C4F88850C4F884503A60C4F88460BF
:102BD000C4F88860C4F88850C4F8845007233B6068
:102BE000C4F88460C4F88860C4F88850C4F884507D
:102BF000C7F80080C4F88460C4F88860C4F88850BE
:102C0000C4F884503B60C4F88460C4F88860C4F899
:102C10008850C4F8845005233B60C4F88460C4F82D
:102C20008860C4F88850C4F8845000223A60C4F820
:102C30008460C4F88860C4F88850C4F88450C4F82C
:102C40008480E1213960C4F88460C4F88860C4F8E5
:102C50008880C4F88850C4F884503A60C4F884600E
:102C6000C4F88860C4F88850C4F8845025223A60BB
:102C7000C4F88460C4F88860C4F88850C4F88450EC
:102C80003860C4F88460C4F88860C4F88850C4F818
:102C900084503B60C4F88460C4F88860C4F88850ED
:102CA000C4F8845010223A60C4F88460C4F8886084
:102CB000C4F88850C4F8845009223A60C4F884608B
:102CC000C4F88860C4F88850C4F884503A223A6046
:102CD000C4F88460C4F88860C4F88850C4F884508C
:102CE00078203860C4F88460C4F88860C4F88850DC
:102CF000C4F884504D213960C4F88460C4F88860F9
:102D0000C4F88850C4F884503B60C4F88460C4F8A8
:102D10008860C4F88850C4F8845018233B60C4F815
:102D20008460C4F88860C4F88850C4F884500D23C7
:102D30003B60C4F88460C4F88860C4F88850C4F864
:102D4000845038233B60C4F88460C4F88860C4F8B9
:102D50008850C4F884503A60C4F88460C4F888602D
:102D6000C4F88850C4F884501F233B60C4F88460C2
:102D7000C4F88860C4F88850C4F88450C4F88480CB
:102D800011233B60C4F88460C4F88860C4F888806C
:102D9000C4F8885005F080FFC4F88450C4F88480DB
:102DA00029233B60C4F88460C4F88860C4F8888034
:102DB000C4F88850484605F06FFFBDE8F88300BFAF
:102DC00008B5012306221946082001F0BDF900B11B
:102DD00008BD012306221946092001F0B5F9002893
:102DE000F6D10123062219460A2001F0ADF9002888
:102DF000EED1012306221946102001F0A5F9002882
:102E0000E6D1012306221946112001F09DF9002880
:102E1000DED1012306221946122001F095F900287F
:102E2000D6D1012306221946132001F08DF900287E
:102E3000CED1012306221946142001F085F900287D
:102E4000C6D1012306221946152001F07DF900287C
:102E5000BED1012306221946162001F075F900287B
:102E6000B6D1012306221946172001F06DF9AFE70C
:102E700008B5FFF7A5FF00B108BDFFF7E9FB00208B
:102E8000FFF730FBF8E708B50023062201214820B0
:102E900001F05AF900B101BE0023062201214020B1
:102EA00001F052F900B101BE0023062201214A209F
:102EB00001F04AF900B101BE08BD08B500231A4669
:102EC0001946332001F040F900B101BE00231A4633
:102ED0001946342001F038F900B101BE00231A462A
:102EE0001946352001F030F900B101BE08BD0000DF
:102EF00000B585B000230393029301930122009251
:102F0000FF223221034801F0A7FE00B101BE05B047
:102F10005DF804FB682A000808B540F6C4120649AB
:102F2000064801F05BFF00B101BE044801F09EFFBE
:102F300000B101BE08BD00BF00004842682A000879
:102F400008B5034801F0B2FF00B101BE08BD00BFE3
:102F5000682A000808B5FFF7B0FFFFF794FFFFF7F6
:102F600087FFFFF7C5FF024800F050FC08BD00BF17
:102F7000809698002DE9F0414FF4FC62002108464C
:102F800000F0BCFA40F21D520021084600F018FB88
:102F900000F082FA4FF000084546474601264446B5
:102FA0006FE0AC4B00221A7001246AE026B10026C3
:102FB000A84B00221A7075E00126F9E70022A64B03
:102FC0001978A64B187800F099FA40F21D52A44BDC
:102FD0001978A44B187800F0F3FA00F077FA78E04B
:102FE0000233A14A82FB0312A2EBE37202EB42021C
:102FF0009A1A9A4B1A7081E03B339C4A82FB031267
:10300000D118DA17C2EB6112C2EB021291005A1A00
:10301000914B1A70A1E08F4B1B78DBB2022B00F0B2
:10302000B9808C4B1B78DBB2012B00F0B880904B41
:103030001B78DBB2032B00F0BA80874B93F900209A
:10304000874B93F900309A4200F0D580894B1B786A
:10305000DBB2022B00F0E7804FF4FC627E4B197864
:103060007E4B187800F04AFA40F21D527C4B1978DA
:103070007C4B187800F0A4FA002F00F0E88000F0F4
:103080000BFA012CC7D0022C00F0FA80002CF8D1EA
:10309000704B1B78DBB2022B83D06E4B1B78DBB2FC
:1030A000012B83D0744B1B78DBB2042B86D04FF4FA
:1030B000FC62694B1978694B187800F01FFA40F2EE
:1030C0001D52674B1978674B187800F079FA00F0B9
:1030D000FDF9B6B1694B1B789BB1604B93F9003099
:1030E000002B7FF77DAF013B5F4A82FB0312A2EB0F
:1030F000E37202EB42029A1A584B1A705F4B00229D
:103100001A7096B15B4B1B787BB1544991F9002042
:103110000132554B83FB0203A3EBE27303EB430342
:10312000D31A0B70534B00221A70CEB9534B1B7835
:10313000B3B1494B93F90030002B7FF75DAF013BF2
:103140004A4A82FB0312D118DA17C2EB6112C2EBB2
:10315000021291005A1A404B1A70484B00221A7002
:10316000002E8ED1434B1B78002B8AD03A4890F921
:10317000002001323D4B83FB02139918D317C3EB98
:103180006113C3EB03139900531A0370394B0022E8
:103190001A7076E72F4A002111701C4671E727B19B
:1031A00000272C4B00221A7041E70127F9E72A4833
:1031B00090F9002001322D4B83FB02139918D3178D
:1031C000C3EB6113C3EB03139900531A5BB2037093
:1031D0006BB9224991F900200132A3F1AA3383FB94
:1031E0000203A3EBE27303EB4303D31A0B70204BF0
:1031F00000221A7021E7194B93F90020194B93F91B
:1032000000309A427FF422AF002F3FF41FAFFFF748
:1032100083FE4FF47842104B1978104B187800F069
:103220006DF9B84612E7002F3FF416AFB8F1000F62
:103230003FF412AFFFF784FE4FF4FC62064B19789F
:10324000064B187800F05AF94FF0000804E700F038
:103250003DF916E7A42A0008A82A0008A72A0008B2
:10326000A62A0008A52A0008565555558988888839
:10327000A12A0008A22A0008A02A0008A32A000800
:103280007A4B1B78DBB2022B00F08A80774B1B78DD
:10329000DBB2012B00F08980754B1B78DBB2032B6E
:1032A00000F08B80734B1B78DBB2042B00F0A980FD
:1032B0004FF4FC62704B1978704B187800F01EF9CF
:1032C00040F21D526E4B19786E4B187800F078F969
:1032D000002F00F0AC8000F0DFF8B5B16A4B1B782E
:1032E0009BB1684B93F90030002B40F3A380013B66
:1032F000664A82FB0312A2EBE37202EB42029A1AC5
:10330000604B1A70604B00221A7095B1604B1B78AD
:103310007BB15C4991F9002001325C4B83FB0203D5
:10332000A3EBE27303EB4303D31A0B70584B002259
:103330001A70CDB9544B1B78B3B1514B93F900308F
:10334000002B40F38380013B524A82FB0312D118C9
:10335000DA17C2EB6112C2EB021291005A1A484B03
:103360001A70494B00221A70002D7FF48AAE484B28
:103370001B78002B3FF485AE414890F900200132C4
:10338000444B83FB02139918D317C3EB6113C3EBB0
:1033900003139900531A03703D4B00221A7070E614
:1033A000324B00221A7001246BE625B901252F4B00
:1033B00000221A7070E70025F9E72F4890F90020E5
:1033C0000132344B83FB02139918D317C3EB6113FB
:1033D000C3EB03139900531A5BB203706BB927490F
:1033E00091F900200132A3F1AA3383FB0203A3EB7E
:1033F000E27303EB4303D31A0B701D4B00221A70C8
:1034000050E74FF4FC621C4B19781C4B187800F005
:1034100075F800221A4B19781A4B187800F0D0F87A
:1034200017B100F039F858E700F050F855E700F010
:103430004DF852E70233154A82FB0312A2EBE37206
:1034400002EB42029A1A0F4B1A705BE73B33114AA8
:1034500082FB0312D118DA17C2EB6112C2EB02121F
:1034600091005A1A064B1A707BE700BFA42A000885
:10347000A12A0008A02A0008A82A0008A72A0008F4
:10348000A62A0008A52A0008A32A00085655555563
:10349000A22A00088988888800B585B00023029395
:1034A00040F21D530193064B0093064B1B88064ABE
:1034B000128832214B20FFF749F805B05DF804FB74
:1034C00044E4001046E5001048E5001000B585B062
:1034D000002302930193064B0093064B1B88064A78
:1034E000128832214B20FFF731F805B05DF804FB5C
:1034F00044E4001046E5001048E500102DE9F043D3
:1035000085B014462B4BA3FB002C4FEADC029446FB
:1035100002EB8202A0EB4200C0B2A3FB0123DA0857
:10352000154602EB8202A1EB4201C9B2224A32F8EF
:103530001CC0224B9C4432F810701F44968A1E44D3
:1035400032F81580984432F811909944002502957C
:103550000194CDF800C02F23252278215020FEF7BA
:10356000F5FF0295019400972F2325227821084624
:10357000FEF7ECFF0295019400962F232522782177
:10358000A020FEF7E3FF02950194CDF800802F23E1
:1035900025227821C820FEF7D9FF02950194CDF8A5
:1035A00000902F2325227821F020FEF7CFFF05B0D1
:1035B000BDE8F083CDCCCCCC2CE4001010DA0010A8
:1035C0002DE9F04385B014462C4BA3FB002C4FEAA9
:1035D000DC02944602EB8202A0EB4200C0B2A3FBE5
:1035E0000123DA08154602EB8202A1EB4201C9B2BF
:1035F000234A32F81CC0234B9C4432F810701F44FD
:10360000968A1E4432F81580984432F811909944F5
:10361000002502950194CDF800C017231222322113
:10362000C820FEF793FF02950194009717231222FA
:103630003221DC20FEF78AFF0295019400961723C1
:1036400012223221F020FEF781FF02950194CDF87D
:1036500000801723122232214FF48270FEF776FF8A
:1036600002950194CDF800901723122232214FF4D5
:103670008C70FEF76BFF05B0BDE8F083CDCCCCCCF1
:10368000F8D9001000D7001030B4544B1C695448CE
:1036900003780133534981FB032505F0FC0202EB5B
:1036A000A50255005B1BDBB203704F4D2A78013237
:1036B00081FB020101F0FC0000EBA1014800121A9D
:1036C000D2B22A70042A17D8484A04211170BBB913
:1036D000474B03221A7014F0080F15D1454A13788E
:1036E0000133DBB21370132B1AD9434B02221A7029
:1036F000404B00221A7013E03C4A00211170E6E7AB
:103700003B4B00221A70E6E73A4B1A78531EDBB2A5
:10371000122B16D8384B01221A70364B00221A7021
:1037200014F0100F18D1354A13780133DBB213703F
:10373000132B1DD9324B02221A70304B00221A7003
:1037400016E0132A03D92C4B02221A70E5E7002A4F
:10375000E3D1294B1A70E0E7284B1A78531EDBB2ED
:10376000122B16D8264B01221A70244B00221A70F5
:1037700014F0200F18D1234A13780133DBB21370F1
:10378000132B1DD9204B02221A701E4B00221A70D7
:1037900016E0132A03D91A4B02221A70E5E7002A11
:1037A000E3D1174B1A70E0E7164B1A78531EDBB2C1
:1037B000122B07D8144B01221A70124B00221A70D8
:1037C00030BC7047132A03D90F4B02221A70F4E75A
:1037D000002AF2D10C4B1A70EFE700BF0003314012
:1037E000AA2A000867666666A92A0008A02A0008B7
:1037F000A12A0008AB2A0008A22A0008AC2A000867
:10380000A32A0008AD2A0008A42A000830B583B016
:10381000154B58600022FF21144802F013FA00B142
:1038200001BE1149114802F067FA00B101BE10490A
:103830000E4802F06BF900B101BE0C4C04F1080512
:1038400000220C49284601F065FF01220092032363
:103850002946204601F09EFF204602F01DFA00B1E5
:1038600001BE03B030BD00BFFC220008B02A000832
:1038700000E1F5058936001008B500F039F800F0D0
:1038800003F800F015F808BD08B50021084604F05B
:1038900099FAFF220021084604F008F900210846A1
:1038A00004F04EFA014800F055FD08BD4CE500104B
:1038B00010B5094C094A0621204603F0B3F908481F
:1038C00000F048FD074A0721204603F0ABF90648FF
:1038D00000F040FD10BD00BF0003314088E500103E
:1038E000BCE5001050E5001084E50010FEE7000084
:1038F00010B59621002005F045FA012005F052FD93
:1039000005F0F8FC05F0D2FD05F0BCFD00210846ED
:1039100004F0CEFB002004F039FB012004F01EFB74
:10392000002004F0CBFA4A4B1B6893F83F4003E0B9
:10393000204604F033FE013C002CF9D10021012087
:1039400004F03CFC002004F0A1FB002869D004F046
:10395000E9FC0021084604F031FC0021084604F08F
:1039600075FB002004F012FB002004F0F7FA0020A1
:1039700004F0A4FA0021012004F020FC00210846F4
:1039800004F01CFC0021022004F018FC002103209C
:1039900004F014FC0021042004F010FC2D4804F075
:1039A000DBFC002848D12C4804F086FD002846D1D5
:1039B0000021084604F04AFB0021084604F078FB89
:1039C0002649012004F010FE00283BD142F210717C
:1039D000012004F097FEC0BB04F0B6FA002004F00A
:1039E00087FA002004F09AFA04F0A4FA6421002077
:1039F00005F0C8F900F044F804F098FB002004F04A
:103A0000A9FB174800F0A6FC164800F0A3FC1648D6
:103A100000F0A0FC154800F09DFC154800F09AFC51
:103A200010BD04F0F9FB40F2111398428FD101212F
:103A3000002004F00BFB8AE70420FFF757FF042067
:103A4000FFF754FF0320FFF751FF0320FFF74EFF5E
:103A5000B42D0008C0E50010400D0300E8E500109B
:103A6000D4E50010D8E50010DCE50010E0E500101A
:103A7000E4E5001008B5012003F004FB08BD704721
:103A800010B5002005F048F800B910BD0446114BF0
:103A9000186004F071FA0130B4FBF0F00E4B1860BE
:103AA00004F082FA0130B4FBF0F40C4B1C60013CD2
:103AB0000B4BA3FB04239B0C01330A4A13700A4BE4
:103AC000A3FB04239B090133084A1360DB03084A64
:103AD0001360DAE710230008142300080C23000801
:103AE00083DE1B4320230008D34D62101C230008F3
:103AF0001823000808B5094802F0E2FEFFF7BFFFEF
:103B0000FFF7BEFF00221146032003F011FB04481B
:103B100003F072F9034803F0C7F908BD98F10010EB
:103B2000E82A0008F0E50010EFF3108172B6074AAA
:103B3000D2F8883043F47003C2F88830BFF34F8F57
:103B4000BFF36F8F81F31088704700BF00ED00E076
:103B500008B5044805F098FA08B1002008BD0248ED
:103B6000FCE700BF242300080000020610B500F0A7
:103B7000EFFB044628B144B1FFF77EFE5CB120465E
:103B800010BD01F03FFC0446F5E740F6E44100209B
:103B900001F080FCF0E7FFF7DBFF0446EFE70000F1
:103BA00010B5FFF7E3FF00B101BEFEF711FC62B6EE
:103BB0000E4806F045FF0E4C204606F041FF0D482A
:103BC00006F03EFF0C490D4806F03AFF0C490D483F
:103BD00006F036FF0C490D4806F032FF204606F08D
:103BE0002FFFFFF7B7F9FFF7C5F9FEE724E600104E
:103BF00030E6001068E600107CE6001088E6001051
:103C000098E60010A4E6001040230008B4E6001077
:103C10000230800803D001300238FCD100BF00BF61
:103C20007047EFF3108072B6704780F310887047CA
:103C300001BE0148704700BF02020204024B0B6044
:103C40000723136000207047A423000808B54078BC
:103C500004F062FF08BD000038B5054614468A42EC
:103C600094BF00230123834209D080F001038A42DC
:103C70002CBF002101218B4201D04DB138BD05F090
:103C800033FB0549A1FB0431890C05F07BF8F4E70F
:103C9000FFF7F6FEF2E700BF83DE1B432DE9F0419C
:103CA00004460A78A2F10D03DBB2012B04D90F2AD6
:103CB0002FD14E78013600E04E78002004F018FA3B
:103CC0000746002004F0E2F904F006FF20FA07F8A6
:103CD000304604F001FF20FA07F763786BB1F1B2C8
:103CE000607804F0B3F9054663789BB958B93A4651
:103CF00041460020FFF7B0FF0CE03A464146012064
:103D0000FFF7AAFFEBE7424639460020FFF7A4FF82
:103D100000E0024D2846BDE8F08100BF0102020428
:103D2000F8B505460139072935D8DFE801F0042642
:103D3000340634343424002600E00226002004F047
:103D4000D7F90746002004F0A1F904F0C5FE20FAD7
:103D500007F720FA06F46B788BB13146687804F0E7
:103D6000A7F906466B78BBB978B9224639460020D8
:103D7000FFF772FF10E00326E0E70126DEE72246A8
:103D800039460120FFF768FFE7E73A462146002061
:103D9000FFF762FF00E0014E3046F8BD000202046A
:103DA00008B519B1407804F00BF908BD407804F06B
:103DB00031F9FAE708B5407804F01AF908BD0000B7
:103DC0002DE9F84304460E461546DDF82080DDF85F
:103DD000249001279F404FEA520C1CEB00004FF04B
:103DE000000341F1000105F0F1FFC9F80000B842FD
:103DF00001D9C9F80070B8F1000F19D0D9F8002026
:103E000000232046314605F0E1FF0246294698F896
:103E1000000002F0B5FC0028B8BF4042B8F1000F26
:103E200008D0D8F80430834206D30020BDE8F883D8
:103E30000020F3E70020F9E70048F7E7000202045A
:103E400008B590F800C01CF0020F06D14A1E417858
:103E50000CF0030003F02AFE08BD00234A1E41783F
:103E60000CF0030003F086FEF6E770B584B004465C
:103E70000D46164604F060FE0146237813F0020F4B
:103E80000ED013F0010F24D01D2303AA0192009637
:103E90002A464801C90EFFF793FFE0B104B070BD98
:103EA00013F0010F13D0102303AA019200962A46A3
:103EB00008460021FFF784FF0028EFD12078039AFD
:103EC000013A617800F0030003F0F0FDE6E7082313
:103ED000EAE71523D9E7039B5A09207803F01F036B
:103EE000013A617800F0030003F044FED6E708B51C
:103EF0000378417803F0030004F037FE08BD08B5ED
:103F000031B10378417803F0030003F019FF08BDD5
:103F10000378417803F0030003F054FFF7E708B596
:103F20000378417803F0030003F07EFF08BD000032
:103F30000048704790EF00102DE9F04182B007462D
:103F40000D469046084602F04DFCC6B2002401E042
:103F50000134E4B2B44213D205238DF804308DF855
:103F600005508DF8064001A800F0F4F9034600283A
:103F7000EED13D707C700122BA70C7F8048000E079
:103F8000024B184602B0BDE8F08100BF020E0204E9
:103F900030B583B00C46054678B184B105238DF861
:103FA000043023788DF8053063788DF8063001A849
:103FB00000F0D0F928B103B030BD01BEEDE701BE7D
:103FC000ECE7226863682A606B600123AB70F2E75C
:103FD00008B5034648B11A78122A08D0032A0AD92C
:103FE0005A6812681846904708BD01BEF3E71846A4
:103FF000FFF7E0FEF8E71846FFF791FFF4E710B58A
:10400000034648B11878122808D003280AD95868FE
:1040100044681846A04710BD01BEF3E71846FFF7F5
:10402000BFFEF8E71846FFF76AFFF4E710B504464D
:1040300068B12046FFF7CCFF98B12378122B08D047
:10404000032B0AD963689B68204698470AE001BEA3
:10405000EFE72046FFF7FAFD04E02046FFF747FFB1
:1040600000E0002010BD10B5034648B118781228B2
:1040700008D003280AD95868C4681846A04710BD5C
:1040800001BEF3E71846FFF7D3FDF8E71846FFF740
:10409000ECFEF4E708B5034648B11A78122A08D0B6
:1040A000032A0AD95A6812691846904708BD01BE0A
:1040B000F3E71846FFF734FEF8E71846FFF7C0FEAF
:1040C000F4E710B582B0044690B1A37803B901BEFD
:1040D00005238DF8043023788DF8053063788DF84A
:1040E000063001A800F07AF90023A37002B010BDD9
:1040F00001BEEAE708281CD8DFE800F00923051E06
:104100000B0D0F1113000A20012917D0704708204A
:1041100070470C20F8E70D20F6E70E20F4E70F209B
:10412000F2E74B1EDBB2012B01D90820ECE70E2091
:10413000EAE701BE0820E7E70B20E5E700F007000B
:1041400070470020E2E700002DE9F04387B00F46FA
:1041500016461D462F4B1B78FBB94FF0000C07E0AD
:104160002D4C002344F82C300CF1010C5FFA8CFC30
:10417000BCF10E0FF4D94FF0000C08E0264B03EB16
:104180004C0300229A870CF1010C5FFA8CFCBCF105
:10419000050FF3D91F4B01221A700B238DF808303D
:1041A000C4088DF8094000F007088DF80A80029BCA
:1041B000ADF814301B0C8DF81630059BADF810309F
:1041C0001B0C8DF81230049BADF80C301B0C8DF8D5
:1041D0000E3003A800F0BEF8814618B1484607B07B
:1041E000BDE8F08339463046FFF784FF02460E2CC7
:1041F0000BD80A4B1B68986900EBC410002300938E
:104200002B46414602F02AFCE8E7044B1B689869FC
:10421000F4E700BF702C000870290008B42D0008D6
:1042200070B504280DD00D46114602463C4C34F8BA
:1042300010E0441C1D2C07D8E4B2394E36F8144067
:1042400004E00D250520F0E740F205144FF0010CC5
:104250000CFA02FC334A0CEA02023AB9AE44A3F863
:1042600000E01B88A34258D2002070BDC21E182A4D
:1042700032D8DFE802F00D313431310F25312931E8
:10428000313131312B312D3131313131312F270065
:10429000254A00E0254A1C80002AE2D0033818286D
:1042A00036D8DFE800F01E353835351E2F3531356C
:1042B000353535351E351E353535353535331E002A
:1042C0001B4AE8E71B4AE6E71B4AE4E71B4AE2E72A
:1042D0001B4AE0E71B4ADEE701BE0022DBE71A4A81
:1042E000D9E70126B542BCD232F81500704411FA64
:1042F00080F11980691CB142B3DA32F8114074447C
:10430000A4B2AEE70226EDE71026EBE70226E9E7C6
:1043100001BE0026E6E71A26E4E70C48A5E700BF41
:1043200040F00010280B0A0CD0EF001008F000102D
:104330000CF000103CF0001010F0001030F00010F5
:1043400034F0001038F00010D4EF0010000E02041A
:1043500000207047F0B583B004460027FFF761FCEA
:1043600006460DF10603A27861782078FFF758FF22
:10437000054668B9BDF80630C3F3C70203F007036A
:104380001449895C012202FA03F3194218BF174647
:1043900005B9EFB92DB13046FFF747FC284603B009
:1043A000F0BD0DF10603A27861782078FFF738FFA1
:1043B00005460028EFD1BDF80630C3F3C70103F06E
:1043C0000703044801229A40435C13434354E2E745
:1043D000014DE0E7742C0008010E020430B583B0F3
:1043E0000446FFF71EFC05460DF10603A27861782E
:1043F0002078FFF715FF024660B9BDF80630C3F319
:10440000C70003F00703074C01219940235C23EA0E
:104410000103235402B101BE2846FFF706FC03B096
:1044200030BD00BF742C00082DE9F04F85B08046E8
:104430000F46924601935D4B33F81020431C1D2B11
:1044400012D8DBB2594931F81390012303FA08F36B
:10445000DFF884B103EA0B0BA9EB02091FFA89F913
:1044600000252E462C4617E040F20519EDE7012302
:10447000BAF1000F08D031462046019B98479AF8C0
:10448000001000F0C0F90346BBB9BBF1000F26D104
:104490000134E4B20135ADB24D4580F08180002F8A
:1044A000E5D0314620460E9B98470146388800F0FB
:1044B000AAF903460028E7D0DAE78DF80C808DF8DA
:1044C0000D408DF80E6003A8FFF744FF0346002857
:1044D000DBD10F9A82F800805470967061E0A8F1E9
:1044E0000303182B30D8DFE803F00D2F322F2F0FE6
:1044F000232F272F2F2F2F2F292F2B2F2F2F2F2FEA
:104500002F2D25002A4A00E02A4AA8F10303182B80
:1045100032D8DFE803F01E313431311E2B312D311A
:10452000313131311E311E3131313131312F1E00E7
:10453000214AEAE7214AE8E7214AE6E7214AE4E797
:10454000214AE2E7214AE0E701BE0022DDE7204AF6
:10455000DBE70121631C08468B4204DA32F81310B2
:104560006B1C99420DDD0136F6B293E70221F1E7AB
:104570001021EFE70221EDE701BE0021EAE71A2151
:10458000E8E70134E4B2631C984207DD32F8131007
:1045900032F814309942F4D000267BE7002679E700
:1045A0000C4B184605B0BDE8F08F00BF40F000107E
:1045B000D0EF001008F000100CF000103CF00010DC
:1045C00010F0001030F0001034F0001038F000103F
:1045D000D4EF0010020E0204280B0A0C00B583B0C1
:1045E0000191002100910B460A46FFF71DFF03B021
:1045F0005DF804FB02460023184603B1704702B180
:1046000018460133DBB2F8E710B50446FFF7F2FFB6
:10461000204610BD002001E00130C0B2142805D8AA
:10462000044B1B5C002BF7D040B270474FF0FF30BB
:10463000704700BF4CE9001038B504460D46FFF73F
:10464000E9FF114B1B5D83B1104B1A689368B2F8F8
:1046500070100B44201A1030B2F8721001FB00F0F9
:1046600000EB8501C858C0B238BD084B1A68936882
:10467000B2F870100B44B2F8720004FB00F000EBCB
:104680008500C058EFE700BF4CE90010B42D0008CA
:104690002DE9F84304461E469DF820809DF82470BD
:1046A000224B1B5CC3B1411ACCB22046FFF7ACFFD2
:1046B00046EA00262046FFF79DFF46EA004040F00C
:1046C000804040F4805027B14246002105F03EFA78
:1046D00023E005F089FA20E01546FFF795FF4FEA41
:1046E000002945EA00252046FFF784FF45EA0045FA
:1046F00049EA060949EA004949F080417FB90C4B73
:104700001A689368B2F870100B44B2F8720000FB9C
:1047100004F404EB86040020E050BDE8F88343462F
:104720000022284605F0B6F9F7E700BF4CE9001073
:10473000B42D00082DE9F04782B00C469046C0F336
:10474000470600F00107FFF765FF8146244B1D5D1A
:104750001B57002B04DB234B13F804A0002416E0A6
:1047600005F07F0555FA80F5EDB2F4E7B8F1010FD9
:1047700014BF00230123019300975346E2B25FFA6E
:1047800089F12846FFF784FF22E00134A4B22A46CB
:10479000154B33F81530A34219D9144B53F8253073
:1047A0001B5DB342F1D1124B9B5C1BB11FFA8AF324
:1047B000A34210D1B8F1020F04D051462846FFF7AA
:1047C0003BFF50B9B8F1000FD0D1002000E00948FC
:1047D00002B0BDE8F0870748FAE70748F8E700BFEE
:1047E000DCE80010BCEE00102CEF00105023000895
:1047F0004CE90010010D0204000D020408B502226C
:10480000FFF798FF08BD08B50022FFF793FFB0FA45
:1048100080F0400908BD000070B582B00D46837875
:10482000772B16D8DA08134909688E6906EBC21689
:10483000C27803F00704009201232A46214630463D
:1048400002F00CF90A2D08D00B2D0CD0002002B07C
:1048500070BD084A12689669EAE70122214630468F
:1048600002F056F9F2E700222146304602F050F9F4
:10487000ECE700BFB42D000810B582B001467728E0
:1048800010D8C308094A1268906900EBC3100024CD
:1048900000940123082201F0070102F0DFF820460E
:1048A00002B010BD014B1B689869F0E7B42D0008F9
:1048B00000B583B0ADF8000001911146684604F0E0
:1048C000B7F903B05DF804FB01280BD002280ED025
:1048D00008B1094870471AB101230B6000207047E6
:1048E0000023FAE782F001020A60002070470223E9
:1048F0000B600020704700BF00130204F8B5037D71
:10490000002B47D004460D4690F836300BB10025F9
:1049100041E004F011F90646627A204B03EB0213E2
:104920009868DFF87CE00027A0F1200CC0F120019E
:104930000EFA0CFC2EFA01F12A463B460EFA00F064
:104940004CEA010105F042FA02460B463546864222
:1049500077EB010101D232463B46A81843F1000132
:10496000013841F1FF3105F031FA0246B0F5803FE0
:1049700001D94FF48032207B013A617B00F00300C3
:1049800003F094F8054630B904F10C00FFF74EFB34
:10499000A06100E000252846F8BD00BFC4F000106B
:1049A00040420F0000000000F8B504460E46417A70
:1049B000314B03EB01131879A37A1844C5B2B2B195
:1049C00004F10C03D2E9000183E80300217B627B40
:1049D00001F00301284603F077F90746002841D18A
:1049E00004F10C00FFF722FBA0613846F8BD01235B
:1049F0001A4604F1080104F10C0001F00FFF07460C
:104A000010B1002FF1D1EBE70123237504F094F8E6
:104A100096B117A3D3E90023A6FB000105F0D6F950
:104A2000421C21D0207B013A617B00F0030003F09F
:104A30003DF818B1114FD8E70122F3E7207B617BE5
:104A400000F0030003F07CF908B10C4FCDE7217BA7
:104A5000627B01F00301284603F036F90028D0D02C
:104A6000064FC2E7054FC0E7044FBEE7AFF3008033
:104A7000C0FD320F00000000C4F00010011302045A
:104A8000F8B504460E461746417A837A324643EA21
:104A90000121406804F024FE054617B1B368022BDB
:104AA00002D07DB12846F8BD627AA37A43EA022398
:104AB000FF2B05D80621626802EBC3131965F0E7E6
:104AC000C621F8E7204600F0FFFDF368003B18BF61
:104AD000012384F836306168627AA37A03EB0223FB
:104AE000DB01CA5842F00042CA50DBE7002900F05F
:104AF0008E802DE9F04182B0044616460F46417A79
:104B0000474B03EB01139A6801239340013BBB42DF
:104B10007FD390F8340094F835806368A27A02EB72
:104B2000012203EBC21300221A616368617A7D1EC1
:104B3000A27A02EB012203EBC2131D62FF2843D1CC
:104B4000B8F1FF0F4DD14FF0010C6068617A01F0B0
:104B5000030EA37A43EA01211A4603EB0E2300EB6E
:104B6000C313D3F85080BEF1000F4AD1002343F0A5
:104B7000120EC64549D043F00603434543D00023F7
:104B8000BCF1000F01D003B9BE1BBE4200D23546B6
:104B900001F47F43134400EBC3131D616268617A23
:104BA000A37A43EA0123180AD9B203F47F430B44E2
:104BB00002EBC3139B689D422DD801EB002102EB51
:104BC000C1120020906027E00023009304F1080345
:104BD0003522144901F002FD0028B1D14FF0000C3C
:104BE000B3E70023009304F1080335220E49404641
:104BF00001F0F4FC10B14FF0010CA6E74FF0000CEF
:104C0000A3E7C023B3E70123BAE70123B8E70748C6
:104C10007047064800E0002002B0BDE8F08100BF08
:104C2000C4F0001008E8001034E70010001302047C
:104C300010B5044628B123782BB1204600F0EEFED3
:104C400010BD01BEF7E704F1340001F01AFD04F1D4
:104C5000350001F016FDF0E72DE9F047A8B00E464B
:104C600091469A469DF8C880054600287ED0382295
:104C70000021284605F070FA1E232B72FF2385F8C9
:104C8000343085F8353035234F4A1A21304601F04B
:104C9000D2FC044600286BD00027002C71D01A23C8
:104CA0002B7223786B726278AA721B01474AD35821
:104CB0006B600621204601F0EFFC04460CB985F834
:104CC0003460B4B9B9F1FF0F13D0002F5BD00023CB
:104CD000009305F1080335223B49484601F07EFC6C
:104CE000002861D0062101F0D7FC044608B985F8F8
:104CF0003590002C51D000232793002C56D0002C47
:104D00002FD1AB69319A02FB03F3314AA2FB032393
:104D10004FEA9349C3F387469022002103A805F088
:104D20001BFA002E49D104230393279B05935FFAB6
:104D300089F306939DF8C03083F001030793B8F11F
:104D4000000F00D001240F94109402231193032329
:104D50001A9301231B933A4603A92846FFF790FEB6
:104D6000044664BB204628B0BDE8F08701BE7EE75C
:104D70003523184A1A21304601F05DFC044601270C
:104D80008BE7154C9AE70023009305F108033522C1
:104D90001049484601F022FCA2E7339A319928468F
:104DA000FFF702FE0446A6E70B4CA4E73A4627A904
:104DB0005046FFF789FD0446A1E70523B4E72846DE
:104DC000FFF736FFCEE700BF34E70010C4F0001055
:104DD00083DE1B4308E800100013020438B52DEDF4
:104DE000028B08EE101A14460546C8B1B5EEC08A0B
:104DF000F1EE10FA2DD4DFED1A7AB4EEE78AF1EE77
:104E000010FA28DC4CB304F5742101F23F21B1FB08
:104E1000F4F12846FFF772FD20B1BDEC028B38BDDE
:104E200001BEE3E7A96901EB5401B1FBF4F1DFED49
:104E30000D7A28EE278A07EE901AF8EE677A27EEA9
:104E4000888AFCEEC87A17EE902A2846FFF74EFEB5
:104E5000E3E70548E1E70448DFE70348DDE700BF93
:104E60000000C8420AD7233C0013020410B50446D0
:104E7000B0B100F023FCA8B96168627AA37A03EBB1
:104E80000223DB01CA5842F00042CA506368617ACB
:104E9000A27A02EB012203EBC21304221A6410BDB2
:104EA00001BEE6E70048FAE7031A0204024658B1D9
:104EB0005168507A937A03EB0023DB01CA5822F041
:104EC0000042CA500020704701BEF1E71238202886
:104ED0001CD8DFE800F0191B1B1B1B1B1B1B1B1B1B
:104EE0001B1B1B1B1B1B1B1B1B1B1B1B1B1B1B1B12
:104EF0001B111E131B15170000207047022070475E
:104F000004207047052070470620704701BE00202E
:104F1000704701207047000038B50346084850F834
:104F20002340084850F8235044B12DB100231846BF
:104F30000BB92046A84738BD0123F8E70123F6E75F
:104F4000B42C0008982C00082DE9F04105460E46C7
:104F5000084601F0FDFB074600244FF0010817E06A
:104F6000022229463846FFF7D7FF0137FFB2BC427D
:104F7000F6D8022E1AD0082E18D0012E19D1B8F169
:104F8000000F16D00C4B01221A7012E00134E4B26B
:104F9000062CEED83A4629462046FFF7BDFF80464C
:104FA0000028F3D1012EF1D10027E0E7024B0022C7
:104FB0001A704046BDE8F081952C000808B5EFF363
:104FC0000580103800B240F2FF33984205D0FFF759
:104FD0007DFF034B53F8200008BD0020FCE700BF15
:104FE000B42C00082DE9F04383B080460E461746E6
:104FF0009946002416E099F802206B789A4201D075
:10500000002325E0012323E017238DF80430735C8F
:105010008DF805306B788DF8063001A8FFF79AF906
:10502000C8B10134BC421AD2A10006EB840595F840
:1050300002C0C445F5D1B9F1000FE5D099F80030B0
:10504000172BE1D199F80120735C9A42D3D0002349
:10505000002BE6D004E001A8FFF7C0F900E000252E
:10506000284603B0BDE8F0832DE9F04383B007463E
:105070000D4616460024A14600E00134B44220D279
:105080004FEA840805EB840393F802C0BC45F4D1D1
:1050900017228DF8042015F824208DF805205B7860
:1050A0008DF8063001A8FFF755F90028E5D101A8D1
:1050B000FFF794F915F808200123934049EA030902
:1050C000DBE7484603B0BDE8F0830000014B1878E9
:1050D000704700BF952C000808B5124B43F820100C
:1050E000114B43F8202000231A4601E00133DBB2C4
:1050F000062B08D80B4850F823000028F6D0012AC8
:1051000007D00132F2E72AB901B101BE074800F029
:105110006DF908BD012AFCD10029FAD0034800F03E
:1051200059F9F6E7B42C0008982C0008C0230008B1
:105130002DE9F0410446884616461F4604E0012248
:1051400088F80020E2B1E46840F28975AC4217D0DB
:105150002568002DF7D094F804C036EA0C03F2D18C
:10516000637937EA0303EED0A26839463046A84790
:105170000028E4D1012F01D00122E1E70022DFE77E
:105180002046BDE8F08170B504460D46164600E0A5
:10519000E468AC420FD02368002BF9D0217936EABD
:1051A0000102F5D1627912F0020FF1D1A268022159
:1051B00030469847ECE770BD38B505460C46FEF71B
:1051C00030FDE36813B1FEF730FD38BD2B68E360B6
:1051D0002C60F8E738B504460D46FEF722FD01E0E5
:1051E00003F10C04236840F28972934205D0AB426C
:1051F000F6D1EB6823600023EB60FEF716FD38BDA7
:105200002DE9F04182B00D4601F0AEFA04460123CB
:105210008DF80730022808D0082806D0102804D0BE
:105220001A4B1E681A4B1F6803E0184B1F68184B77
:105230001E6823462A460DF107013846FFF778FF1E
:1052400080469DF8073063B930469DF807300BB9AA
:10525000012C0ED09DF80730B3B1002002B0BDE89C
:10526000F08123462A460DF107013046FFF760FF23
:10527000EBE72A4601463046FFF785FF2A464146BE
:105280003846FFF780FFE5E70248E7E7D423000848
:10529000D0230008FF00420038B50C4610212046FC
:1052A000FFF7AEFF0546042C01D0284638BD00208C
:1052B00003F032FC0349A1FB0031890C012003F00B
:1052C00061FDF2E783DE1B4338B50C46082120461A
:1052D000FFF796FF0546082C01D0284638BD002070
:1052E00003F01AFC0349A1FB0031890C002003F0F4
:1052F00049FDF2E783DE1B4308B508460421FFF7AA
:105300007FFF08BD10B50446FFF77AFF042C02D0DA
:10531000082C17D010BD4FF0E0231B6913F0010FCC
:1053200004D00E4B1B7813B1012300E000230C4A7C
:105330001370002BEED04FF0E022136923F001032D
:105340001361E7E7064B1B78002BE3D04FF0E02218
:10535000136943F001031361DCE700BFD22C00089E
:105360006C2D000808B50846012902D1044B1B88A2
:105370001BB90221FFF7C6FF08BD0248FCE700BFCA
:10538000D02C0008FF00420008B508460121FFF7B5
:10539000B9FF08BD38B584468E4615460C4C0FCC77
:1053A000CCF80000CCF80410CCF80820CCF80C3075
:1053B00007CCCCF81000CCF81410CCF81820CCF89E
:1053C00000508CF804E0604603F05EFE38BD00BF7C
:1053D000A8F0001008B5014618B10348FFF7ECFE2D
:1053E00008BD01BEF9E700BFD423000808B5014697
:1053F00018B10348FFF7EEFE08BD01BEF9E700BF94
:10540000D423000808B504F035F838B9164A00214D
:105410001648FFF7BFFF20B9154808BD03F07EFE10
:10542000F4E7144A01211448FFF7B4FF08B9104803
:10543000F3E7124A02211248FFF7ACFF08B90C4803
:10544000EBE7104A03211048FFF7A4FF08B908480A
:10545000E3E70E4A04210E48FFF79CFF08B1002045
:10546000DBE70348D9E700BF895300104C2D000843
:10547000011A020465530010DC2C0008F9520010D8
:10548000F82C0008C9520010302D00089952001065
:10549000142D0008024600B101BE024B43F8221051
:1054A000704700BF682D000800230B2B06D8054A63
:1054B00052F8232022B90133DBB2F6E7002070470F
:1054C000012070477C2D000830B40139072900F213
:1054D0009180DFE801F086048F2E8F8F8F5C474B21
:1054E00000221A70012027E0012050700133DBB246
:1054F000434A02EB0112127B9A4210D9404A02EB56
:105500000112527B1A443F4850F82220002AEDD065
:10551000D80128580028E7DB00205070E6E7013466
:10552000E4B2012C07D821462301354AD55800237F
:10553000DEE70024F5E7012030BC70470133DBB221
:105540002F4A02EB0012127B9A4212D92C4A02EB2C
:105550000012527B1A442B4951F82220002AEDD028
:105560005278002AEAD0D901625842F000426250D3
:10557000E4E70CF1010C5FFA8CFCBCF1010F09D8D7
:1055800060464FEA0C131E4AD4580023D8E74FF068
:10559000000CF2E7194B00221A700120CCE701320F
:1055A000D2B2174B03EB01131B7B934216D9144B5A
:1055B00003EB01135B7B1344124850F82330002B9C
:1055C000EDD058685C7A9B7A03EB042300EBC3139D
:1055D0005B6853EA0343E2D50020ADE70131C9B26D
:1055E00000E00021012901D80022DAE70120034B65
:1055F0001870A1E701BE01209EE700BFAC2D000896
:10560000C4F000107C2D0008EFF30582103A1FFA59
:1056100082FC12B2002301E00133DBB2012B12D86D
:105620001C4901EB0311897B8A42F5DB194800EB29
:105630000310007B08448242EEDA5FFA8CFCACEB8C
:105640000101C9B200E00021012B01D901BE704760
:1056500070B5104A180102EB031314585B7B194410
:105660000D4B53F821506A7AAB7A03EB022304EB1B
:10567000C313DE6F26B1EB6913B13146286A984730
:105680006A7AAB7A03EB022304EBC3142667236F19
:1056900070BD00BFC4F000107C2D000804280AD89B
:1056A000DFE800F00B0B0503070002207047032022
:1056B00070470520704701BE00207047014B1878E5
:1056C000704700BFAC2D000810B50446002306E06B
:1056D00003F11402002124F812100133DBB2042B71
:1056E000F6D9FFF7E1FE50B1627A074B03EB0213E4
:1056F0005B7BA27A1344054A42F8234010BD04485C
:10570000FFF768FEF0E700BFC4F000107C2D000832
:10571000D82300082DE9F04105468846174643780E
:10572000184E06EB03135C7B83781C44E4B2FEF74F
:1057300078FA154B53F82430C3F81C801F62FEF72B
:1057400074FA6B7806EB0316B47BAB78E5186A093C
:105750000E4B53F8223005F01F02D34013F0010F17
:105760000ED12C460A4A03212846FFF7A1F805F07E
:105770001F056409012303FA05F5044B43F824507F
:10578000BDE8F081C4F000107C2D000800E100E0CD
:10579000095600102DE9F0419DF8185046684C78E4
:1057A00091F802C04CEA042C4FEA1C285FFA8CFEE8
:1057B0000CF47F4CF44406EBCC1CDCF878403DB193
:1057C00022EA04070EEB082E06EBCE163767366F7B
:1057D00040684E7891F802C04CEA062CA5B11443FB
:1057E00000EBCC1294674878094A02EB0012927BD6
:1057F00089780A445901C9B202F1604303F5614353
:1058000083F80013BDE8F08124EA0204E8E700BF52
:10581000C4F0001001F14B00C0B2704770B50446EF
:105820000E461546407A042A00F29080DFE802F026
:105830000328415B7500626800F0030CA37A03EB58
:105840000C2302EBC312936CDBB2916C21F0FF01CD
:1058500091646268A17A01EB0C2C02EBCC12D16C42
:1058600021F44071D164033BD9B2FFF7D3FF014665
:105870003046FEF7C3FF10B9143524F8150070BD8B
:10588000626800F0030CA37A03EB0C2302EBC31253
:10589000536C1B0E516C21F07F4151646268A17AF8
:1058A00001EB0C2C02EBCC12D16C21F0C001D164C5
:1058B000D9E7626800F0030CA37A03EB0C2302EB38
:1058C000C312536CC3F30743516C21F47F0151643D
:1058D0006268A17A01EB0C2C02EBCC12D16C21F0A6
:1058E0003001D164BFE7626800F0030CA37A03EBD8
:1058F0000C2302EBC312536CC3F30723516C21F446
:105900007F4151646268A17A01EB0C2C02EBCC124E
:10591000D16C21F00C01D164A5E7626800F0030CA2
:10592000A37A03EB0C2302EBC312536CDBB2516C72
:1059300021F0FF0151646268A17A01EB0C2C02EBAB
:10594000CC12D16C21F00301D1648CE7004896E7BA
:105950000022020470B50446457A867A0846FFF7AD
:105960009DFE2B4B03EB051393F80DC0B4445FFA77
:105970008CFC626805F00301A37A03EB012502EBBE
:10598000C5156D6D05F00705854223D003EB012594
:1059900002EBC5156D6DC5F30215A84235D103EBB9
:1059A000012302EBC3135A6D22F070025A6563683B
:1059B000A27A02EB012103EBC1114B6D43F070039E
:1059C0004B65144A12F80C3023F0020302F80C3035
:1059D000002070BD03EB012302EBC3135A6D22F0CC
:1059E00007025A656368A27A02EB012103EBC11139
:1059F0004B6D43F007034B65064A12F80C3023F059
:105A0000010302F80C300020E3E70348E1E700BFA0
:105A1000C4F00010702D00080022020438B50546BD
:105A200030B36A7A354B03EB02139B7BA97A5A1881
:105A300002F01F01530901228A402033304941F806
:105A40002320BFF34F8FBFF36F8F6B68002B3ED0C7
:105A50006A7A2A4B03EB02135B7BAA7A1344294A26
:105A6000002142F82310FFF71FFD18B100240BE0BE
:105A700001BED6E72448FFF7B9FCF7E721462846E0
:105A8000FFF768FF0134E4B2042CF7D9002401E0E9
:105A90000134E4B2042C0AD804F1140335F81310CD
:105AA0000029F5D022462846FFF7B8FEF0E76968DE
:105AB0006A7AAB7A03EB0223DB01CA5822F0004278
:105AC000CA502B7833B100236B601E232B722B7DC1
:105AD0002BB938BD05F10800FEF780FCF3E7287B01
:105AE000697B00F0030002F06DF900B101BE05F121
:105AF0000C00FEF7E6FA00232B75EAE7C4F000106D
:105B000000E100E07C2D0008D8230008F0B583B048
:105B100004460E46037D53B10025154B93E8030060
:105B200002AB03E9030025B1284603B0F0BD114DD7
:105B3000F3E704F10C07002211463846FEF75FFA3E
:105B400008B10D4DF0E76A4631463846FEF78BFA4C
:105B500008B1094DE8E7002201213846FEF74FFA67
:105B600008B1054DE0E73846FEF760FAA061DBE7D3
:105B7000E4F00010031D0204011D0204F8B5044600
:105B80000E4600F10801437A2B481D0100EB031378
:105B9000405960601879A37A1844C7B2EAB104F199
:105BA0000C03D2E9000183E803001846FEF73EFA31
:105BB000A061217B627B01F00301384602F084F88A
:105BC00050BB617AA37A324643EA0121606803F050
:105BD00077FC054615B32846F8BD01231A4604F1A3
:105BE0000C0000F01BFE054610B1002DF2D1E8E7D5
:105BF0000123237511492046FFF788FF0546002839
:105C0000F3D1217B627B01F00301384602F05CF89E
:105C10000028EAD00A4DDDE7094DDBE72046FFF713
:105C200053FD6168627AA37A03EB0223DB01CA5851
:105C300042F00042CA50CEE7C4F0001040420F00CC
:105C4000011D020470B51446064620B1FF2904D098
:105C50000F4D284670BD01BEF8E7382200213046BE
:105C600004F07AFA31461E2301F8083F1A20FEF7A5
:105C7000B5FC054628B1002DEBD03046FFF7CEFE2F
:105C8000E7E7224603493046FFF778FF0546F2E78B
:105C9000001D0204ECF0001010B50446B0B1FFF78F
:105CA0000DFDA8B96168627AA37A03EB0223DB01D8
:105CB000CA5842F00042CA506368617AA27A02EB85
:105CC000012203EBC21310221A6410BD01BEE6E7E5
:105CD0000048FAE7031A0204034650B15A68587A9A
:105CE000596B9B7A03EB002302EBC31399600020EE
:105CF000704701BEF2E7000070B59AB004460D4649
:105D0000CB68436368222849684604F017FA6B6839
:105D10000093AB6805932B7883F001030293AB7873
:105D20005BB1002304936B78012B08D0022B08D0C1
:105D3000002B36D001BE002304E00223F2E701234A
:105D400000E0032303936068657AA17A01EB0523E1
:105D500000EBC3139E6F6A4641EA052103F096FCEF
:105D6000617AA37A6A4643EA0121606803F0A8FBDE
:105D700005466168627AA37A03EB0223DB01CA5805
:105D800042F00042CA506368617AA27A02EB0122B3
:105D900003EBC2139E672046FFF79EFF28461AB00A
:105DA00070BD0023CEE700BFECF00010012803D047
:105DB000022803D10320704702207047002070475B
:105DC0000138032809D8DFE800F0020B040602209E
:105DD0007047062070470820704701BE02207047B8
:105DE00004207047814206D9091A642303FB01F19C
:105DF000B1FBF0F07047411A642303FB01F1B1FBE2
:105E0000F0F070472DE9F04F87B004460D46174675
:105E100098469DF840901E23037100234373FF238F
:105E2000C371037243728372994218D0FF2F1AD044
:105E3000FF2D02D1FF2F00F0E380FDF7F2FE824636
:105E4000FF2D15D14FF0FF36FF2F18D1B8F1FF0FFE
:105E50001CD1B9F1FF0F20D136B300232BE09945B7
:105E6000E4D0684EA9E0B8F1FF0FE1D0654EA4E0A0
:105E7000082265492846FFF7F7F80646E4E70822B6
:105E800062493846FFF7F0F80640DFE7062260492E
:105E90004046FFF7E9F80640DBE706225D49484641
:105EA000FFF7E2F80640D7E75046FDF7BEFE554E35
:105EB00083E00133DBB226FA03F212F0010FF8D0CF
:105EC00017228DF814208DF8153000238DF8163028
:105ED00005AB08224C492846FFF784F8834605ABFA
:105EE00008224A493846FFF77DF8029005AB0622A2
:105EF00047494046FFF776F8019005AB0622454931
:105F00004846FFF76FF80390FF2D02D0BBF1000F5A
:105F10000DD0FF2F01D0029B4BB1B8F1FF0F01D084
:105F2000019B23B1B9F1FF0F02D0039B03B901BE5E
:105F300005A8FEF70FFA06465046FDF776FE002E3E
:105F40003BD1059BA3801B0CA371FF2D39D10EB94A
:105F5000FF2F3FD15EB9019B4BB10821184600F0DD
:105F60009BFB064618B90123E37284F809805EB9E9
:105F7000039B4BB10621184600F08EFB064618B96C
:105F80000123237384F80A9056B9119B5BB3002355
:105F9000637304F11003119A92E8030083E803008D
:105FA0005EB96079022801D90138C0B2217C627CD7
:105FB00001F0030101F088FE0646304607B0BDE857
:105FC000F08F0621584600F067FB06460028BED138
:105FD0002572BCE70821029800F05EFB0646002807
:105FE000B8D1E771B6E701231A46211D04F110006C
:105FF00000F014FC0646B0FA80F35B096373CFE748
:10600000004EDAE7001F020414E70010F4E6001067
:10601000C4E60010DCE600102DE9F8430446037ADC
:10602000FF2B0CD0D908772B05D84C48006886691F
:1060300006EBC11604E0494909688E6900E00026B4
:10604000A17AFF290ED0207BD0B1C808772905D8C6
:10605000424D2D68AF6907EBC01704E03F48006868
:10606000876900E0002703F0070501F00708013AFF
:10607000072A65D8DFE802F0064F64686464644F5D
:106080000027F0E7A14659F8180B494601F07AFCC1
:1060900010F0010F01D0002054E04946206801F0C3
:1060A0006FFC10F0010F51D12168D1F80832C3F311
:1060B0000803D1F80822C2F3C032D34248D1D1F844
:1060C0000833C3F30803002B44D176B12946304688
:1060D00000F0FEFC84F898002946304600F026FDCA
:1060E00000222946304600F081FC77B1414638460F
:1060F00000F0EEFC84F899004146384600F016FDA9
:1061000000224146384600F071FC4946206801F003
:1061100093FB012016E02268136843F000431360EC
:106120002EB194F898202946304600F05FFC9FB1CC
:1061300094F899204146384600F058FC012001E0CF
:1061400001BE0020BDE8F8830120FBE70020F9E74D
:106150000020F7E70020F5E70120F3E7B42D000861
:10616000F8B5314D2E68FEF729FF2860002859D078
:106170000446014651F8180BD0F88C5FD0F8CC7F5C
:1061800001F002FC15F0200F09D023682022C3F88B
:10619000802FD3F8803FE36C0BB11046984715F081
:1061A000400F09D023684022C3F8802FD3F8803FE6
:1061B000E36C0BB12020984715F0010F04D0E36C7D
:1061C00013B14FF48070984715F4007F13D0236803
:1061D0004FF40072C3F8802FD3F8803F2268D2F8C2
:1061E000883F43F4007123F4EE6323F0030303B10B
:1061F00001BEC2F8881F17F0400F09D02368402263
:10620000C3F8C02FD3F8C03FE36C0BB11020984700
:1062100017F0010F04D0E36C13B14FF400709847EE
:10622000014B1E60F8BD00BFB02D000838B50C460C
:10623000154602F081FC05FB04F4B0FBF4F038BD18
:106240002DE9F84380460E460824FF27A14601E0C9
:106250000134E4B2102C15D806FB04F502F06CFCF6
:1062600000EB55012246B1FBF5F14046FFF7DEFF9A
:1062700001463046FFF7B6FDC0B28742E8D907466F
:10628000A146E5E74846BDE8F883000070B504463E
