:020000041000EA
:1000000000200008EB0000100D0000004D01001062
:1000100000000000000000000000000000000000E0
:100020000000000000000000000000004901001076
:10003000000000000000000049010010490100100C
:100040004901001049010010490100104901001048
:100050004901001049010010490100104901001038
:100060004901001049010010490100104901001028
:100070004901001049010010490100104901001018
:1000800010B5064C2378002B07D1054B002B02D06E
:10009000044800E000BF0123237010BDB003000836
:1000A000000000000C150010044B10B5002B03D00D
:1000B0000349044800E000BF10BDC0460000000036
:1000C000B40300080C1500100230800803D0013082
:1000D0000238FCD1C046C0467047EFF3108072B6BC
:1000E000704780F3108870477047FFF7FDFF72B6C6
:1000F0000F4C104DAC4209DA21686268A368043BDA
:1001000002DBC858D050FAE70C34F3E70A490B4A2F
:100110000020521A02DD043A8850FCDC08480949E4
:100120000860BFF34F8F00F0F9FE00F0A9FEFEE774
:100130001815001030150010B0030008C80500089D
:100140000000000808ED00E0FEE7FEE700B504202F
:100150007146084202D0EFF3098002E0EFF3088015
:10016000043000F08DFCFEE7014B18607047C0467C
:10017000C4050008044B1B681A00BA3212881B6AB7
:100180005043C0187047C046C40500081D4B984234
:100190000FD010D840282FD005D8002830D01028F4
:1001A00028D019481EE0802828D080235B00984280
:1001B000F7D1144816E0154B984214D008D8A02364
:1001C0001B0698421CD0124B9842EAD1A0200BE0AB
:1001D000104B98420AD0104B984209D00F4B9842CE
:1001E000DFD10F487047A420C003FBE70D48F9E7B3
:1001F0000D48F7E70D48F5E70D48F3E70D48F1E73F
:100200000020EFE706005200FF005200010000F05E
:10021000090000A0040000F0050000F0030000F059
:100220000100520002005200030052000100500081
:10023000020050000500520010B50020FFF79AFFA1
:100240000A4B1C682300BC331B68C0180368002BD2
:100250000ADB074B1868FFF799FF012263689A6071
:100260009A68002AFCD110BD0248FCE7C4050008CA
:10027000CC03000802005000064B1B68BC331B680F
:10028000C3181B68002B03DA89B241600020704755
:100290000148FCE7C405000801008A000368002B40
:1002A00004DA89B2C2608160002070470048FCE730
:1002B00001008A00064B1B68BC331B68C3181B680F
:1002C000002B03DAC36800200B6070470148FCE78D
:1002D000C405000801008A00024B1A68002A00D1F8
:1002E00018607047E0030008F0B52C246043154CFB
:1002F0001F0024681D0A2018FF2425402740124CA7
:100300001B0C26680760346A45608360BA363688FD
:1003100077433F1907612F0080376D017F01E7198F
:1003200064190A4D47611F043B436419236000238D
:100330008361059BC2610162002B01D01B88838110
:10034000F0BDC046E0030008C40500080810000026
:10035000F0B5836885B002AD2B800368066A173359
:100360006B804368476A0095826AC16A0400039300
:100370000369C068FFF7B8FF00213B000A00009145
:100380003000FFF7B1FF216B280000F02DFB0022A9
:10039000AB5E002B06DB1F2213401E3A9A4013006F
:1003A000014A136005B0F0BD00E100E0F7B52C256F
:1003B000134C684326686943341825690193711802
:1003C000002D19D08869002818D12E68002E15DA62
:1003D0006768012426004B689E40B44613689EB2AD
:1003E00063461B041E431660EA608C61BC40019B9F
:1003F000A4B24B62AC60FEBD0248FCE70248FAE7DB
:10040000E003000804028A0007028A0073B5002690
:1004100042690400D56801962B0CB34221D01B041D
:1004200013601368194B00691B68BC331B68C31841
:100430001B68B34215DA01A9FFF73CFFB0420CD1AB
:100440000198E26903681E0CDBB29A4205D9226A60
:100450009B009B58002B00D0984731002069FFF784
:100460000BFFADB2002D09D063691D6000251B682C
:10047000636AAB4205D098476562A56163691B68F2
:1004800073BDA36A002BF8D09847F6E7C4050008AF
:100490002C2310B54343034A1068C018FFF7B6FF7A
:1004A00010BDC046E0030008F8B5194B0F001B68EB
:1004B0001A0033321278824227D9002925D01F250D
:1004C0000A68154021D11900BA310C88114E6043D9
:1004D0001C6AD208041929007868346000F07EFF95
:1004E00029002000FFF7C8FE3A0029003068FFF716
:1004F000D5FE041E07D101003068FFF7BDFE0300E2
:100500002000002B00D00448F8BD0448FCE7C0469A
:10051000C4050008E403000801018A0003018A0001
:1005200010B5002A0DD1002914D10B4B1A68130005
:10053000BA331B885843136AC018084B1860080068
:1005400010BD002906D0064B196019005A60FFF74C
:10055000ABFFF5E70348F3E7C4050008E403000830
:100560007803000803018A00F7B5184F04003B68C0
:100570000191DE683368834226D90025A94202D161
:10058000FFF7ABFD050038680368002B1ADA1F225D
:1005900001232240934064097268A4001419226860
:1005A00013420DD09A43226000240021FFF764FE1D
:1005B000019B002B02D12800FFF793FD2000FEBD18
:1005C000034CF2E7034CF3E7034CF7E7E4030008BE
:1005D000020188000301880004018A000A4B1B689D
:1005E000DB681A6882420DD959681F2342091840F6
:1005F0001E3B8340920050581840431E9841034BC5
:10060000C01870470248FCE7E403000800018800B6
:1006100004018A00054B1B681A0088321B681268A7
:100620009B181868000AC0B27047C046C40500088D
:10063000044B1B681A0088321B6812689B181868E4
:10064000000E7047C4050008024B18694007C00F30
:100650007047C04600002740A6220549D2008B58AB
:100660000220DB439B0702D00123885818407047C3
:100670000000264010B5FFF7EFFF0023022801D14C
:10068000014B1B68180010BDEC030008094A8300E9
:100690009B18D0229200985807221040042807D1B6
:1006A000C022920098581F23034080204000184326
:1006B0007047C0460000264010B5FFF7E7FF02284C
:1006C0001CD005D8002824D0012814D0002014E024
:1006D0001223FF33984214D01423FF33984215D0CD
:1006E000033B9842F2D10C4A0C4BD358002BEDDA65
:1006F0008020000201E00A4B186810BDFFF7BAFF26
:10070000FBE7FFF7A1FF0028E0D0F1E7024A054B25
:10071000EBE70548F1E7C046000026400C05000065
:10072000E80300083C05000000127A00B023154AD7
:10073000DB00D35810B59903DB01DB0F890BC371C4
:10074000114B0160D3580F24D904DB01DB0D038169
:10075000B123DB00D358C90C81801900214081727C
:1007600019092140C172D9029B009B0F8373074B6B
:10077000C90CD35881815A05DB01520FDB0D827100
:10078000038210BD00002640840500008C05000097
:1007900010B5104B421E1B683F331B78934216D98D
:1007A0007F221F248030FF300B4B8000C3581A403B
:1007B0000A701A0C2240180A8A701A012040E2407E
:1007C000487000209B009B0FCA700B7110BD03483E
:1007D000FCE7C046C40500080000264001004A00AE
:1007E000F0B589B003AC14220021200000F0F6FD22
:1007F0002000FFF79BFFB0231A4ADB00D2580023EA
:100800009A4203DAA37B023B5A1E9341E579002604
:100810006A1E95410135B34221D0A488B4421ED04E
:10082000039B30000193FFF747FF2A0033000700C6
:100830003100200000F0BCFC0C0005003300019AE0
:100840003100380000F0B4FCE6076A083243630860
:10085000801859412A00230000F08AFC060030006D
:1008600009B0F0BD00002640F0B50026244B85B04D
:100870001B6807003F331B78B3423ED0B0423CD0E8
:1008800083423AD30522310002A800F0A7FD02A955
:100890003800FFF77DFF3B008033FF33194A9B0090
:1008A0009B58B34229DA02AB1B79022B25D002AB4D
:1008B0005C78B44221D09D78B5421ED01B783800B8
:1008C0000193FFF7F9FE2A003300070031002000F2
:1008D00000F06EFC0C0005003300019A3100380076
:1008E00000F066FCE6076A08324363088018594145
:1008F0002A00230000F03CFC0600300005B0F0BDEB
:10090000C40500080000264010B5041E04D1FFF7FE
:1009100067FF002806D008E0064B1B683F331B78B2
:10092000834203D22000FFF7C7FE10BDFFF79CFFF4
:10093000EFE7C046C4050008E02210B50124094BCA
:1009400080009200C018835880589B069B0F9C40E3
:100950000F231840FFF7D8FF63081818210000F094
:100960007BFB10BD00002640144B30B51A680724ED
:1009700013002C331B781F2B15D883081D00A543AB
:100980002C1E0FD103342040A040814012689B00F0
:100990002032D3180A00FF2181401C6862401140B8
:1009A0006140196030BD802320401B06184380231E
:1009B0009B011268C91889008850F3E7C405000834
:1009C000064B9A680300064810339B00824202D10E
:1009D000985899507047034AD058FBE700ED00E063
:1009E0000000000800000010F8B506000D00002807
:1009F0003AD00023C05E002828DB7188FFF7B4FFDF
:100A00000024FF22032794460023F05E716883B21E
:100A10001F40FF006646BA4089013140D243B940C9
:100A2000002815DB114E83089B009B19C026B600D9
:100A30009F593A40114399510D4B9A680D4B9A4278
:100A400002D12900FFF7BCFF2000F8BD0A4CD8E70F
:100A50000F263340083B064E9B089B009B19DE691E
:100A600032401143D961E7E7034CEDE700E100E0D4
:100A700000ED00E00000000801005600FEE7000065
:100A800002680A4B10B51A6042685A6082689A6020
:100A9000C268DA6002691A6142695A6182699A61C0
:100AA000C269DA61FFF7EAFF10BDC0469003000893
:100AB000B0235B055A782120002A01D05878C0B2B3
:100AC0007047B0235B059A89002A02D0988980B2CA
:100AD000704780204000FBE77FB5274B86000D0064
:100AE000F458042901D0012927D100200FE0A36880
:100AF0002B420BD1E36829001A685B6802920193CC
:100B0000039302A8236898471C4B1C606469002C5F
:100B10000BD01B4B9842EAD1012DE8D1174B184856
:100B20001A68184B9A5104B070BD012DFBD1144BBB
:100B30009842F3D0134B9C51F5E7022906D10F4B95
:100B40001B68181EEFD01C6903E01C006369002BB2
:100B5000FBD10020002CE6D0A3682B4209D1E3682A
:100B600029001A685B6802920193039302A8236824
:100B700098472469EEE7C046300400082C040008BA
:100B8000FF004200180400081A4B1B681900883146
:100B90001A68096851180968016219008C310968DE
:100BA0005218126842621A0046321278002A1FD088
:100BB0009A68E0321268D2061AD5F222DB68D201B6
:100BC0009A580260F022D2019A5842600A4A9A5812
:100BD00082600A4A9A58C260094A9A580261094AD0
:100BE0009A584261084A9A588261084A9B58C361E0
:100BF0007047C046C405000804780000087800006B
:100C00000C780000107800001478000018780000BC
:100C10001A4B1B681A008832196812688A18016A10
:100C200011601A008C32196812688A18416A1160C2
:100C30001A0046321278002A1ED09A68E0321268F2
:100C4000D20619D5F0224168DB68D201995081683B
:100C50000B4A9950C1680B4A995001690A4A995048
:100C600041690A4A99508169094A9950C169094AFA
:100C700099500168E83299507047C046C405000891
:100C800004780000087800000C780000107800005C
:100C90001478000018780000F7B50700FFF708FF88
:100CA000664D06006B68002B00D07DE0FFF715FA5B
:100CB0006B680090002B00D089E0614C2268130023
:100CC000BA33198807234B43126A9B181A68002A03
:100CD000FCDADB68DA0021D51B0F1B0759480193AA
:100CE000FFF752FF5849212E00D075E0226890206E
:100CF000130088331C68136800011C1923680B401B
:100D00000343236013008C3312681B68D3181A68DE
:100D10001140084318604B4B019A13438022484E00
:100D20009205316813430A00BA3210880722002462
:100D30004243096A5218D36054605368FFF7C1FEFA
:100D400080235B0098425DD1380000F05DFB326883
:100D50001300BA33198807234B43126A9B181A6889
:100D6000002AFCDADF68FB0003D538010009FFF731
:100D70004FFF364B32681F401300BA3319880723E0
:100D80004B43126A00989B180022DF605A60FFF7FD
:100D9000A8F9002C0FD16B68002B03D0082101208B
:100DA000FFF79AFE2000FEBD01210800FFF794FE28
:100DB000041E00D17AE76B68002B03D002210120CA
:100DC000FFF78AFE224B9C42ECD0224CEAE704213A
:100DD0000120FFF781FE70E720688022030088333E
:100DE0001C68036852001C1923680B4013432360DE
:100DF00003008C3300681B68C318186801400A435D
:100E00001A6088E733681A00BC32196A12685218EF
:100E10001168002910DBBA331B889A181368002B5D
:100E20000ADB04230C4A11690B431361012F01D023
:100E300030BF8CE720BF8AE7054C88E73004000804
:100E4000C4050008F0030008FF00FFFFFFFFFFDFFD
:100E500005004200FF00420000ED00E0C0228020BB
:100E6000064952008B58C0059B009B0803438B50DA
:100E7000802388581B0603438B5070470000264090
:100E800010B562B6034800F0C1F80020FFF704FF78
:100E9000FBE7C0460020001010B50020FFF7F8FA6D
:100EA00010BD704710B50020FFF746FD041E25D089
:100EB000134B1860FFF7BCFB411C200000F0CCF87E
:100EC000104B04001860FFF7A5FB411C200000F048
:100ED000C3F80D4B441E18600C49200000F0BCF80C
:100EE000FA210B4B013018708900200000F0B4F893
:100EF000084B01301860084BC003186010BDC04695
:100F000084000008880000088000000840420F00AC
:100F100094000008900000088C00000810B52048DC
:100F2000FFF722F9B022E02130201E4CD200A35856
:100F300089005B005B08A3506358834363508023A0
:100F40005B04A350184B194AE250A02204339201CB
:100F5000E250FF22164BE250FFF780FFC022012132
:100F60005200A3588B43A350FFF79BFFFFF79AFF54
:100F7000104B03201A681300BA33198807234B4318
:100F8000126A80219B180022DA605A600A4AFFF731
:100F9000C7FA0A48FFF7A0F90948FFF7D9F910BDC9
:100FA0001814001000002640840500000100020013
:100FB0008C050000C40500088003000844040008F4
:100FC000D81400109023034A5B01D0580323184023
:100FD0007047C0460000204010B59024FFF77DF810
:100FE000074B64011A5907491140074A0A431A512D
:100FF000102259681142FCD0FFF773F810BDC046AB
:1010000000002040FCFF00000100FA05F8B5902523
:101010000E4C6D010700FFF760F863590600DB43D3
:101020009B0701D1FFF7D8FF80239B00E75063594E
:10103000074A1A40074B13436351102362681A4250
:10104000FCD03000FFF74DF8F8BDC046000020404E
:10105000FCFF00000300FA05002243088B4274D312
:1010600003098B425FD3030A8B4244D3030B8B42A9
:1010700028D3030C8B420DD3FF22090212BA030CB2
:101080008B4202D31212090265D0030B8B4219D393
:1010900000E0090AC30B8B4201D3CB03C01A5241B3
:1010A000830B8B4201D38B03C01A5241430B8B42FB
:1010B00001D34B03C01A5241030B8B4201D30B03E4
:1010C000C01A5241C30A8B4201D3CB02C01A52410B
:1010D000830A8B4201D38B02C01A5241430A8B42CE
:1010E00001D34B02C01A5241030A8B4201D30B02B7
:1010F000C01A5241CDD2C3098B4201D3CB01C01AD1
:10110000524183098B4201D38B01C01A52414309DA
:101110008B4201D34B01C01A524103098B4201D3C8
:101120000B01C01A5241C3088B4201D3CB00C01A35
:10113000524183088B4201D38B00C01A52414308AD
:101140008B4201D34B00C01A5241411A00D20146D2
:10115000524110467047FFE701B5002000F006F845
:1011600002BDC0460029F7D076E770477047C046F9
:10117000002B11D1002A0FD1002900D1002802D064
:101180000021C943081C07B4024802A1401802907C
:1011900003BDC046D9FFFFFF03B4684601B50298FE
:1011A00000F030F8019B9E4602B00CBC7047C04670
:1011B000F0B5CE46474615042D0C2E0080B5070429
:1011C000140C3F0C9946030C7E435D436743634315
:1011D0007F19340CE4199C46A54203D980235B0295
:1011E0009846C4444B4643435143250C360465445A
:1011F000360C2404A4195B19591820000CBC904625
:101200009946F0BDF0B54F464646D646C0B50400F7
:1012100082B00D00914698468B422FD82CD0414683
:10122000484600F0CFF829000600200000F0CAF878
:10123000331A9C46203B9A4600D576E04B465246F0
:1012400093401F004B46624693401E00AF4228D891
:1012500025D05346A41BBD41002B00DA7BE00022C1
:1012600000230092019301235246934001930123EE
:1012700062469340009318E08242D0D900220023B6
:10128000009201930A9B002B01D01C605D600098C6
:10129000019902B01CBC90469946A246F0BDA342FB
:1012A000D7D900220023009201936346002BE9D096
:1012B000FB079846414672080A437B0866460EE0E3
:1012C000AB4201D1A2420CD8A41A9D41012024199D
:1012D0006D410021013E24184D41002E06D0AB4245
:1012E000EED9013E24196D41002EF8D100980199E4
:1012F000534600196941002B23DB2B005246D34093
:101300002A006446E2401C0053461500002B2DDBEA
:1013100026005746BE40330026006746BE403200D6
:10132000801A994100900191ACE7624620239B1AF4
:101330004A46DA406146130042468A4017001F437E
:1013400080E7624620239B1A2A0066469A402300C3
:10135000F3401343D4E76246202300219B1A002266
:10136000009101920122DA40019280E72023624637
:1013700026009B1ADE402F00B0466646B740464620
:101380003B003343C8E7C0461C2101231B0498429D
:1013900001D3000C10391B0A984201D3000A083906
:1013A0001B09984201D30009043902A2105C4018BD
:1013B0007047C04604030202010101010000000061
:1013C0000000000010B5002903D1FFF7DDFF203039
:1013D00002E0081CFFF7D8FF10BDC046030012183A
:1013E000934200D1704719700133F9E7F8B5C04650
:1013F000F8BC08BC9E467047F8B5C046F8BC08BCAF
:101400009E4670470000000001B40248844601BCBB
:10141000604700BF61020008000020400000244037
:1014200000000040000000000000234000003040A9
:101430000000314000009F400000224000001040AA
:1014400000009B402020202020132010101E208010
:1014500017007500FF03050104001C0310000000C5
:101460001FC0000000040000000000000019324B03
:10147000647D0202000000804000080B10000000A4
:101480000000FF012002001F00800004FF08101868
:10149000001000140018001C4044484C500000008C
:1014A0000810000008000000040000000410000004
:1014B00000120000042100000021000000160000BE
:1014C00040114002C41300138013A013401388136B
:1014D000A81320001C000000030000000100000011
:1014E000010000000000000005036000040000008F
:1014F0000100000000000000010000000604600080
:1015000008000000A4050008990E0010000000006B
:10151000F4FCFF7F01000000000000100000000844
:10152000800000003815001080000008F80200005C
:10153000B00300081802000000093D0000127A0004
:1015400000093D000000D007A00F000004000000CB
:10155000A90000108100001080B230B5C00020D07A
:10156000104B07221C682300BA331B885A43236A96
:10157000D31819680029FCDA3E210B4B06251960A7
:101580000A4B0B491960A3210A4BC9005D500A4957
:1015900058505858206A1218002050605A58002A93
:1015A000FCDA30BDC40500080401264008012640CD
:1015B0001E1F0000000026401C05000010B54378E7
:1015C000FF2B11D100F00CF90400032000F0E8F823
:1015D000C3685A68012311681943116011681942E0
:1015E000FCD1200000F01CF910BDF7B500900020E0
:1015F000019100F0D5F83F4D06002B681A005033DA
:10160000BC3214681B780419002B5AD000F0F8F88B
:10161000070003281BD000F0E3F8374A374B0500DA
:10162000D358002B3EDA364A0121300000F0C0F8D2
:10163000002837D10198FFF78FFF009B002B3ED089
:101640002368002BFCDB00F0C3F804002BE006202D
:1016500000F0A6F82B68BC331B68C0180368002B89
:1016600002DA284C2000FEBD002000F0C1F8264B15
:101670009842F6D00023254A19001268012000F094
:101680009FF80025A842ECD1002000F0B1F81E4AD6
:101690001F4B904203D09D42E3D00135F4E79D42B9
:1016A000B9D1DEE7174C032F05D10121002000F04E
:1016B000AFF80028F9D1280000F0B2F8D2E7154CB5
:1016C000F1E700F08DF80E4A05000121300000F02E
:1016D0006FF8002809D1009B002B08D02368002B4D
:1016E000FCDB00F075F80400E5E7064CE3E7094C85
:1016F000E1E7C046C4050008000026401C050000C4
:10170000CC0300080500520001018800DC0300083A
:10171000F049020001005000184BF7B51B68184A49
:101720005C68042311690B431361012824D030BF86
:101730002300FC331B69002B1DD1A320114B124940
:10174000124AC0000F681E5815680195104D0D60B3
:1017500006251D503E2010600E483E351D501D5878
:10176000002DFCDA0C48FC3420610F60A321C90075
:101770005E50019B1360F7BD20BFD9E7C405000888
:1017800000ED00E00000264008012640040126404C
:101790001E1F00001C050000AAAAAAAA0000000043
:1017A00001B40248844601BC604700BF75010010C7
:1017B00001B40248844601BC604700BF9D0200108E
:1017C00001B40248844601BC604700BFAD0300106D
:1017D00001B40248844601BC604700BF39020010D2
:1017E00001B40248844601BC604700BFDB00001022
:1017F00001B40248844601BC604700BFDD0500100B
:1018000001B40248844601BC604700BFC50F001008
:1018100001B40248844601BC604700BF690500105E
:1018200001B40248844601BC604700BFE3000010D9
:1018300000000000000000000000000000000000A8
:081840000000000000000000A0
:1020000000F80108412300100D000000B523001066
:10201000B5230010B5230010B52300100000000008
:10202000000000000000000000000000B1230010CC
:10203000B123001000000000B1230010B1230010F4
:10204000B123001000000000B1230010B1230010E4
:1020500000000000B1230010B1230010B1230010D4
:10206000B1230010B1230010B1230010B1230010E0
:10207000B123001000000000B1230010B1230010B4
:10208000B1230010B1230010B1230010B1230010C0
:10209000B1230010B1230010B1230010B1230010B0
:1020A000B1230010B1230010B1230010B1230010A0
:1020B000B1230010B1230010B1230010B123001090
:1020C000B1230010B1230010B1230010B123001080
:1020D000B1230010B1230010B1230010B123001070
:1020E000B1230010B123001000000000B123001044
:1020F000B1230010B1230010B1230010B123001050
:1021000000000000B1230010B1230010B123001023
:10211000B1230010B12300100000000000000000F7
:10212000B1230010B1230010B1230010B12300101F
:10213000B1230010B1230010B1230010B12300100F
:10214000B1230010B1230010B1230010B1230010FF
:10215000B1230010B1230010B1230010B1230010EF
:10216000B1230010B1230010B1230010B1230010DF
:10217000B1230010B1230010B1230010B1230010CF
:10218000B1230010B1230010B1230010B1230010BF
:10219000B1230010B1230010B1230010B1230010AF
:1021A000B1230010B1230010B1230010B12300109F
:1021B000B1230010B1230010B1230010B12300108F
:1021C000B1230010B1230010B1230010B12300107F
:1021D000B1230010B1230010B1230010B12300106F
:1021E000B1230010B1230010B1230010B12300105F
:1021F000B1230010B1230010B1230010B12300104F
:10220000B1230010B1230010B1230010B12300103E
:10221000B1230010B1230010B1230010B12300102E
:10222000B1230010B1230010B1230010B12300101E
:10223000B1230010B1230010B123001000000000F2
:10224000000000000000000000000000B1230010AA
:10225000B1230010B1230010B1230010B1230010EE
:10226000B1230010B1230010B123001000000000C2
:10227000000000000000000000000000000000005E
:102280000000000000000000B1230010000000006A
:10229000000000000000000000000000000000003E
:1022A000000000000000000000000000000000002E
:1022B000000000000000000000000000000000001E
:1022C000B1230010B1230010B1230010B12300107E
:1022D00000000000000000000000000000000000FE
:1022E000B1230010B1230010B1230010B12300105E
:1022F000B1230010B1230010B123001010B5054C1C
:10230000237833B9044B13B10448AFF300800123A1
:10231000237010BD4C2A000800000000D4E6001015
:1023200008B5034B1BB103490348AFF3008008BD58
:1023300000000000502A0008D4E6001070477047E3
:10234000FFF7FCFF72B6144C144DAC4209DA216859
:102350006268A368043BA2BFC858D050FAE70C34A7
:10236000F3E70F490F4A00209142BCBF41F8040B2C
:10237000FAE70D480D490860BFF34F8F01F018FAD6
:1023800001F0FCF9FFF7DBFF06F0CAFF01F04CFAA1
:1023900006F0B2FFFEE70000E0E60010F8E60010ED
:1023A0004C2A00088C2E00080020000808ED00E0F0
:1023B000FEE7FEE700B504207146084202D0EFF3C5
:1023C000098002E0EFF30880043005F079FFFEE7B2
:1023D00000B583B04FF4E1330093FF231A46282160
:1023E000292006F08FFD00B101BE03B05DF804FBAB
:1023F000F0B59C46394C0126C4F884600223C4F829
:102400008430374F2A253D600425C4F88450C4F831
:102410008850C4F88830C4F888604FEA102EC0B2E3
:10242000C4F88460C7F800E0C4F88450C4F8885049
:102430003860C4F88450C4F88850C4F88860080A2A
:10244000C9B2C4F884603860C4F88450C4F88850B5
:102450003960C4F88450C4F88850C4F88860C4F85F
:102460008460C4F884302B213960C4F88450C4F8E7
:102470008850C4F88830C4F88860110AD2B2C4F811
:1024800084603960C4F88450C4F888503A60C4F855
:102490008450C4F88850C4F888604FEA1C215FFA61
:1024A0008CF2C4F884603960C4F88450C4F8885051
:1024B0003A60C4F88450C4F88850C4F88860C4F8FE
:1024C0008460C4F884302C223A60C4F88450C4F884
:1024D0008850C4F88830C4F88860F0BD00003140EE
:1024E0000001314070B50446EF23002240F23F1155
:1024F0001046FFF77DFF4FF0000C1CE0210AE0B210
:10250000104B0125C3F884500F4E31600421C3F8ED
:102510008410C3F888103060C3F88410C3F88810A2
:10252000C3F888502A4492B2B2F5A07FE6D30CF1EA
:10253000010C1FFA8CFCBCF1EF0F01D80022F3E76D
:1025400070BD00BF00003140000131402DE9F84F5F
:1025500086468C4615469946DDF82880BDF82C70D5
:10256000BDF830600024A0EB520080B20EEB5201A7
:1025700089B212F0010F01D1013989B2ACEB5902D5
:1025800092B20CEB59039BB219F0010F01D1013B40
:102590009BB2FFF72DFF4FEAD50C15F0070F01D0C6
:1025A0000CF1010C002249E014F0800F2AD1330A0B
:1025B0005FFA86FE24484FF0010AC0F884A0DFF8D5
:1025C0008CB0CBF800300423C0F88430C0F88830D9
:1025D000CBF800E0C0F88430C0F88830C0F888A09C
:1025E0006400E4B2013189B2A94225D211F0070F8B
:1025F000DAD112FB0CF3C80810FA83F39BB218F877
:102600000340D1E7380A5FFA87FE0F4B4FF0010A0B
:10261000C3F884A0DFF834B0CBF800000420C3F87E
:102620008400C3F88800CBF800E0C3F88400C3F846
:102630008800C3F888A0D3E7013292B24A4501D29C
:102640000021D1E7BDE8F88F0000314000013140A2
:102650002DE9F843EA4C0125C4F884504FF00208F4
:10266000C4F88480E74F3D600426C4F88460C4F851
:102670008860C4F88880C4F88850322005F0FCFDDA
:10268000C4F88450C4F884804FF01109C7F8009052
:10269000C4F88460C4F88860C4F88880C4F888509E
:1026A000782005F0E9FDC4F88450C4F88480CF2375
:1026B0003B60C4F88460C4F88860C4F88880C4F8BB
:1026C0008850C4F8845000233B60C4F88460C4F888
:1026D0008860C4F88850C4F8845083223A60C4F8F3
:1026E0008460C4F88860C4F88850C4F884503022EC
:1026F0003A60C4F88460C4F88860C4F88850C4F8AC
:102700008450C4F88480ED223A60C4F88460C4F830
:102710008860C4F88880C4F88850C4F88450642263
:102720003A60C4F88460C4F88860C4F88850C4F87B
:10273000845003223A60C4F88460C4F88860C4F806
:102740008850C4F8845012223A60C4F88460C4F8F7
:102750008860C4F88850C4F8845081223A60C4F874
:102760008460C4F88860C4F88850C4F88450C4F801
:102770008480E8223A60C4F88460C4F88860C4F8B1
:102780008880C4F88850C4F8845085223A60C4F820
:102790008460C4F88860C4F88850C4F884503D60F0
:1027A000C4F88460C4F88860C4F88850C4F88450C1
:1027B00079223A60C4F88460C4F88860C4F888500C
:1027C000C4F88450C4F88480CB223A60C4F8846092
:1027D000C4F88860C4F88880C4F88850C4F884506D
:1027E00039223A60C4F88460C4F88860C4F888501C
:1027F000C4F884502C223A60C4F88460C4F888601D
:10280000C4F88850C4F884503B60C4F88460C4F8AD
:102810008860C4F88850C4F8845034223A60C4F800
:102820008460C4F88860C4F88850C4F88450C7F83D
:102830000080C4F88460C4F88860C4F88850C4F884
:102840008450C4F88480F7213960C4F88460C4F8E7
:102850008860C4F88880C4F88850C4F88450202167
:102860003960C4F88460C4F88860C4F88850C4F83B
:102870008450C4F88480EA213960C4F88460C4F8C4
:102880008860C4F88880C4F88850C4F884503B60DD
:10289000C4F88460C4F88860C4F88850C4F88450D0
:1028A0003B60C4F88460C4F88860C4F88850C4F8F9
:1028B0008450C4F88480C1213960C4F88460C4F8AD
:1028C0008860C4F88880C4F88850C4F88450C7F879
:1028D0000090C4F88460C4F88860C4F88850C4F8D4
:1028E0008450C4F88480C5213960C4F88460C4F879
:1028F0008860C4F88880C4F88850C4F884503A606E
:10290000C4F88460C4F88860C4F88850C4F884505F
:102910003D223A60C4F88460C4F88860C4F88850E6
:10292000C4F88450C4F88480C7223A60C4F8846034
:10293000C4F88860C4F88880C4F88850C4F884500B
:10294000C0223A60C4F88460C4F88860C4F8885033
:10295000C4F88450C4F8848036223A60C4F8846095
:10296000C4F88860C4F88880C4F88850C4F88450DB
:1029700068223A60C4F88460C4F88860C4F888505B
:10298000C4F88450C4F884803A223A60C4F8846061
:10299000C4F88860C4F88880C4F88850C4F88450AB
:1029A00055223A60C4F88460C4F88860C4F888503E
:1029B000C4F88450C4F88480B1223A60C4F88460BA
:1029C000C4F88860C4F88880C4F88850C4F884507B
:1029D0003B60C4F88460C4F88860C4F88850C4F8C8
:1029E00084501D223A60C4F88460C4F88860C4F83A
:1029F0008850C4F88450C4F88480B62104E000BF35
:102A000000003140000131403960C4F88460C4F8EE
:102A10008860C4F88880C4F88850C4F884500A22BA
:102A20003A60C4F88460C4F88860C4F88850C4F878
:102A30008450A2203860C4F88460C4F88860C4F868
:102A40008850C4F8845027203860C4F88460C4F8E3
:102A50008860C4F88850C4F884503B60C4F884602F
:102A6000C4F88860C4F88850C4F88450C4F88480DE
:102A7000B7233B60C4F88460C4F88860C4F88880D9
:102A8000C4F88850C4F8845007233B60C4F88460BD
:102A9000C4F88860C4F88850C4F88450C4F88480AE
:102AA0003960C4F88460C4F88860C4F88880C4F8C9
:102AB0008850C4F8845008233B60C4F88460C4F88C
:102AC0008860C4F88850C4F88450C4F884802623F1
:102AD0003B60C4F88460C4F88860C4F88880C4F897
:102AE0008850C4F884503D60C4F88460C4F888609D
:102AF000C4F88850C4F88450C4F88480E0233B6054
:102B0000C4F88460C4F88860C4F88880C4F8885029
:102B1000C4F884501F233B60C4F88460C4F8886004
:102B2000C4F88850C4F884501A233B60C4F8846009
:102B3000C4F88860C4F88850C4F8845018233B60F7
:102B4000C4F88460C4F88860C4F88850C4F884501D
:102B50003A60C4F88460C4F88860C4F88850C4F847
:102B600084500F233B60C4F88460C4F88860C4F8C4
:102B70008850C4F8845006233B60C4F88460C4F8CD
:102B80008860C4F88850C4F8845045233B60C4F87A
:102B90008460C4F88860C4F88850C4F884508723DF
:102BA0003B60C4F88460C4F88860C4F88850C4F8F6
:102BB00084504FF03209C7F80090C4F88460C4F81C
:102BC0008860C4F88850C4F884503A60C4F88460BF
:102BD000C4F88860C4F88850C4F8845007233B6068
:102BE000C4F88460C4F88860C4F88850C4F884507D
:102BF000C7F80080C4F88460C4F88860C4F88850BE
:102C0000C4F884503B60C4F88460C4F88860C4F899
:102C10008850C4F8845005233B60C4F88460C4F82D
:102C20008860C4F88850C4F8845000223A60C4F820
:102C30008460C4F88860C4F88850C4F88450C4F82C
:102C40008480E1213960C4F88460C4F88860C4F8E5
:102C50008880C4F88850C4F884503A60C4F884600E
:102C6000C4F88860C4F88850C4F8845025223A60BB
:102C7000C4F88460C4F88860C4F88850C4F88450EC
:102C80003860C4F88460C4F88860C4F88850C4F818
:102C900084503B60C4F88460C4F88860C4F88850ED
:102CA000C4F8845010223A60C4F88460C4F8886084
:102CB000C4F88850C4F8845009223A60C4F884608B
:102CC000C4F88860C4F88850C4F884503A223A6046
:102CD000C4F88460C4F88860C4F88850C4F884508C
:102CE00078203860C4F88460C4F88860C4F88850DC
:102CF000C4F884504D213960C4F88460C4F88860F9
:102D0000C4F88850C4F884503B60C4F88460C4F8A8
:102D10008860C4F88850C4F8845018233B60C4F815
:102D20008460C4F88860C4F88850C4F884500D23C7
:102D30003B60C4F88460C4F88860C4F88850C4F864
:102D4000845038233B60C4F88460C4F88860C4F8B9
:102D50008850C4F884503A60C4F88460C4F888602D
:102D6000C4F88850C4F884501F233B60C4F88460C2
:102D7000C4F88860C4F88850C4F88450C4F88480CB
:102D800011233B60C4F88460C4F88860C4F888806C
:102D9000C4F8885005F070FAC4F88450C4F88480F0
:102DA00029233B60C4F88460C4F88860C4F8888034
:102DB000C4F88850484605F05FFABDE8F88300BFC4
:102DC00008B5012306221946082001F001F800B1D8
:102DD00008BD012306221946092000F0F9FF00284A
:102DE000F6D10123062219460A2000F0F1FF00283F
:102DF000EED1012306221946102000F0E9FF002839
:102E0000E6D1012306221946112000F0E1FF002837
:102E1000DED1012306221946122000F0D9FF002836
:102E2000D6D1012306221946132000F0D1FF002835
:102E3000CED1012306221946142000F0C9FF002834
:102E4000C6D1012306221946152000F0C1FF002833
:102E5000BED1012306221946162000F0B9FF002832
:102E6000B6D1012306221946172000F0B1FFAFE7C3
:102E700008B5FFF7A5FF00B108BDFFF7E9FB00208B
:102E8000FFF730FBF8E708B50023062201214820B0
:102E900000F09EFF00B101BE002306220121402068
:102EA00000F096FF00B101BE0023062201214A2056
:102EB00000F08EFF00B101BE08BD08B500231A4620
:102EC0001946332000F084FF00B101BE00231A46EA
:102ED0001946342000F07CFF00B101BE00231A46E1
:102EE0001946352000F074FF00B101BE08BD7047DF
:102EF00008B5FFF7E2FFFFF7C6FFFFF7B9FFFFF7DF
:102F0000F6FF024800F0C6FA08BD00BF80969800A0
:102F100038B54FF4FC620021084600F04DF940F24C
:102F20001D520021084600F0A9F900F013F9002510
:102F30002C46CEE07D4B1B78DBB2022B7ED07B4B48
:102F40001B78DBB2012B7ED0794B1B78DBB2042BD4
:102F500000F081804FF4FC62764B1978764B18783C
:102F600000F02AF940F21D520021084600F086F9CF
:102F700000F00AF9714B1978714806F077FEADB18F
:102F80006E4B1B7893B16C4B93F90030002B72DDC4
:102F9000013B6C4A82FB0312A2EBE37202EB42029A
:102FA0009A1A654B1A70654B00221A7095B1664BE0
:102FB0001B787BB1604991F900200132614B83FBA2
:102FC0000203A3EBE27303EB4303D31A0B705E4BD4
:102FD00000221A70C5B9594B1B78ABB1554B93F908
:102FE0000030002B53DD013B584A82FB0312D118FD
:102FF000DA17C2EB6112C2EB021291005A1A4D4B62
:103000001A704E4B00221A70002D62D14E4B1B7865
:10301000002B5ED0474890F9002001324B4B83FBD8
:1030200002139918D317C3EB6113C3EB0313990071
:10303000531A0370444B00221A704AE03B4B0022A3
:103040001A7001244AE025B10025384B00221A707D
:103050007AE70125F9E70022364B1978364B1878C4
:1030600000F0AAF840F21D520021084600F006F9CF
:1030700000F08AF87EE70233324A82FB0312A2EBA9
:10308000E37202EB42029A1A2B4B1A708BE73B3326
:103090002E4A82FB0312D118DA17C2EB6112C2EB7F
:1030A000021291005A1A234B1A70AAE7284B0022E9
:1030B0001A704FF4FC621F4B19781F4B187800F000
:1030C0007BF840F21D520021084600F0D7F800F0CE
:1030D00041F8002C3FF42EAF002CFAD01C4B1B788B
:1030E000DBB2032BE5D1134890F900200132174BD6
:1030F00083FB02139918D317C3EB6113C3EB0313BC
:103100009900531A5BB20370002BCFD10A4991F991
:1031100000200132A3F1AA3383FB0203A3EBE27385
:1031200003EB4303D31A0B70C0E700BF6C2A0008FF
:10313000682A00086E2A00086D2A00086B2A000819
:1031400030C90010565555556A2A00088988888864
:10315000692A000800B585B00023029340F21D5390
:103160000193064B0093064B1B88064A12883221B6
:103170004B20FFF7EBF905B05DF804FB78D60010A3
:103180007AD700107CD7001000B585B000230293D9
:103190000193064B0093064B1B88064A1288322186
:1031A0004B20FFF7D3F905B05DF804FB78D600108B
:1031B0007AD700107CD700102DE9F04385B0144673
:1031C0002B4BA3FB002C4FEADC02944602EB82025D
:1031D000A0EB4200C0B2A3FB0123DA08154602EBC4
:1031E0008202A1EB4201C9B2224A32F81CC0224B32
:1031F0009C4432F810701F44968A1E4432F81580A1
:10320000984432F811909944002502950194CDF824
:1032100000C02F23252278215020FFF797F902952F
:10322000019400972F23252278210846FFF78EF975
:103230000295019400962F2325227821A020FFF7E4
:1032400085F902950194CDF800802F23252278215D
:10325000C820FFF77BF902950194CDF800902F2349
:1032600025227821F020FFF771F905B0BDE8F08341
:10327000CDCCCCCC60D6001044CC00102DE9F0436E
:1032800085B014462C4BA3FB002C4FEADC0294467D
:1032900002EB8202A0EB4200C0B2A3FB0123DA08DA
:1032A000154602EB8202A1EB4201C9B2234A32F871
:1032B0001CC0234B9C4432F810701F44968A1E4455
:1032C00032F81580984432F81190994400250295FF
:1032D0000194CDF800C0172312223221C820FFF735
:1032E00035F9029501940097172312223221DC2030
:1032F000FFF72CF902950194009617231222322130
:10330000F020FFF723F902950194CDF800801723F0
:10331000122232214FF48270FFF718F902950194BE
:10332000CDF800901723122232214FF48C70FFF752
:103330000DF905B0BDE8F083CDCCCCCC2CCC001081
:1033400034C9001030B4474B1C6947480378013337
:10335000464981FB032505F0FC0202EBA50255005E
:103360005B1BDBB20370424D2A78013281FB020104
:1033700001F0FC0000EBA1014800121AD2B22A7041
:10338000A2B93C4A04211170A3B93B4B03221A7025
:1033900014F0080F12D1394A13780133DBB21370DD
:1033A000132B17D9364B02221A7013E0314A002131
:1033B0001170E9E7304B00221A70E9E72F4B1A78B9
:1033C000531EDBB2122B13D82E4B01221A702B4B3B
:1033D00000221A7014F0100F10D12B4A1378013309
:1033E000DBB21370132B15D9254B02221A7011E092
:1033F000132AECD9234B02221A70E8E7224B1A78E1
:10340000531EDBB2122B13D8204B01221A701E4B15
:1034100000221A7014F0200F10D11D4A13780133C6
:10342000DBB21370132B15D9154B02221A7011E061
:10343000132AECD9154B02221A70E8E7144B1A78BC
:10344000531EDBB2122B07D80D4B01221A70104B02
:1034500000221A7030BC7047132AF8D9084B022298
:103460001A70F4E700033140702A00086766666648
:103470006F2A0008682A0008692A0008712A0008D3
:103480006C2A00086A2A0008722A00086B2A0008C1
:10349000732A000830B583B0154B58600022FF2115
:1034A000144801F011FF00B101BE1149114801F0AB
:1034B00065FF00B101BE10490E4801F069FE00B180
:1034C00001BE0C4C04F1080500220C49284601F00D
:1034D00063FC0122009203232946204601F09CFC54
:1034E000204601F01BFF00B101BE03B030BD00BF9C
:1034F000FC220008742A000800E1F505453300109D
:1035000008B500F039F800F003F800F015F808BD30
:1035100008B50021084603F045FFFF2200210846B8
:1035200003F0B4FD0021084603F0FAFE014800F064
:1035300055FD08BD80D7001010B5094C094A062179
:10354000204602F05FFE084800F048FD074A0721C8
:10355000204602F057FE064800F040FD10BD00BFB7
:1035600000033140BCD70010F0D7001084D7001002
:10357000B8D70010FEE7000010B59621002004F037
:10358000F1FE012005F0FEF905F0A4F905F07EFA40
:1035900005F068FA0021084604F07AF8002003F0EC
:1035A000E5FF012003F0CAFF002003F077FF4A4B3C
:1035B0001B6893F83F4003E0204604F0DFFA013C2B
:1035C000002CF9D10021012004F0E8F8002004F0DB
:1035D0004DF8002869D004F095F90021084604F060
:1035E000DDF80021084604F021F8002003F0BEFFBA
:1035F000002003F0A3FF002003F050FF0021012072
:1036000004F0CCF80021084604F0C8F8002102209C
:1036100004F0C4F80021032004F0C0F800210420C5
:1036200004F0BCF82D4804F087F9002848D12C4854
:1036300004F032FA002846D10021084603F0F6FFD4
:103640000021084604F024F82649012004F0BCFAC1
:1036500000283BD142F21071012004F043FBC0BBB3
:1036600003F062FF002003F033FF002003F046FF69
:1036700003F050FF6421002004F074FE00F044F8D1
:1036800004F044F8002004F055F8174800F0A6FCB8
:10369000164800F0A3FC164800F0A0FC154800F006
:1036A0009DFC154800F09AFC10BD04F0A5F840F20E
:1036B000111398428FD10121002003F0B7FF8AE750
:1036C0000420FFF757FF0420FFF754FF0320FFF704
:1036D00051FF0320FFF74EFF782D0008F4D70010AC
:1036E000400D03001CD8001008D800100CD80010A2
:1036F00010D8001014D8001018D8001008B50120F8
:1037000002F0B0FF08BD704710B5002004F0F4FCD3
:1037100000B910BD0446114B186003F01DFF0130C5
:10372000B4FBF0F00E4B186003F02EFF0130B4FB39
:10373000F0F40C4B1C60013C0B4BA3FB04239B0CD3
:1037400001330A4A13700A4BA3FB04239B0901337C
:10375000084A1360DB03084A1360DAE71023000805
:10376000142300080C23000883DE1B4320230008D9
:10377000D34D62101C2300081823000808B509481F
:1037800002F08EFBFFF7BFFFFFF7BEFF00221146DE
:10379000032002F0BDFF044802F01EFE034802F0C1
:1037A00073FE08BD24E20010AC2A000824D80010E3
:1037B000EFF3108172B6074AD2F8883043F47003F1
:1037C000C2F88830BFF34F8FBFF36F8F81F310883B
:1037D000704700BF00ED00E008B5044804F044FF66
:1037E00008B1002008BD0248FCE700BF2423000800
:1037F0000000020610B500F0EFFB044628B144B10A
:10380000FFF77EFE5CB1204610BD01F03DF9044695
:10381000F5E740F6E441002001F07EF9F0E7FFF71C
:10382000DBFF0446EFE7000010B5FFF7E3FF00B150
:1038300001BEFEF7CDFD62B60E4806F017FA0E4C3B
:10384000204606F013FA0D4806F010FA0C490D4810
:1038500006F00CFA0C490D4806F008FA0C490D4820
:1038600006F004FA204606F001FAFFF741FBFFF7E5
:103870004FFBFEE758D8001064D800109CD8001009
:10388000B0D80010BCD80010CCD80010D8D8001088
:1038900040230008E8D800100230800803D001302F
:1038A0000238FCD100BF00BF7047EFF3108072B642
:1038B000704780F31088704701BE0148704700BF11
:1038C00002020204024B0B600723136000207047C2
:1038D000A423000808B5407804F00EFC08BD0000E1
:1038E00038B5054614468A4294BF0023012383421B
:1038F00009D080F001038A422CBF002101218B42B4
:1039000001D04DB138BD04F0DFFF0549A1FB043102
:10391000890C04F027FDF4E7FFF7F6FEF2E700BF9D
:1039200083DE1B432DE9F04104460A78A2F10D0322
:10393000DBB2012B04D90F2A2FD14E78013600E0DB
:103940004E78002003F0C4FE0746002003F08EFEF0
:1039500004F0B2FB20FA07F8304604F0ADFB20FA81
:1039600007F763786BB1F1B2607803F05FFE05464C
:1039700063789BB958B93A4641460020FFF7B0FF3B
:103980000CE03A4641460120FFF7AAFFEBE742462A
:1039900039460020FFF7A4FF00E0024D2846BDE8AD
:1039A000F08100BF01020204F8B50546013907297C
:1039B00035D8DFE801F004263406343434240026F8
:1039C00000E00226002003F083FE0746002003F0FB
:1039D0004DFE04F071FB20FA07F720FA06F46B782D
:1039E0008BB13146687803F053FE06466B78BBB95D
:1039F00078B9224639460020FFF772FF10E003260F
:103A0000E0E70126DEE7224639460120FFF768FF9E
:103A1000E7E73A4621460020FFF762FF00E0014E4B
:103A20003046F8BD0002020408B519B1407803F031
:103A3000B7FD08BD407803F0DDFDFAE708B5407832
:103A400003F0C6FD08BD00002DE9F84304460E460C
:103A50001546DDF82080DDF8249001279F404FEACD
:103A6000520C1CEB00004FF0000341F1000105F087
:103A7000C3FAC9F80000B84201D9C9F80070B8F11A
:103A8000000F19D0D9F8002000232046314605F058
:103A9000B3FA0246294698F8000002F061F90028BE
:103AA000B8BF4042B8F1000F08D0D8F804308342C4
:103AB00006D30020BDE8F8830020F3E70020F9E7F3
:103AC0000048F7E70002020408B590F800C01CF0B7
:103AD000020F06D14A1E41780CF0030003F0D6FA1B
:103AE00008BD00234A1E41780CF0030003F032FBAE
:103AF000F6E770B584B004460D46164604F00CFB9C
:103B00000146237813F0020F0ED013F0010F24D0DA
:103B10001D2303AA019200962A464801C90EFFF709
:103B200093FFE0B104B070BD13F0010F13D0102368
:103B300003AA019200962A4608460021FFF784FF57
:103B40000028EFD12078039A013A617800F0030051
:103B500003F09CFAE6E70823EAE71523D9E7039B7D
:103B60005A09207803F01F03013A617800F003003E
:103B700003F0F0FAD6E708B50378417803F00300C4
:103B800004F0E3FA08BD08B531B10378417803F0D9
:103B9000030003F0C5FB08BD0378417803F0030080
:103BA00003F000FCF7E708B50378417803F0030061
:103BB00003F02AFC08BD0000004870471CE000101C
:103BC0002DE9F04182B007460D469046084602F0C6
:103BD000F9F8C6B2002401E00134E4B2B44213D2D1
:103BE00005238DF804308DF805508DF8064001A8A6
:103BF00000F0F4F903460028EED13D707C700122FC
:103C0000BA70C7F8048000E0024B184602B0BDE865
:103C1000F08100BF020E020430B583B00C460546A9
:103C200078B184B105238DF8043023788DF8053000
:103C300063788DF8063001A800F0D0F928B103B000
:103C400030BD01BEEDE701BEECE7226863682A6083
:103C50006B600123AB70F2E708B5034648B11A78F0
:103C6000122A08D0032A0AD95A68126818469047BF
:103C700008BD01BEF3E71846FFF7E0FEF8E7184677
:103C8000FFF791FFF4E710B5034648B11878122802
:103C900008D003280AD9586844681846A04710BDC0
:103CA00001BEF3E71846FFF7BFFEF8E71846FFF737
:103CB0006AFFF4E710B5044668B12046FFF7CCFF71
:103CC00098B12378122B08D0032B0AD963689B681C
:103CD000204698470AE001BEEFE72046FFF7FAFDCD
:103CE00004E02046FFF747FF00E0002010BD10B5BC
:103CF000034648B11878122808D003280AD9586812
:103D0000C4681846A04710BD01BEF3E71846FFF788
:103D1000D3FDF8E71846FFF7ECFEF4E708B50346D5
:103D200048B11A78122A08D0032A0AD95A681269A7
:103D30001846904708BD01BEF3E71846FFF734FE6A
:103D4000F8E71846FFF7C0FEF4E710B582B0044666
:103D500090B1A37803B901BE05238DF80430237810
:103D60008DF8053063788DF8063001A800F07AF9F7
:103D70000023A37002B010BD01BEEAE708281CD8DA
:103D8000DFE800F00923051E0B0D0F1113000A20B8
:103D9000012917D07047082070470C20F8E70D2044
:103DA000F6E70E20F4E70F20F2E74B1EDBB2012B03
:103DB00001D90820ECE70E20EAE701BE0820E7E77A
:103DC0000B20E5E700F0070070470020E2E7000065
:103DD0002DE9F04387B00F4616461D462F4B1B7842
:103DE000FBB94FF0000C07E02D4C002344F82C30B9
:103DF0000CF1010C5FFA8CFCBCF10E0FF4D94FF002
:103E0000000C08E0264B03EB4C0300229A870CF1D0
:103E1000010C5FFA8CFCBCF1050FF3D91F4B01229A
:103E20001A700B238DF80830C4088DF8094000F093
:103E300007088DF80A80029BADF814301B0C8DF832
:103E40001630059BADF810301B0C8DF81230049B1A
:103E5000ADF80C301B0C8DF80E3003A800F0BEF846
:103E6000814618B1484607B0BDE8F0833946304670
:103E7000FFF784FF02460E2C0BD80A4B1B6898698B
:103E800000EBC410002300932B46414602F0D6F805
:103E9000E8E7044B1B689869F4E700BF342C00087E
:103EA00070290008782D000870B504280DD00D4643
:103EB000114602463C4C34F810E0441C1D2C07D837
:103EC000E4B2394E36F8144004E00D250520F0E741
:103ED00040F205144FF0010C0CFA02FC334A0CEAD4
:103EE00002023AB9AE44A3F800E01B88A34258D2BC
:103EF000002070BDC21E182A32D8DFE802F00D3152
:103F00003431310F25312931313131312B312D31DE
:103F100031313131312F2700254A00E0254A1C80FC
:103F2000002AE2D00338182836D8DFE800F01E3522
:103F30003835351E2F353135353535351E351E357D
:103F40003535353535331E001B4AE8E71B4AE6E7B1
:103F50001B4AE4E71B4AE2E71B4AE0E71B4ADEE7AD
:103F600001BE0022DBE71A4AD9E70126B542BCD2DE
:103F700032F81500704411FA80F11980691CB142C1
:103F8000B3DA32F811407444A4B2AEE70226EDE78A
:103F90001026EBE70226E9E701BE0026E6E71A262F
:103FA000E4E70C48A5E700BFCCE00010280B0A0CA2
:103FB0005CE0001094E0001098E00010C8E00010F1
:103FC0009CE00010BCE00010C0E00010C4E0001055
:103FD00060E00010000E020400207047F0B583B0CE
:103FE00004460027FFF761FC06460DF10603A278A0
:103FF00061782078FFF758FF054668B9BDF80630AC
:10400000C3F3C70203F007031449895C012202FAD3
:1040100003F3194218BF174605B9EFB92DB1304661
:10402000FFF747FC284603B0F0BD0DF10603A27868
:1040300061782078FFF738FF05460028EFD1BDF8FA
:104040000630C3F3C70103F00703044801229A4076
:10405000435C13434354E2E7014DE0E7382C00088A
:10406000010E020430B583B00446FFF71EFC05467E
:104070000DF10603A27861782078FFF715FF02465C
:1040800060B9BDF80630C3F3C70003F00703074C5F
:1040900001219940235C23EA0103235402B101BEAC
:1040A0002846FFF706FC03B030BD00BF382C0008DF
:1040B0002DE9F04F85B080460F46924601935D4B47
:1040C00033F81020431C1D2B12D8DBB2594931F8AC
:1040D0001390012303FA08F3DFF884B103EA0B0B12
:1040E000A9EB02091FFA89F900252E462C4617E094
:1040F00040F20519EDE70123BAF1000F08D031466F
:104100002046019B98479AF8001000F0C0F903463A
:10411000BBB9BBF1000F26D10134E4B20135ADB219
:104120004D4580F08180002FE5D0314620460E9B22
:1041300098470146388800F0AAF903460028E7D0DE
:10414000DAE78DF80C808DF80D408DF80E6003A82D
:10415000FFF744FF03460028DBD10F9A82F8008066
:104160005470967061E0A8F10303182B30D8DFE893
:1041700003F00D2F322F2F0F232F272F2F2F2F2F0D
:10418000292F2B2F2F2F2F2F2F2D25002A4A00E0EC
:104190002A4AA8F10303182B32D8DFE803F01E31B6
:1041A0003431311E2B312D31313131311E311E313F
:1041B00031313131312F1E00214AEAE7214AE8E747
:1041C000214AE6E7214AE4E7214AE2E7214AE0E71B
:1041D00001BE0022DDE7204ADBE70121631C08461F
:1041E0008B4204DA32F813106B1C99420DDD013654
:1041F000F6B293E70221F1E71021EFE70221EDE7A4
:1042000001BE0021EAE71A21E8E70134E4B2631CA9
:10421000984207DD32F8131032F814309942F4D086
:1042200000267BE7002679E70C4B184605B0BDE871
:10423000F08F00BFCCE000105CE0001094E00010B4
:1042400098E00010C8E000109CE00010BCE00010F6
:10425000C0E00010C4E0001060E00010020E020494
:10426000280B0A0C00B583B00191002100910B4688
:104270000A46FFF71DFF03B05DF804FB024600236A
:10428000184603B1704702B118460133DBB2F8E7B4
:1042900010B50446FFF7F2FF204610BD002001E0F4
:1042A0000130C0B2142805D8044B1B5C002BF7D09A
:1042B00040B270474FF0FF30704700BFD8D90010B0
:1042C00038B504460D46FFF7E9FF114B1B5D83B17E
:1042D000104B1A689368B2F870100B44201A103013
:1042E000B2F8721001FB00F000EB8501C858C0B2B3
:1042F00038BD084B1A689368B2F870100B44B2F8D6
:10430000720004FB00F000EB8500C058EFE700BF2F
:10431000D8D90010782D00082DE9F84304461E4630
:104320009DF820809DF82470224B1B5CC3B1411A7C
:10433000CCB22046FFF7ACFF46EA00262046FFF746
:104340009DFF46EA004040F0804040F4805027B195
:104350004246002104F010FD23E004F05BFD20E064
:104360001546FFF795FF4FEA002945EA002520464C
:10437000FFF784FF45EA004549EA060949EA004992
:1043800049F080417FB90C4B1A689368B2F87010FD
:104390000B44B2F8720000FB04F404EB8604002026
:1043A000E050BDE8F88343460022284604F088FC2C
:1043B000F7E700BFD8D90010782D00082DE9F047A5
:1043C00082B00C469046C0F3470600F00107FFF7A5
:1043D00065FF8146244B1D5D1B57002B04DB234BDF
:1043E00013F804A0002416E005F07F0555FA80F5C7
:1043F000EDB2F4E7B8F1010F14BF002301230193DC
:1044000000975346E2B25FFA89F12846FFF784FF2E
:1044100022E00134A4B22A46154B33F81530A342EA
:1044200019D9144B53F825301B5DB342F1D1124B0F
:104430009B5C1BB11FFA8AF3A34210D1B8F1020FA3
:1044400004D051462846FFF73BFF50B9B8F1000FA2
:10445000D0D1002000E0094802B0BDE8F08707484D
:10446000FAE70748F8E700BF68D9001048DF0010F6
:10447000B8DF001050230008D8D90010010D020445
:10448000000D020408B50222FFF798FF08BD08B529
:104490000022FFF793FFB0FA80F0400908BD00004A
:1044A00070B582B00D468378772B16D8DA08134999
:1044B00009688E6906EBC216C27803F00704009201
:1044C00001232A462146304601F0B8FD0A2D08D0C6
:1044D0000B2D0CD0002002B070BD084A12689669FE
:1044E000EAE701222146304601F002FEF2E700220F
:1044F0002146304601F0FCFDECE700BF782D0008B6
:1045000010B582B00146772810D8C308094A12684E
:10451000906900EBC310002400940123082201F0ED
:10452000070101F08BFD204602B010BD014B1B6856
:104530009869F0E7782D000800B583B0ADF8000069
:1045400001911146684603F063FE03B05DF804FB79
:10455000123820281CD8DFE800F0191B1B1B1B1B7E
:104560001B1B1B1B1B1B1B1B1B1B1B1B1B1B1B1B9B
:104570001B1B1B1B1B111E131B1517000020704754
:1045800002207047042070470520704706207047BE
:1045900001BE0020704701207047000038B5034677
:1045A000084850F82340084850F8235044B12DB132
:1045B000002318460BB92046A84738BD0123F8E769
:1045C0000123F6E7782C00085C2C00082DE9F04167
:1045D00005460E46084601F0AAFB074600244FF0A8
:1045E000010817E0022229463846FFF7D7FF0137B6
:1045F000FFB2BC42F6D8022E1AD0082E18D0012ED7
:1046000019D1B8F1000F16D00C4B01221A7012E02C
:104610000134E4B2062CEED83A4629462046FFF78C
:10462000BDFF80460028F3D1012EF1D10027E0E73D
:10463000024B00221A704046BDE8F081592C000858
:1046400008B5EFF30580103800B240F2FF3398420E
:1046500005D0FFF77DFF034B53F8200008BD002075
:10466000FCE700BF782C00082DE9F04383B08046BA
:104670000E4617469946002416E099F802206B78FA
:104680009A4201D0002325E0012323E017238DF86F
:104690000430735C8DF805306B788DF8063001A816
:1046A000FFF79CFCC8B10134BC421AD2A10006EB52
:1046B000840595F802C0C445F5D1B9F1000FE5D0E5
:1046C00099F80030172BE1D199F80120735C9A42D8
:1046D000D3D00023002BE6D004E001A8FFF7C2FCF2
:1046E00000E00025284603B0BDE8F0832DE9F04343
:1046F00083B007460D4616460024A14600E001346B
:10470000B44220D24FEA840805EB840393F802C038
:10471000BC45F4D117228DF8042015F824208DF81B
:1047200005205B788DF8063001A8FFF757FC0028BC
:10473000E5D101A8FFF796FC15F808200123934066
:1047400049EA0309DBE7484603B0BDE8F08300000F
:10475000014B1878704700BF592C000808B5124B60
:1047600043F82010114B43F8202000231A4601E0A3
:104770000133DBB2062B08D80B4850F82300002881
:10478000F6D0012A07D00132F2E72AB901B101BE01
:10479000074800F06DF908BD012AFCD10029FAD0C4
:1047A000034800F059F9F6E7782C00085C2C000863
:1047B000C02300082DE9F0410446884616461F46EE
:1047C00004E0012288F80020E2B1E46840F2897533
:1047D000AC4217D02568002DF7D094F804C036EA13
:1047E0000C03F2D1637937EA0303EED0A2683946AD
:1047F0003046A8470028E4D1012F01D00122E1E78B
:104800000022DFE72046BDE8F08170B504460D4682
:10481000164600E0E468AC420FD02368002BF9D0C4
:10482000217936EA0102F5D1627912F0020FF1D155
:10483000A268022130469847ECE770BD38B50546BE
:104840000C46FFF732F8E36813B1FFF732F838BDD2
:104850002B68E3602C60F8E738B504460D46FFF797
:1048600024F801E003F10C04236840F289729342BA
:1048700005D0AB42F6D1EB6823600023EB60FFF775
:1048800018F838BD2DE9F04182B00D4601F05BFA11
:10489000044601238DF80730022808D0082806D0E6
:1048A000102804D01A4B1E681A4B1F6803E0184BDF
:1048B0001F68184B1E6823462A460DF1070138462B
:1048C000FFF778FF80469DF8073063B930469DF8C2
:1048D00007300BB9012C0ED09DF80730B3B1002082
:1048E00002B0BDE8F08123462A460DF107013046AB
:1048F000FFF760FFEBE72A4601463046FFF785FFEA
:104900002A4641463846FFF780FFE5E70248E7E7D9
:10491000D4230008D0230008FF00420038B50C461D
:1049200010212046FFF7AEFF0546042C01D0284693
:1049300038BD002003F0E0FB0349A1FB0031890CE6
:10494000012003F00FFDF2E783DE1B4338B50C4670
:1049500008212046FFF796FF0546082C01D028467F
:1049600038BD002003F0C8FB0349A1FB0031890CCE
:10497000002003F0F7FCF2E783DE1B4308B508468E
:104980000421FFF77FFF08BD10B50446FFF77AFF4B
:10499000042C02D0082C17D010BD4FF0E0231B6967
:1049A00013F0010F04D00E4B1B7813B1012300E06C
:1049B00000230C4A1370002BEED04FF0E022136955
:1049C00023F001031361E7E7064B1B78002BE3D0CC
:1049D0004FF0E022136943F001031361DCE700BFED
:1049E000962C0008302D000808B50846012902D190
:1049F000044B1B881BB90221FFF7C6FF08BD024804
:104A0000FCE700BF942C0008FF00420008B50846F0
:104A10000121FFF7B9FF08BD38B584468E4615461B
:104A20000C4C0FCCCCF80000CCF80410CCF80820CB
:104A3000CCF80C3007CCCCF81000CCF81410CCF823
:104A40001820CCF800508CF804E0604603F00CFE0F
:104A500038BD00BF34E1001008B5014618B1034865
:104A6000FFF7ECFE08BD01BEF9E700BFD423000844
:104A700008B5014618B10348FFF7EEFE08BD01BEB8
:104A8000F9E700BFD423000808B503F0E3FF38B905
:104A9000164A00211648FFF7BFFF20B9154808BD88
:104AA00003F02CFEF4E7144A01211448FFF7B4FF89
:104AB00008B91048F3E7124A02211248FFF7ACFF89
:104AC00008B90C48EBE7104A03211048FFF7A4FF90
:104AD00008B90848E3E70E4A04210E48FFF79CFF97
:104AE00008B10020DBE70348D9E700BF0D4A0010FA
:104AF000102D0008011A0204E9490010A02C00083A
:104B00007D490010BC2C00084D490010F42C000811
:104B10001D490010D82C0008024600B101BE024B0E
:104B200043F82210704700BF2C2D000800230B2BE8
:104B300006D8054A52F8232022B90133DBB2F6E742
:104B40000020704701207047402D000830B4013923
:104B5000072900F29180DFE801F086048F2E8F8F05
:104B60008F5C474B00221A70012027E00120507013
:104B70000133DBB2434A02EB0112127B9A4210D995
:104B8000404A02EB0112527B1A443F4850F822205F
:104B9000002AEDD0D80128580028E7DB002050700B
:104BA000E6E70134E4B2012C07D821462301354A57
:104BB000D5580023DEE70024F5E7012030BC70471C
:104BC0000133DBB22F4A02EB0012127B9A4212D958
:104BD0002C4A02EB0012527B1A442B4951F8222036
:104BE000002AEDD05278002AEAD0D901625842F06A
:104BF00000426250E4E70CF1010C5FFA8CFCBCF15E
:104C0000010F09D860464FEA0C131E4AD4580023FE
:104C1000D8E74FF0000CF2E7194B00221A70012080
:104C2000CCE70132D2B2174B03EB01131B7B93424B
:104C300016D9144B03EB01135B7B1344124850F855
:104C40002330002BEDD058685C7A9B7A03EB042369
:104C500000EBC3135B6853EA0343E2D50020ADE7E2
:104C60000131C9B200E00021012901D80022DAE7B0
:104C70000120034B1870A1E701BE01209EE700BF91
:104C8000702D000850E10010402D0008EFF3058260
:104C9000103A1FFA82FC12B2002301E00133DBB2AA
:104CA000012B12D81C4901EB0311897B8A42F5DBE9
:104CB000194800EB0310007B08448242EEDA5FFAE9
:104CC0008CFCACEB0101C9B200E00021012B01D941
:104CD00001BE704770B5104A180102EB0313145857
:104CE0005B7B19440D4B53F821506A7AAB7A03EB86
:104CF000022304EBC313DE6F26B1EB6913B1314617
:104D0000286A98476A7AAB7A03EB022304EBC31450
:104D10002667236F70BD00BF50E10010402D0008D2
:104D200004280AD8DFE800F00B0B05030700022077
:104D30007047032070470520704701BE0020704770
:104D4000014B1878704700BF702D000810B504465D
:104D5000002306E003F11402002124F812100133AD
:104D6000DBB2042BF6D9FFF7E1FE50B1627A074BB4
:104D700003EB02135B7BA27A1344054A42F82340FB
:104D800010BD0448FFF768FEF0E700BF50E10010D7
:104D9000402D0008D82300082DE9F041054688463B
:104DA00017464378184E06EB03135C7B83781C444C
:104DB000E4B2FEF77AFD154B53F82430C3F81C809B
:104DC0001F62FEF776FD6B7806EB0316B47BAB78BB
:104DD000E5186A090E4B53F8223005F01F02D34044
:104DE00013F0010F0ED12C460A4A03212846FFF783
:104DF000A3FB05F01F056409012303FA05F5044B25
:104E000043F82450BDE8F08150E10010402D000827
:104E100000E100E08D4C00102DE9F0419DF81850A4
:104E200046684C7891F802C04CEA042C4FEA1C28E2
:104E30005FFA8CFE0CF47F4CF44406EBCC1CDCF8DF
:104E400078403DB122EA04070EEB082E06EBCE16A1
:104E50003767366F40684E7891F802C04CEA062CEE
:104E6000A5B1144300EBCC1294674878094A02EBD1
:104E70000012927B89780A445901C9B202F1604359
:104E800003F5614383F80013BDE8F08124EA0204CE
:104E9000E8E700BF50E1001001F14B00C0B27047DD
:104EA00070B504460E461546407A042A00F29080FA
:104EB000DFE802F00328415B7500626800F0030C34
:104EC000A37A03EB0C2302EBC312936CDBB2916C5D
:104ED00021F0FF0191646268A17A01EB0C2C02EBD6
:104EE000CC12D16C21F44071D164033BD9B2FFF7ED
:104EF000D3FF01463046FFF7C5FA10B9143524F840
:104F0000150070BD626800F0030CA37A03EB0C235C
:104F100002EBC312536C1B0E516C21F07F415164A4
:104F20006268A17A01EB0C2C02EBCC12D16C21F05F
:104F3000C001D164D9E7626800F0030CA37A03EBE7
:104F40000C2302EBC312536CC3F30743516C21F4DF
:104F50007F0151646268A17A01EB0C2C02EBCC1248
:104F6000D16C21F03001D164BFE7626800F0030C1E
:104F7000A37A03EB0C2302EBC312536CC3F3072396
:104F8000516C21F47F4151646268A17A01EB0C2CD1
:104F900002EBCC12D16C21F00C01D164A5E7626860
:104FA00000F0030CA37A03EB0C2302EBC312536C47
:104FB000DBB2516C21F0FF0151646268A17A01EB10
:104FC0000C2C02EBCC12D16C21F00301D1648CE7E4
:104FD000004896E70022020470B50446457A867AB6
:104FE0000846FFF79DFE2B4B03EB051393F80DC00E
:104FF000B4445FFA8CFC626805F00301A37A03EB0A
:10500000012502EBC5156D6D05F00705854223D01E
:1050100003EB012502EBC5156D6DC5F30215A84222
:1050200035D103EB012302EBC3135A6D22F070025A
:105030005A656368A27A02EB012103EBC1114B6D43
:1050400043F070034B65144A12F80C3023F002034E
:1050500002F80C30002070BD03EB012302EBC313F8
:105060005A6D22F007025A656368A27A02EB0121A9
:1050700003EBC1114B6D43F007034B65064A12F871
:105080000C3023F0010302F80C300020E3E7034862
:10509000E1E700BF50E10010342D000800220204B7
:1050A00038B5054630B36A7A354B03EB02139B7B68
:1050B000A97A5A1802F01F01530901228A402033AD
:1050C000304941F82320BFF34F8FBFF36F8F6B68D8
:1050D000002B3ED06A7A2A4B03EB02135B7BAA7A41
:1050E0001344294A002142F82310FFF71FFD18B18D
:1050F00000240BE001BED6E72448FFF7B9FCF7E730
:1051000021462846FFF768FF0134E4B2042CF7D9A2
:10511000002401E00134E4B2042C0AD804F11403A1
:1051200035F813100029F5D022462846FFF7B8FEBF
:10513000F0E769686A7AAB7A03EB0223DB01CA58AD
:1051400022F00042CA502B7833B100236B601E233B
:105150002B722B7D2BB938BD05F10800FEF782FFBD
:10516000F3E7287B697B00F0030002F01BF900B134
:1051700001BE05F10C00FEF7E8FD00232B75EAE700
:1051800050E1001000E100E0402D0008D8230008A5
:10519000F0B583B004460E46037D53B10025154B90
:1051A00093E8030002AB03E9030025B1284603B0EE
:1051B000F0BD114DF3E704F10C070022114638460B
:1051C000FEF761FD08B10D4DF0E76A4631463846FD
:1051D000FEF78DFD08B1094DE8E7002201213846B0
:1051E000FEF751FD08B1054DE0E73846FEF762FDD8
:1051F000A061DBE770E10010031D0204011D020441
:10520000F8B504460E4600F10801437A2B481D010B
:1052100000EB0313405960601879A37A1844C7B2B1
:10522000EAB104F10C03D2E9000183E80300184657
:10523000FEF740FDA061217B627B01F0030138464F
:1052400002F032F850BB617AA37A324643EA012178
:10525000606803F025FC054615B32846F8BD012318
:105260001A4604F10C0000F0C9FD054610B1002DEE
:10527000F2D1E8E70123237511492046FFF788FFA3
:1052800005460028F3D1217B627B01F003013846FB
:1052900002F00AF80028EAD00A4DDDE7094DDBE705
:1052A0002046FFF753FD6168627AA37A03EB02237D
:1052B000DB01CA5842F00042CA50CEE750E100106C
:1052C00040420F00011D020470B51446064620B18D
:1052D000FF2904D00F4D284670BD01BEF8E73822E3
:1052E0000021304604F04EF831461E2301F8083FF5
:1052F0001A20FEF7B7FF054628B1002DEBD0304647
:10530000FFF7CEFEE7E7224603493046FFF778FF76
:105310000546F2E7001D020478E1001010B50446CE
:10532000B0B1FFF70DFDA8B96168627AA37A03EB0B
:105330000223DB01CA5842F00042CA506368617A16
:10534000A27A02EB012203EBC21310221A6410BDF1
:1053500001BEE6E70048FAE7031A0204034650B12B
:105360005A68587A596B9B7A03EB002302EBC313FC
:1053700099600020704701BEF2E7000070B59AB056
:1053800004460D46CB68436368222849684603F00B
:10539000EBFF6B680093AB6805932B7883F00103F8
:1053A0000293AB785BB1002304936B78012B08D098
:1053B000022B08D0002B36D001BE002304E00223CC
:1053C000F2E7012300E0032303936068657AA17A82
:1053D00001EB052300EBC3139E6F6A4641EA0521EA
:1053E00003F044FC617AA37A6A4643EA01216068CB
:1053F00003F056FB05466168627AA37A03EB022349
:10540000DB01CA5842F00042CA506368617AA27A4E
:1054100002EB012203EBC2139E672046FFF79EFFBB
:1054200028461AB070BD0023CEE700BF78E1001017
:10543000012803D0022803D10320704702207047BF
:10544000002070470138032809D8DFE800F0020B7C
:10545000040602207047062070470820704701BEEE
:105460000220704704207047814206D9091A64233C
:1054700003FB01F1B1FBF0F07047411A642303FB19
:1054800001F1B1FBF0F070472DE9F04F87B0044611
:105490000D46174698469DF840901E230371002341
:1054A0004373FF23C371037243728372994218D00E
:1054B000FF2F1AD0FF2D02D1FF2F00F0E380FEF75F
:1054C000F4F98246FF2D15D14FF0FF36FF2F18D18A
:1054D000B8F1FF0F1CD1B9F1FF0F20D136B3002373
:1054E0002BE09945E4D0684EA9E0B8F1FF0FE1D078
:1054F000654EA4E0082265492846FFF7F7F80646FE
:10550000E4E7082262493846FFF7F0F80640DFE793
:10551000062260494046FFF7E9F80640DBE706222D
:105520005D494846FFF7E2F80640D7E75046FEF7E8
:10553000C0F9554E83E00133DBB226FA03F212F0D4
:10554000010FF8D017228DF814208DF815300023A4
:105550008DF8163005AB08224C492846FFF784F831
:10556000834605AB08224A493846FFF77DF802908A
:1055700005AB062247494046FFF776F8019005AB98
:10558000062245494846FFF76FF80390FF2D02D0E9
:10559000BBF1000F0DD0FF2F01D0029B4BB1B8F132
:1055A000FF0F01D0019B23B1B9F1FF0F02D0039B84
:1055B00003B901BE05A8FEF711FD06465046FEF7E9
:1055C00078F9002E3BD1059BA3801B0CA371FF2D06
:1055D00039D10EB9FF2F3FD15EB9019B4BB10821E4
:1055E000184600F048FB064618B90123E37284F818
:1055F00009805EB9039B4BB10621184600F03BFBC6
:10560000064618B90123237384F80A9056B9119BF2
:105610005BB30023637304F11003119A92E8030053
:1056200083E803005EB96079022801D90138C0B26D
:10563000217C627C01F0030101F036FE0646304613
:1056400007B0BDE8F08F0621584600F014FB06466F
:105650000028BED12572BCE70821029800F00BFBA0
:1056600006460028B8D1E771B6E701231A46211D86
:1056700004F1100000F0C2FB0646B0FA80F35B09AB
:105680006373CFE7004EDAE7001F020448D9001029
:1056900028D90010F8D8001010D900102DE9F843CF
:1056A0000446037AFF2B0CD0D908772B05D84C4839
:1056B0000068866906EBC11604E0494909688E69ED
:1056C00000E00026A17AFF290ED0207BD0B1C808C7
:1056D000772905D8424D2D68AF6907EBC01704E064
:1056E0003F480068876900E0002703F0070501F0E4
:1056F0000708013A072A65D8DFE802F0064F646818
:105700006464644F0027F0E7A14659F8180B494636
:1057100001F028FC10F0010F01D0002054E04946B0
:10572000206801F01DFC10F0010F51D12168D1F863
:105730000832C3F30803D1F80822C2F3C032D342BF
:1057400048D1D1F80833C3F30803002B44D176B114
:105750002946304600F0ACFC84F8980029463046D3
:1057600000F0D4FC00222946304600F02FFC77B12F
:105770004146384600F09CFC84F899004146384682
:1057800000F0C4FC00224146384600F01FFC4946A8
:10579000206801F041FB012016E02268136843F005
:1057A000004313602EB194F898202946304600F04B
:1057B0000DFC9FB194F899204146384600F006FC54
:1057C000012001E001BE0020BDE8F8830120FBE7D5
:1057D0000020F9E70020F7E70020F5E70120F3E7D4
:1057E000782D0008F8B5314D2E68FEF729FF2860A6
:1057F000002859D00446014651F8180BD0F88C5FA8
:10580000D0F8CC7F01F0B0FB15F0200F09D0236851
:105810002022C3F8802FD3F8803FE36C0BB11046F1
:10582000984715F0400F09D023684022C3F8802F15
:10583000D3F8803FE36C0BB12020984715F0010F9F
:1058400004D0E36C13B14FF48070984715F4007FD7
:1058500013D023684FF40072C3F8802FD3F8803F31
:105860002268D2F8883F43F4007123F4EE6323F0FA
:10587000030303B101BEC2F8881F17F0400F09D01F
:1058800023684022C3F8C02FD3F8C03FE36C0BB1AC
:105890001020984717F0010F04D0E36C13B14FF4B8
:1058A00000709847014B1E60F8BD00BF742D0008C2
:1058B00038B50C46154602F02FFC05FB04F4B0FB8E
:1058C000F4F038BD2DE9F84380460E460824FF2742
:1058D000A14601E00134E4B2102C15D806FB04F512
:1058E00002F01AFC00EB55012246B1FBF5F14046EF
:1058F000FFF7DEFF01463046FFF7B6FDC0B2874234
:10590000E8D90746A146E5E74846BDE8F883000028
:1059100070B5044642791A4B53F82200214641F8EB
:10592000540B04F1180201F0C7F8054608B12846E7
:1059300070BD0023C4F89C30C4F8A030C4F8943083
:105940006379104E104A032136F91300FEF7F4FD77
:10595000637936F91330002B07DB03F01F015B0975
:1059600001228A40094941F82320094A21466079E9
:10597000FEF7F4FE2268136843F000431360D6E795
:1059800008E1001024E10010E557001000E100E0FC
:105990009D56001010B5044688B1206840B104F14E
:1059A000180101F039FA206801F012FA002323608F
:1059B00023791E2B05D194F8A43023B310BD01BE6A
:1059C000EBE762791B4B33F91230002B0CDB03F051
:1059D0001F015B0901228A402033174941F8232027
:1059E000BFF34F8FBFF36F8F002211466079FEF730
:1059F000B5FE94F8A43013B11E232371DBE7201DFC
:105A0000FEF730FBF8E7E01D00F02AF904F108008A
:105A100000F026F904F10A0000F022F904F109006F
:105A200000F01EF9637B002BC8D004F11000FEF7D4
:105A30008CF9C3E724E1001000E100E0437B0BB9DF
:105A4000334870472DE9F04704460E469046054618
:105A5000002155F8100B01F0DFF90022114628460D
:105A6000FEF711F930B12268136843F00043136068
:105A7000BDE8F08704F1040931464846FFF722FFEC
:105A80000746A06500FB06F602F046FB00EB560059
:105A9000B0FBF6F631462846FEF740F9824640BB99
:105AA0003A4631464846FFF703FFB8F1000F01D0F0
:105AB000C8F80000002201212846FEF7E4F894F817
:105AC000703013B34FF48033E26D082A01D84FF4DD
:105AD000006A43EA0A03013F07F00F071F432368E8
:105AE00047F000771F602268136843F0004313609B
:105AF000BEE7002201212846FEF7C5F82268136898
:105B000043F0004313605046B2E75346DCE700BF62
:105B1000061F0204F8B506460F461546FEF718FEA6
:105B2000A8B93368D3F840332C4602E03368D3F881
:105B30004033B3F1FF3F07D1002DF7D04CB1012026
:105B400002F09AFB013CF1E73B700020F8BD0248EF
:105B5000FCE70248FAE700BF031A0204021F02042E
:105B600038B504460D46FEF7F3FD28B1044806E0BB
:105B70002946206800F091FE0028F9D0002038BDA9
:105B8000031A020408B5034630B139B153F8180BB3
:105B900001F04EF9002008BD01BEF6E701BEF5E7B1
:105BA0002DE9F04182B00C46164698460A9F0546FC
:105BB000002844D0A8220021284603F0E3FB099BDB
:105BC00001939DF8203000934346324621462846F3
:105BD000FFF75AFC044618BB05F1540C1F4C0FCCC0
:105BE000ACE80F000FCCACE80F000FCCACE80F0016
:105BF00094E80F008CE80F00EB7A85F874305FB101
:105C00003B68EB653879FFF71DFC85F86100387A51
:105C1000FFF70EFC85F862002846FFF779FE044680
:105C200044B92FB1F96819B13A692846FFF7AAFFBC
:105C30006B7B33B96CB9204602B0BDE8F08101BE80
:105C4000B8E700224FF4E1312846FFF7F7FE04469B
:105C5000F0E72846FFF79EFEEDE700BFE0E1001009
:105C600010B504460078FF2800D110BD00F037F8C9
:105C7000FF232370F9E770B584B004460D4683789E
:105C80000B228DF80020DA088DF8012003F00703BD
:105C90008DF80230009BADF80C301B0C8DF80E30E7
:105CA000039BADF808301B0C8DF80A30029BADF851
:105CB00004301B0C8DF8063001A8FEF78FF906465C
:105CC00010B1304604B070BD29462046FEF7E8FB0F
:105CD00006460028F5D001A8FEF7C4F9F1E710B593
:105CE00084B00446FEF70CFC00B101BE0B238DF816
:105CF0000030E3088DF8013004F007048DF802400D
:105D0000009BADF80C301B0C8DF80E30039BADF8EA
:105D100008301B0C8DF80A30029BADF804301B0CC8
:105D20008DF8063001A8FEF79DF904B010BD431EA2
:105D3000072B05D8DFE803F0060604060404040672
:105D400001BE01207047431E072B05D8DFE803F092
:105D5000060604060404040601BE01207047000084
:105D6000012807D002280DD010B101BE00207047D5
:105D7000881A7047A1EB020C114A02FB0CFC9CFB39
:105D8000F1F0704738B50023B1EB020C63EB03046C
:105D90001CEB0C0044EB040210EB0C0044EB020281
:105DA0004FEA421E4EEAD06E4501401942EB0E0EFC
:105DB00010EB0C000A4644EB0E0103F0CDF838BDA1
:105DC00040420F00122815D8DFE800F00A160C0E2A
:105DD00014141414141414141412141014140A00A7
:105DE000042070470220704701207047012070474F
:105DF0000520704701207047082070472DE9F043C7
:105E000083B0054616461F460B4651B11978152931
:105E100009D01D2914D0052919D00024A1461B48FA
:105E200027E001BEF2E71A4B93E8030002AB03E957
:105E3000030069462846FDF7EFFE03B0BDE8F08396
:105E4000144B93E8030002AB03E90300F1E701BE42
:105E50001148F2E74FF00109B5B1FDF7ADFE02467A
:105E600041462846FDF7ACFE0028E6D0002FE4D0DE
:105E70000134032CE1D8094B13F804804645E9D0DE
:105E8000B9F1000FF4D0E7E701BEE6E7020E020425
:105E9000F4DF0010FCDF00100202020420E2001018
:105EA000014B1860704700BF782D0008B0F1204FFB
:105EB0003CD018D880283BD007D9B0F5807F3FD0A0
:105EC000244B984209D024487047102832D04028EB
:105ED00001D12248704700282ED170474FF4A4000A
:105EE00070471D4870471E4B98422BD02DD31D4B39
:105EF00098422CD8B0F1704F12D900F1805001387F
:105F00000428EED801A353F820F000BFDD5E001096
:105F1000E35E00103D5F0010255F0010295F001058
:105F20000D48704710487047104870470020704770
:105F30000F4870470F487047074870470E48704732
:105F4000044870474FF4A000704703487047024868
:105F5000C3E700BF06005200FF00520002005000DD
:105F6000090000A0050000F00200520003005200EA
:105F700005005200010050000100520010B5104B06
:105F80001B6893F83330012B00D801BE0C4B1C6802
:105F9000236AB4F8BA201344D4F8BC20D358002B99
:105FA0000BDB084B1868FFF781FF636801229A60DA
:105FB00063689B68002BFBD110BD0348FCE700BF62
:105FC000782D00087C2D00080200500010B507292C
:105FD00000D901BE32F01F0300D001BE164B1B6872
:105FE0009C69001BC0095B694FEA001C03EB0010B1
:105FF000032910D853F80C00C9004FF01F0E0EFAF9
:1060000001FE20EA0E0002F01F0202FA01F1014334
:1060100043F80C1010BD04394368C9004FF01F0C41
:106020000CFA01FC23EA0C0302F01F0202FA01F150
:1060300019434160EEE700BF782D0008F8B5074628
:106040000D4614461E469DF81820072900D901BEAA
:1060500034F00F0303D1012C01D0092C00D101BE73
:10606000012E00D901BE32F01F0300D001BE294627
:106070003846FFF7ABFF3B680122AA4023EA020340
:1060800006F00106AE401E433E60084B1B6893F8C5
:106090008110CB59AD000F22AA4023EA020304F07D
:1060A0000F04AC401C43CC51F8BD00BF782D000854
:1060B000072900D901BE0D4B1B689A69801AC009D7
:1060C0005B69020103EB0010032906D89858C90048
:1060D00020FA01F101F01F00704704394068C9003F
:1060E00020FA01F101F01F00704700BF782D000871
:1060F000072900D901BE012A00D901BE012303FAF4
:1061000001F10AB94160704781607047072900D9E1
:1061100001BE012303FA01F18160704700B5072930
:1061200000D901BE32F00F0303D1012A01D0092AA0
:1061300000D101BE89000A4B1B6893F881E05EF82C
:1061400000304FF00F0C0CFA01FC23EA0C0302F0B4
:106150000F028A401A434EF800205DF804FB00BF8E
:10616000782D000800B5072900D901BE012A00D901
:1061700001BE0A4B1B6893F882E05EF800304FF0D6
:10618000010C0CFA01FC23EA0C0302F001028A4024
:106190001A434EF800205DF804FB00BF782D00087C
:1061A000082900D901BE012A00D901BE83694FF038
:1061B000010C0CFA01FC23EA0C0302F001028A40F4
:1061C0001A4382617047000000B5082900D901BE5A
:1061D000032A00D901BE4900094B1B6893F880E0EF
:1061E0005EF800304FF0030C0CFA01FC23EA0C03BC
:1061F00002F003028A401A434EF800205DF804FBC7
:10620000782D0008002800F0A280F8B50D4614464D
:106210000646002A00F09D80072900D901BE2368A8
:10622000012B00D901BE636833F00F0203D1012BAB
:1062300001D0092B00D101BE237A33F01F0300D017
:1062400001BEE368032B00D901BE2369012B00D9ED
:1062500001BE6369012B00D901BE236A012B00D95D
:1062600001BE636A012B00D901BEA36A012B00D9CC
:1062700001BEE36A032B00D901BE236B072B00D9B3
:1062800001BEE369032B00D901BEA369012B00D92C
