:020000041000EA
:1000000000200008EB0000100D0000004D01001062
:1000100000000000000000000000000000000000E0
:100020000000000000000000000000004901001076
:10003000000000000000000049010010490100100C
:100040004901001049010010490100104901001048
:100050004901001049010010490100104901001038
:100060004901001049010010490100104901001028
:100070004901001049010010490100104901001018
:1000800010B5064C2378002B07D1054B002B02D06E
:10009000044800E000BF0123237010BDB003000836
:1000A000000000000C150010044B10B5002B03D00D
:1000B0000349044800E000BF10BDC0460000000036
:1000C000B40300080C1500100230800803D0013082
:1000D0000238FCD1C046C0467047EFF3108072B6BC
:1000E000704780F3108870477047FFF7FDFF72B6C6
:1000F0000F4C104DAC4209DA21686268A368043BDA
:1001000002DBC858D050FAE70C34F3E70A490B4A2F
:100110000020521A02DD043A8850FCDC08480949E4
:100120000860BFF34F8F00F0F9FE00F0A9FEFEE774
:100130001815001030150010B0030008C80500089D
:100140000000000808ED00E0FEE7FEE700B504202F
:100150007146084202D0EFF3098002E0EFF3088015
:10016000043000F08DFCFEE7014B18607047C0467C
:10017000C4050008044B1B681A00BA3212881B6AB7
:100180005043C0187047C046C40500081D4B984234
:100190000FD010D840282FD005D8002830D01028F4
:1001A00028D019481EE0802828D080235B00984280
:1001B000F7D1144816E0154B984214D008D8A02364
:1001C0001B0698421CD0124B9842EAD1A0200BE0AB
:1001D000104B98420AD0104B984209D00F4B9842CE
:1001E000DFD10F487047A420C003FBE70D48F9E7B3
:1001F0000D48F7E70D48F5E70D48F3E70D48F1E73F
:100200000020EFE706005200FF005200010000F05E
:10021000090000A0040000F0050000F0030000F059
:100220000100520002005200030052000100500081
:10023000020050000500520010B50020FFF79AFFA1
:100240000A4B1C682300BC331B68C0180368002BD2
:100250000ADB074B1868FFF799FF012263689A6071
:100260009A68002AFCD110BD0248FCE7C4050008CA
:10027000CC03000802005000064B1B68BC331B680F
:10028000C3181B68002B03DA89B241600020704755
:100290000148FCE7C405000801008A000368002B40
:1002A00004DA89B2C2608160002070470048FCE730
:1002B00001008A00064B1B68BC331B68C3181B680F
:1002C000002B03DAC36800200B6070470148FCE78D
:1002D000C405000801008A00024B1A68002A00D1F8
:1002E00018607047E0030008F0B52C246043154CFB
:1002F0001F0024681D0A2018FF2425402740124CA7
:100300001B0C26680760346A45608360BA363688FD
:1003100077433F1907612F0080376D017F01E7198F
:1003200064190A4D47611F043B436419236000238D
:100330008361059BC2610162002B01D01B88838110
:10034000F0BDC046E0030008C40500080810000026
:10035000F0B5836885B002AD2B800368066A173359
:100360006B804368476A0095826AC16A0400039300
:100370000369C068FFF7B8FF00213B000A00009145
:100380003000FFF7B1FF216B280000F02DFB0022A9
:10039000AB5E002B06DB1F2213401E3A9A4013006F
:1003A000014A136005B0F0BD00E100E0F7B52C256F
:1003B000134C684326686943341825690193711802
:1003C000002D19D08869002818D12E68002E15DA62
:1003D0006768012426004B689E40B44613689EB2AD
:1003E00063461B041E431660EA608C61BC40019B9F
:1003F000A4B24B62AC60FEBD0248FCE70248FAE7DB
:10040000E003000804028A0007028A0073B5002690
:1004100042690400D56801962B0CB34221D01B041D
:1004200013601368194B00691B68BC331B68C31841
:100430001B68B34215DA01A9FFF73CFFB0420CD1AB
:100440000198E26903681E0CDBB29A4205D9226A60
:100450009B009B58002B00D0984731002069FFF784
:100460000BFFADB2002D09D063691D6000251B682C
:10047000636AAB4205D098476562A56163691B68F2
:1004800073BDA36A002BF8D09847F6E7C4050008AF
:100490002C2310B54343034A1068C018FFF7B6FF7A
:1004A00010BDC046E0030008F8B5194B0F001B68EB
:1004B0001A0033321278824227D9002925D01F250D
:1004C0000A68154021D11900BA310C88114E6043D9
:1004D0001C6AD208041929007868346000F07EFF95
:1004E00029002000FFF7C8FE3A0029003068FFF716
:1004F000D5FE041E07D101003068FFF7BDFE0300E2
:100500002000002B00D00448F8BD0448FCE7C0469A
:10051000C4050008E403000801018A0003018A0001
:1005200010B5002A0DD1002914D10B4B1A68130005
:10053000BA331B885843136AC018084B1860080068
:1005400010BD002906D0064B196019005A60FFF74C
:10055000ABFFF5E70348F3E7C4050008E403000830
:100560007803000803018A00F7B5184F04003B68C0
:100570000191DE683368834226D90025A94202D161
:10058000FFF7ABFD050038680368002B1ADA1F225D
:1005900001232240934064097268A4001419226860
:1005A00013420DD09A43226000240021FFF764FE1D
:1005B000019B002B02D12800FFF793FD2000FEBD18
:1005C000034CF2E7034CF3E7034CF7E7E4030008BE
:1005D000020188000301880004018A000A4B1B689D
:1005E000DB681A6882420DD959681F2342091840F6
:1005F0001E3B8340920050581840431E9841034BC5
:10060000C01870470248FCE7E403000800018800B6
:1006100004018A00054B1B681A0088321B681268A7
:100620009B181868000AC0B27047C046C40500088D
:10063000044B1B681A0088321B6812689B181868E4
:10064000000E7047C4050008024B18694007C00F30
:100650007047C04600002740A6220549D2008B58AB
:100660000220DB439B0702D00123885818407047C3
:100670000000264010B5FFF7EFFF0023022801D14C
:10068000014B1B68180010BDEC030008094A8300E9
:100690009B18D0229200985807221040042807D1B6
:1006A000C022920098581F23034080204000184326
:1006B0007047C0460000264010B5FFF7E7FF02284C
:1006C0001CD005D8002824D0012814D0002014E024
:1006D0001223FF33984214D01423FF33984215D0CD
:1006E000033B9842F2D10C4A0C4BD358002BEDDA65
:1006F0008020000201E00A4B186810BDFFF7BAFF26
:10070000FBE7FFF7A1FF0028E0D0F1E7024A054B25
:10071000EBE70548F1E7C046000026400C05000065
:10072000E80300083C05000000127A00B023154AD7
:10073000DB00D35810B59903DB01DB0F890BC371C4
:10074000114B0160D3580F24D904DB01DB0D038169
:10075000B123DB00D358C90C81801900214081727C
:1007600019092140C172D9029B009B0F8373074B6B
:10077000C90CD35881815A05DB01520FDB0D827100
:10078000038210BD00002640840500008C05000097
:1007900010B5104B421E1B683F331B78934216D98D
:1007A0007F221F248030FF300B4B8000C3581A403B
:1007B0000A701A0C2240180A8A701A012040E2407E
:1007C000487000209B009B0FCA700B7110BD03483E
:1007D000FCE7C046C40500080000264001004A00AE
:1007E000F0B589B003AC14220021200000F0F6FD22
:1007F0002000FFF79BFFB0231A4ADB00D2580023EA
:100800009A4203DAA37B023B5A1E9341E579002604
:100810006A1E95410135B34221D0A488B4421ED04E
:10082000039B30000193FFF747FF2A0033000700C6
:100830003100200000F0BCFC0C0005003300019AE0
:100840003100380000F0B4FCE6076A083243630860
:10085000801859412A00230000F08AFC060030006D
:1008600009B0F0BD00002640F0B50026244B85B04D
:100870001B6807003F331B78B3423ED0B0423CD0E8
:1008800083423AD30522310002A800F0A7FD02A955
:100890003800FFF77DFF3B008033FF33194A9B0090
:1008A0009B58B34229DA02AB1B79022B25D002AB4D
:1008B0005C78B44221D09D78B5421ED01B783800B8
:1008C0000193FFF7F9FE2A003300070031002000F2
:1008D00000F06EFC0C0005003300019A3100380076
:1008E00000F066FCE6076A08324363088018594145
:1008F0002A00230000F03CFC0600300005B0F0BDEB
:10090000C40500080000264010B5041E04D1FFF7FE
:1009100067FF002806D008E0064B1B683F331B78B2
:10092000834203D22000FFF7C7FE10BDFFF79CFFF4
:10093000EFE7C046C4050008E02210B50124094BCA
:1009400080009200C018835880589B069B0F9C40E3
:100950000F231840FFF7D8FF63081818210000F094
:100960007BFB10BD00002640144B30B51A680724ED
:1009700013002C331B781F2B15D883081D00A543AB
:100980002C1E0FD103342040A040814012689B00F0
:100990002032D3180A00FF2181401C6862401140B8
:1009A0006140196030BD802320401B06184380231E
:1009B0009B011268C91889008850F3E7C405000834
:1009C000064B9A680300064810339B00824202D10E
:1009D000985899507047034AD058FBE700ED00E063
:1009E0000000000800000010F8B506000D00002807
:1009F0003AD00023C05E002828DB7188FFF7B4FFDF
:100A00000024FF22032794460023F05E716883B21E
:100A10001F40FF006646BA4089013140D243B940C9
:100A2000002815DB114E83089B009B19C026B600D9
:100A30009F593A40114399510D4B9A680D4B9A4278
:100A400002D12900FFF7BCFF2000F8BD0A4CD8E70F
:100A50000F263340083B064E9B089B009B19DE691E
:100A600032401143D961E7E7034CEDE700E100E0D4
:100A700000ED00E00000000801005600FEE7000065
:100A800002680A4B10B51A6042685A6082689A6020
:100A9000C268DA6002691A6142695A6182699A61C0
:100AA000C269DA61FFF7EAFF10BDC0469003000893
:100AB000B0235B055A782120002A01D05878C0B2B3
:100AC0007047B0235B059A89002A02D0988980B2CA
:100AD000704780204000FBE77FB5274B86000D0064
:100AE000F458042901D0012927D100200FE0A36880
:100AF0002B420BD1E36829001A685B6802920193CC
:100B0000039302A8236898471C4B1C606469002C5F
:100B10000BD01B4B9842EAD1012DE8D1174B184856
:100B20001A68184B9A5104B070BD012DFBD1144BBB
:100B30009842F3D0134B9C51F5E7022906D10F4B95
:100B40001B68181EEFD01C6903E01C006369002BB2
:100B5000FBD10020002CE6D0A3682B4209D1E3682A
:100B600029001A685B6802920193039302A8236824
:100B700098472469EEE7C046300400082C040008BA
:100B8000FF004200180400081A4B1B681900883146
:100B90001A68096851180968016219008C310968DE
:100BA0005218126842621A0046321278002A1FD088
:100BB0009A68E0321268D2061AD5F222DB68D201B6
:100BC0009A580260F022D2019A5842600A4A9A5812
:100BD00082600A4A9A58C260094A9A580261094AD0
:100BE0009A584261084A9A588261084A9B58C361E0
:100BF0007047C046C405000804780000087800006B
:100C00000C780000107800001478000018780000BC
:100C10001A4B1B681A008832196812688A18016A10
:100C200011601A008C32196812688A18416A1160C2
:100C30001A0046321278002A1ED09A68E0321268F2
:100C4000D20619D5F0224168DB68D201995081683B
:100C50000B4A9950C1680B4A995001690A4A995048
:100C600041690A4A99508169094A9950C169094AFA
:100C700099500168E83299507047C046C405000891
:100C800004780000087800000C780000107800005C
:100C90001478000018780000F7B50700FFF708FF88
:100CA000664D06006B68002B00D07DE0FFF715FA5B
:100CB0006B680090002B00D089E0614C2268130023
:100CC000BA33198807234B43126A9B181A68002A03
:100CD000FCDADB68DA0021D51B0F1B0759480193AA
:100CE000FFF752FF5849212E00D075E0226890206E
:100CF000130088331C68136800011C1923680B401B
:100D00000343236013008C3312681B68D3181A68DE
:100D10001140084318604B4B019A13438022484E00
:100D20009205316813430A00BA3210880722002462
:100D30004243096A5218D36054605368FFF7C1FEFA
:100D400080235B0098425DD1380000F05DFB326883
:100D50001300BA33198807234B43126A9B181A6889
:100D6000002AFCDADF68FB0003D538010009FFF731
:100D70004FFF364B32681F401300BA3319880723E0
:100D80004B43126A00989B180022DF605A60FFF7FD
:100D9000A8F9002C0FD16B68002B03D0082101208B
:100DA000FFF79AFE2000FEBD01210800FFF794FE28
:100DB000041E00D17AE76B68002B03D002210120CA
:100DC000FFF78AFE224B9C42ECD0224CEAE704213A
:100DD0000120FFF781FE70E720688022030088333E
:100DE0001C68036852001C1923680B4013432360DE
:100DF00003008C3300681B68C318186801400A435D
:100E00001A6088E733681A00BC32196A12685218EF
:100E10001168002910DBBA331B889A181368002B5D
:100E20000ADB04230C4A11690B431361012F01D023
:100E300030BF8CE720BF8AE7054C88E73004000804
:100E4000C4050008F0030008FF00FFFFFFFFFFDFFD
:100E500005004200FF00420000ED00E0C0228020BB
:100E6000064952008B58C0059B009B0803438B50DA
:100E7000802388581B0603438B5070470000264090
:100E800010B562B6034800F0C1F80020FFF704FF78
:100E9000FBE7C0460020001010B50020FFF7F8FA6D
:100EA00010BD704710B50020FFF746FD041E25D089
:100EB000134B1860FFF7BCFB411C200000F0CCF87E
:100EC000104B04001860FFF7A5FB411C200000F048
:100ED000C3F80D4B441E18600C49200000F0BCF80C
:100EE000FA210B4B013018708900200000F0B4F893
:100EF000084B01301860084BC003186010BDC04695
:100F000084000008880000088000000840420F00AC
:100F100094000008900000088C00000810B52048DC
:100F2000FFF722F9B022E02130201E4CD200A35856
:100F300089005B005B08A3506358834363508023A0
:100F40005B04A350184B194AE250A02204339201CB
:100F5000E250FF22164BE250FFF780FFC022012132
:100F60005200A3588B43A350FFF79BFFFFF79AFF54
:100F7000104B03201A681300BA33198807234B4318
:100F8000126A80219B180022DA605A600A4AFFF731
:100F9000C7FA0A48FFF7A0F90948FFF7D9F910BDC9
:100FA0001814001000002640840500000100020013
:100FB0008C050000C40500088003000844040008F4
:100FC000D81400109023034A5B01D0580323184023
:100FD0007047C0460000204010B59024FFF77DF810
:100FE000074B64011A5907491140074A0A431A512D
:100FF000102259681142FCD0FFF773F810BDC046AB
:1010000000002040FCFF00000100FA05F8B5902523
:101010000E4C6D010700FFF760F863590600DB43D3
:101020009B0701D1FFF7D8FF80239B00E75063594E
:10103000074A1A40074B13436351102362681A4250
:10104000FCD03000FFF74DF8F8BDC046000020404E
:10105000FCFF00000300FA05002243088B4274D312
:1010600003098B425FD3030A8B4244D3030B8B42A9
:1010700028D3030C8B420DD3FF22090212BA030CB2
:101080008B4202D31212090265D0030B8B4219D393
:1010900000E0090AC30B8B4201D3CB03C01A5241B3
:1010A000830B8B4201D38B03C01A5241430B8B42FB
:1010B00001D34B03C01A5241030B8B4201D30B03E4
:1010C000C01A5241C30A8B4201D3CB02C01A52410B
:1010D000830A8B4201D38B02C01A5241430A8B42CE
:1010E00001D34B02C01A5241030A8B4201D30B02B7
:1010F000C01A5241CDD2C3098B4201D3CB01C01AD1
:10110000524183098B4201D38B01C01A52414309DA
:101110008B4201D34B01C01A524103098B4201D3C8
:101120000B01C01A5241C3088B4201D3CB00C01A35
:10113000524183088B4201D38B00C01A52414308AD
:101140008B4201D34B00C01A5241411A00D20146D2
:10115000524110467047FFE701B5002000F006F845
:1011600002BDC0460029F7D076E770477047C046F9
:10117000002B11D1002A0FD1002900D1002802D064
:101180000021C943081C07B4024802A1401802907C
:1011900003BDC046D9FFFFFF03B4684601B50298FE
:1011A00000F030F8019B9E4602B00CBC7047C04670
:1011B000F0B5CE46474615042D0C2E0080B5070429
:1011C000140C3F0C9946030C7E435D436743634315
:1011D0007F19340CE4199C46A54203D980235B0295
:1011E0009846C4444B4643435143250C360465445A
:1011F000360C2404A4195B19591820000CBC904625
:101200009946F0BDF0B54F464646D646C0B50400F7
:1012100082B00D00914698468B422FD82CD0414683
:10122000484600F0CFF829000600200000F0CAF878
:10123000331A9C46203B9A4600D576E04B465246F0
:1012400093401F004B46624693401E00AF4228D891
:1012500025D05346A41BBD41002B00DA7BE00022C1
:1012600000230092019301235246934001930123EE
:1012700062469340009318E08242D0D900220023B6
:10128000009201930A9B002B01D01C605D600098C6
:10129000019902B01CBC90469946A246F0BDA342FB
:1012A000D7D900220023009201936346002BE9D096
:1012B000FB079846414672080A437B0866460EE0E3
:1012C000AB4201D1A2420CD8A41A9D41012024199D
:1012D0006D410021013E24184D41002E06D0AB4245
:1012E000EED9013E24196D41002EF8D100980199E4
:1012F000534600196941002B23DB2B005246D34093
:101300002A006446E2401C0053461500002B2DDBEA
:1013100026005746BE40330026006746BE403200D6
:10132000801A994100900191ACE7624620239B1AF4
:101330004A46DA406146130042468A4017001F437E
:1013400080E7624620239B1A2A0066469A402300C3
:10135000F3401343D4E76246202300219B1A002266
:10136000009101920122DA40019280E72023624637
:1013700026009B1ADE402F00B0466646B740464620
:101380003B003343C8E7C0461C2101231B0498429D
:1013900001D3000C10391B0A984201D3000A083906
:1013A0001B09984201D30009043902A2105C4018BD
:1013B0007047C04604030202010101010000000061
:1013C0000000000010B5002903D1FFF7DDFF203039
:1013D00002E0081CFFF7D8FF10BDC046030012183A
:1013E000934200D1704719700133F9E7F8B5C04650
:1013F000F8BC08BC9E467047F8B5C046F8BC08BCAF
:101400009E4670470000000001B40248844601BCBB
:10141000604700BF61020008000020400000244037
:1014200000000040000000000000234000003040A9
:101430000000314000009F400000224000001040AA
:1014400000009B402020202020132010101E208010
:1014500017007500FF03050104001C0310000000C5
:101460001FC0000000040000000000000019324B03
:10147000647D0202000000804000080B10000000A4
:101480000000FF012002001F00800004FF08101868
:10149000001000140018001C4044484C500000008C
:1014A0000810000008000000040000000410000004
:1014B00000120000042100000021000000160000BE
:1014C00040114002C41300138013A013401388136B
:1014D000A81320001C000000030000000100000011
:1014E000010000000000000005036000040000008F
:1014F0000100000000000000010000000604600080
:1015000008000000A4050008990E0010000000006B
:10151000F4FCFF7F01000000000000100000000844
:10152000800000003815001080000008F80200005C
:10153000B00300081802000000093D0000127A0004
:1015400000093D000000D007A00F000004000000CB
:10155000A90000108100001080B230B5C00020D07A
:10156000104B07221C682300BA331B885A43236A96
:10157000D31819680029FCDA3E210B4B06251960A7
:101580000A4B0B491960A3210A4BC9005D500A4957
:1015900058505858206A1218002050605A58002A93
:1015A000FCDA30BDC40500080401264008012640CD
:1015B0001E1F0000000026401C05000010B54378E7
:1015C000FF2B11D100F00CF90400032000F0E8F823
:1015D000C3685A68012311681943116011681942E0
:1015E000FCD1200000F01CF910BDF7B500900020E0
:1015F000019100F0D5F83F4D06002B681A005033DA
:10160000BC3214681B780419002B5AD000F0F8F88B
:10161000070003281BD000F0E3F8374A374B0500DA
:10162000D358002B3EDA364A0121300000F0C0F8D2
:10163000002837D10198FFF78FFF009B002B3ED089
:101640002368002BFCDB00F0C3F804002BE006202D
:1016500000F0A6F82B68BC331B68C0180368002B89
:1016600002DA284C2000FEBD002000F0C1F8264B15
:101670009842F6D00023254A19001268012000F094
:101680009FF80025A842ECD1002000F0B1F81E4AD6
:101690001F4B904203D09D42E3D00135F4E79D42B9
:1016A000B9D1DEE7174C032F05D10121002000F04E
:1016B000AFF80028F9D1280000F0B2F8D2E7154CB5
:1016C000F1E700F08DF80E4A05000121300000F02E
:1016D0006FF8002809D1009B002B08D02368002B4D
:1016E000FCDB00F075F80400E5E7064CE3E7094C85
:1016F000E1E7C046C4050008000026401C050000C4
:10170000CC0300080500520001018800DC0300083A
:10171000F049020001005000184BF7B51B68184A49
:101720005C68042311690B431361012824D030BF86
:101730002300FC331B69002B1DD1A320114B124940
:10174000124AC0000F681E5815680195104D0D60B3
:1017500006251D503E2010600E483E351D501D5878
:10176000002DFCDA0C48FC3420610F60A321C90075
:101770005E50019B1360F7BD20BFD9E7C405000888
:1017800000ED00E00000264008012640040126404C
:101790001E1F00001C050000AAAAAAAA0000000043
:1017A00001B40248844601BC604700BF75010010C7
:1017B00001B40248844601BC604700BF9D0200108E
:1017C00001B40248844601BC604700BFAD0300106D
:1017D00001B40248844601BC604700BF39020010D2
:1017E00001B40248844601BC604700BFDB00001022
:1017F00001B40248844601BC604700BFDD0500100B
:1018000001B40248844601BC604700BFC50F001008
:1018100001B40248844601BC604700BF690500105E
:1018200001B40248844601BC604700BFE3000010D9
:1018300000000000000000000000000000000000A8
:081840000000000000000000A0
:1020000000F80108412300100D000000B523001066
:10201000B5230010B5230010B52300100000000008
:10202000000000000000000000000000B1230010CC
:10203000B123001000000000B1230010B1230010F4
:10204000B123001000000000B1230010B1230010E4
:1020500000000000B1230010B1230010B1230010D4
:10206000B1230010B1230010B1230010B1230010E0
:10207000B123001000000000B1230010B1230010B4
:10208000B1230010B1230010B1230010B1230010C0
:10209000B1230010B1230010B1230010B1230010B0
:1020A000B1230010B1230010B1230010B1230010A0
:1020B000B1230010B1230010B1230010B123001090
:1020C000B1230010B1230010B1230010B123001080
:1020D000B1230010B1230010B1230010B123001070
:1020E000B1230010B123001000000000B123001044
:1020F000B1230010B1230010B1230010B123001050
:1021000000000000B1230010B1230010B123001023
:10211000B1230010B12300100000000000000000F7
:10212000B1230010B1230010B1230010B12300101F
:10213000B1230010B1230010B1230010B12300100F
:10214000B1230010B1230010B1230010B1230010FF
:10215000B1230010B1230010B1230010B1230010EF
:10216000B1230010B1230010B1230010B1230010DF
:10217000B1230010B1230010B1230010B1230010CF
:10218000B1230010B1230010B1230010B1230010BF
:10219000B1230010B1230010B1230010B1230010AF
:1021A000B1230010B1230010B1230010B12300109F
:1021B000B1230010B1230010B1230010B12300108F
:1021C000B1230010B1230010B1230010B12300107F
:1021D000B1230010B1230010B1230010B12300106F
:1021E000B1230010B1230010B1230010B12300105F
:1021F000B1230010B1230010B1230010B12300104F
:10220000B1230010B1230010B1230010B12300103E
:10221000B1230010B1230010B1230010B12300102E
:10222000B1230010B1230010B1230010B12300101E
:10223000B1230010B1230010B123001000000000F2
:10224000000000000000000000000000B1230010AA
:10225000B1230010B1230010B1230010B1230010EE
:10226000B1230010B1230010B123001000000000C2
:10227000000000000000000000000000000000005E
:102280000000000000000000B1230010000000006A
:10229000000000000000000000000000000000003E
:1022A000000000000000000000000000000000002E
:1022B000000000000000000000000000000000001E
:1022C000B1230010B1230010B1230010B12300107E
:1022D00000000000000000000000000000000000FE
:1022E000B1230010B1230010B1230010B12300105E
:1022F000B1230010B1230010B123001010B5054C1C
:10230000237833B9044B13B10448AFF300800123A1
:10231000237010BD642A000800000000440B011067
:1023200008B5034B1BB103490348AFF3008008BD58
:1023300000000000682A0008440B01107047704735
:10234000FFF7FCFF72B6144C144DAC4209DA216859
:102350006268A368043BA2BFC858D050FAE70C34A7
:10236000F3E70F490F4A00209142BCBF41F8040B2C
:10237000FAE70D480D490860BFF34F8F01F00EFCDE
:1023800001F0F2FBFFF7DBFF09F036FD01F042FC44
:1023900009F01EFDFEE70000500B0110680B011054
:1023A000642A0008143200080020000808ED00E04C
:1023B000FEE7FEE700B504207146084202D0EFF3C5
:1023C000098002E0EFF30880043008F081FCFEE7AA
:1023D00000B583B04FF4E1330093FF231A46282160
:1023E000292009F0FBFA00B101BE03B05DF804FB3F
:1023F000F0B59C463B4C0126C4F884600223C4F827
:102400008430394F2A253D600425C4F88450C4F82F
:102410008850C4F88830C4F888604FEA102EC4F899
:102420008460C7F800E0C4F88450C4F888505EFAAD
:1024300080F03860C4F88450C4F88850C4F88860CC
:10244000080AC4F884603860C4F88450C4F888501E
:1024500050FA81F13960C4F88450C4F88850C4F847
:102460008860C4F88460C4F884302B213960C4F8D3
:102470008450C4F88850C4F88830C4F88860110AC1
:10248000C4F884603960C4F88450C4F8885051FAA4
:1024900082F23A60C4F88450C4F88850C4F8886066
:1024A0004FEA1C22C4F884603A60C4F88450C4F82F
:1024B000885052FA8CF23A60C4F88450C4F88850BC
:1024C000C4F88860C4F88460C4F884302C223A6070
:1024D000C4F88450C4F88850C4F88830C4F88860C0
:1024E000F0BD00BF000031400001314070B504462E
:1024F000EF23002240F23F111046FFF779FF4FF023
:10250000000C1DE0220A114B0125C3F88450104E27
:1025100032600420C3F88400C3F8880052FA84F2C1
:102520003260C3F88400C3F88800C3F88850294497
:1025300089B2B1F5A07FE5D30CF1010C1FFA8CFC38
:10254000BCF1EF0F01D80021F3E770BD000031406E
:10255000000131402DE9F84F86468C4615469946D4
:10256000DDF82880BDF82C70BDF830600024A0EBA9
:10257000520080B20EEB520189B212F0010F01D16C
:10258000013989B2ACEB590292B20CEB59039BB200
:1025900019F0010F01D1013B9BB2FFF729FF4FEA70
:1025A000D50B15F0070F01D00BF1010B4FF0000A0E
:1025B0004BE014F0800F2AD1330A27484FF0010C6A
:1025C000C0F884C0DFF894E0CEF800300422C0F8F0
:1025D0008420C0F8882053FA86F3CEF80030C0F883
:1025E0008420C0F88820C0F888C06400E4B20131BB
:1025F00089B2A94225D211F0070FDAD11AFB0BF3E9
:10260000CA0812FA83F39BB218F80340D1E73A0ADA
:10261000114B4FF0010CC3F884C0DFF840E0CEF856
:1026200000200420C3F88400C3F8880052FA87F21F
:10263000CEF80020C3F88400C3F88800C3F888C02F
:10264000D3E70AF1010A1FFA8AFACA4501D200212A
:10265000CFE7BDE8F88F00BF0000314000013140F6
:102660002DE9F843EA4C0125C4F884504FF00208E4
:10267000C4F88480E74F3D600426C4F88460C4F841
:102680008860C4F88880C4F88850322008F0FCFACA
:10269000C4F88450C4F884804FF01109C7F8009042
:1026A000C4F88460C4F88860C4F88880C4F888508E
:1026B000782008F0E9FAC4F88450C4F88480CF2365
:1026C0003B60C4F88460C4F88860C4F88880C4F8AB
:1026D0008850C4F8845000233B60C4F88460C4F878
:1026E0008860C4F88850C4F8845083223A60C4F8E3
:1026F0008460C4F88860C4F88850C4F884503022DC
:102700003A60C4F88460C4F88860C4F88850C4F89B
:102710008450C4F88480ED223A60C4F88460C4F820
:102720008860C4F88880C4F88850C4F88450642253
:102730003A60C4F88460C4F88860C4F88850C4F86B
:10274000845003223A60C4F88460C4F88860C4F8F6
:102750008850C4F8845012223A60C4F88460C4F8E7
:102760008860C4F88850C4F8845081223A60C4F864
:102770008460C4F88860C4F88850C4F88450C4F8F1
:102780008480E8223A60C4F88460C4F88860C4F8A1
:102790008880C4F88850C4F8845085223A60C4F810
:1027A0008460C4F88860C4F88850C4F884503D60E0
:1027B000C4F88460C4F88860C4F88850C4F88450B1
:1027C00079223A60C4F88460C4F88860C4F88850FC
:1027D000C4F88450C4F88480CB223A60C4F8846082
:1027E000C4F88860C4F88880C4F88850C4F884505D
:1027F00039223A60C4F88460C4F88860C4F888500C
:10280000C4F884502C223A60C4F88460C4F888600C
:10281000C4F88850C4F884503B60C4F88460C4F89D
:102820008860C4F88850C4F8845034223A60C4F8F0
:102830008460C4F88860C4F88850C4F88450C7F82D
:102840000080C4F88460C4F88860C4F88850C4F874
:102850008450C4F88480F7213960C4F88460C4F8D7
:102860008860C4F88880C4F88850C4F88450202157
:102870003960C4F88460C4F88860C4F88850C4F82B
:102880008450C4F88480EA213960C4F88460C4F8B4
:102890008860C4F88880C4F88850C4F884503B60CD
:1028A000C4F88460C4F88860C4F88850C4F88450C0
:1028B0003B60C4F88460C4F88860C4F88850C4F8E9
:1028C0008450C4F88480C1213960C4F88460C4F89D
:1028D0008860C4F88880C4F88850C4F88450C7F869
:1028E0000090C4F88460C4F88860C4F88850C4F8C4
:1028F0008450C4F88480C5213960C4F88460C4F869
:102900008860C4F88880C4F88850C4F884503A605D
:10291000C4F88460C4F88860C4F88850C4F884504F
:102920003D223A60C4F88460C4F88860C4F88850D6
:10293000C4F88450C4F88480C7223A60C4F8846024
:10294000C4F88860C4F88880C4F88850C4F88450FB
:10295000C0223A60C4F88460C4F88860C4F8885023
:10296000C4F88450C4F8848036223A60C4F8846085
:10297000C4F88860C4F88880C4F88850C4F88450CB
:1029800068223A60C4F88460C4F88860C4F888504B
:10299000C4F88450C4F884803A223A60C4F8846051
:1029A000C4F88860C4F88880C4F88850C4F884509B
:1029B00055223A60C4F88460C4F88860C4F888502E
:1029C000C4F88450C4F88480B1223A60C4F88460AA
:1029D000C4F88860C4F88880C4F88850C4F884506B
:1029E0003B60C4F88460C4F88860C4F88850C4F8B8
:1029F00084501D223A60C4F88460C4F88860C4F82A
:102A00008850C4F88450C4F88480B62104E000BF24
:102A100000003140000131403960C4F88460C4F8DE
:102A20008860C4F88880C4F88850C4F884500A22AA
:102A30003A60C4F88460C4F88860C4F88850C4F868
:102A40008450A2203860C4F88460C4F88860C4F858
:102A50008850C4F8845027203860C4F88460C4F8D3
:102A60008860C4F88850C4F884503B60C4F884601F
:102A7000C4F88860C4F88850C4F88450C4F88480CE
:102A8000B7233B60C4F88460C4F88860C4F88880C9
:102A9000C4F88850C4F8845007233B60C4F88460AD
:102AA000C4F88860C4F88850C4F88450C4F884809E
:102AB0003960C4F88460C4F88860C4F88880C4F8B9
:102AC0008850C4F8845008233B60C4F88460C4F87C
:102AD0008860C4F88850C4F88450C4F884802623E1
:102AE0003B60C4F88460C4F88860C4F88880C4F887
:102AF0008850C4F884503D60C4F88460C4F888608D
:102B0000C4F88850C4F88450C4F88480E0233B6043
:102B1000C4F88460C4F88860C4F88880C4F8885019
:102B2000C4F884501F233B60C4F88460C4F88860F4
:102B3000C4F88850C4F884501A233B60C4F88460F9
:102B4000C4F88860C4F88850C4F8845018233B60E7
:102B5000C4F88460C4F88860C4F88850C4F884500D
:102B60003A60C4F88460C4F88860C4F88850C4F837
:102B700084500F233B60C4F88460C4F88860C4F8B4
:102B80008850C4F8845006233B60C4F88460C4F8BD
:102B90008860C4F88850C4F8845045233B60C4F86A
:102BA0008460C4F88860C4F88850C4F884508723CF
:102BB0003B60C4F88460C4F88860C4F88850C4F8E6
:102BC00084504FF03209C7F80090C4F88460C4F80C
:102BD0008860C4F88850C4F884503A60C4F88460AF
:102BE000C4F88860C4F88850C4F8845007233B6058
:102BF000C4F88460C4F88860C4F88850C4F884506D
:102C0000C7F80080C4F88460C4F88860C4F88850AD
:102C1000C4F884503B60C4F88460C4F88860C4F889
:102C20008850C4F8845005233B60C4F88460C4F81D
:102C30008860C4F88850C4F8845000223A60C4F810
:102C40008460C4F88860C4F88850C4F88450C4F81C
:102C50008480E1213960C4F88460C4F88860C4F8D5
:102C60008880C4F88850C4F884503A60C4F88460FE
:102C7000C4F88860C4F88850C4F8845025223A60AB
:102C8000C4F88460C4F88860C4F88850C4F88450DC
:102C90003860C4F88460C4F88860C4F88850C4F808
:102CA00084503B60C4F88460C4F88860C4F88850DD
:102CB000C4F8845010223A60C4F88460C4F8886074
:102CC000C4F88850C4F8845009223A60C4F884607B
:102CD000C4F88860C4F88850C4F884503A223A6036
:102CE000C4F88460C4F88860C4F88850C4F884507C
:102CF00078203860C4F88460C4F88860C4F88850CC
:102D0000C4F884504D213960C4F88460C4F88860E8
:102D1000C4F88850C4F884503B60C4F88460C4F898
:102D20008860C4F88850C4F8845018233B60C4F805
:102D30008460C4F88860C4F88850C4F884500D23B7
:102D40003B60C4F88460C4F88860C4F88850C4F854
:102D5000845038233B60C4F88460C4F88860C4F8A9
:102D60008850C4F884503A60C4F88460C4F888601D
:102D7000C4F88850C4F884501F233B60C4F88460B2
:102D8000C4F88860C4F88850C4F88450C4F88480BB
:102D900011233B60C4F88460C4F88860C4F888805C
:102DA000C4F8885007F070FFC4F88450C4F88480D9
:102DB00029233B60C4F88460C4F88860C4F8888024
:102DC000C4F88850484607F05FFFBDE8F88300BFAD
:102DD00008B5012306221946082002F081FD00B142
:102DE00008BD012306221946092002F079FD0028BA
:102DF000F6D10123062219460A2002F071FD0028AF
:102E0000EED1012306221946102002F069FD0028A8
:102E1000E6D1012306221946112002F061FD0028A7
:102E2000DED1012306221946122002F059FD0028A6
:102E3000D6D1012306221946132002F051FD0028A5
:102E4000CED1012306221946142002F049FD0028A4
:102E5000C6D1012306221946152002F041FD0028A3
:102E6000BED1012306221946162002F039FD0028A2
:102E7000B6D1012306221946172002F031FDAFE733
:102E800008B5FFF7A5FF00B108BDFFF7E9FB00207B
:102E9000FFF72CFBF8E70000F8B507468C4615460F
:102EA0001E46BDF81840A0EB520080B207EB520757
:102EB000B9B212F0010F01D14B1E99B2ACEB560220
:102EC00092B20CEB56039BB216F0010F01D1013BFD
:102ED0009BB2FFF78DFA4FF0000E1DE0200A11495A
:102EE0000122C1F88420104F38600423C1F88430D7
:102EF000C1F8883050FA84F03860C1F88430C1F8E5
:102F00008830C1F8882094441FFA8CFCAC45E5D386
:102F10000EF1010E1FFA8EFEB64502D24FF0000CE4
:102F2000F4E7F8BD000031400001314008B500234E
:102F30001A461946332002F0D3FC00B101BE00232B
:102F40001A461946342002F0CBFC00B101BE002322
:102F50001A461946352002F0C3FC00B101BE08BD77
:102F60002C4B1B6913F0080F0ED12B4A0121117055
:102F70002A4A127812B92849097849B926490978A4
:102F800041B9D2B9002006E0234A00211170EFE7D1
:102F9000012000E0002013F0100F10D1204A012181
:102FA0001170204A127812B91D49097859B91C4983
:102FB000097849B942B1052006E00420EBE7184A38
:102FC00000211170EDE7022013F0200F19D1164BEC
:102FD00001221A70154B1B7813B9134A1278A2B943
:102FE000114A127802B993B90F4B1A780F4B1A7025
:102FF0000B4B1A780B4B1A70074B1A78074B1A7049
:103000007047094B00221A70E4E70320ECE7062022
:10301000EAE700BF00033140802A0008832A000845
:10302000812A0008842A0008822A0008852A0008CC
:1030300000B583B000225621104801F08FFC00B18A
:1030400001BE0F490D4801F0E9F800B101BE0D4B7A
:103050000093FF23562209490B4801F0F3F900B110
:1030600001BE084B0093FF2357220449074801F093
:10307000E9F900B101BE03B05DF804FBA02A000825
:1030800004F40010FCF30010882A0008942A0008B9
:1030900008B5024801F0E6FA08BD00BF882A00081A
:1030A00008B5024801F0DEFA08BD00BF942A000806
:1030B000F0B583B005460C461F4600268E60013AE7
:1030C0004A604E708E7001230B70CE603246FF2135
:1030D00003F08CFE00B101BE2146284603F0E0FE5D
:1030E00000B101BE0D49284603F0E4FD00B101BE68
:1030F00005F1080400223946204603F0DFFB0122D7
:10310000009203232146284603F018FC284603F0CA
:1031100097FE00B101BE03B0F0BD00BF00E1F505B0
:1031200000B585B0002302934FF6E0730193064B80
:103130000093064B1B78064A12787821A020FFF7EF
:1031400009FA05B05DF804FBB8F80010E0FA0010C9
:10315000E1FA001000B585B0002302934FF6E0734A
:103160000193064B0093064B1B78064A1278782190
:10317000A020FFF7EFF905B05DF804FBB0F40010F4
:103180007EF600107FF6001000B585B00023029394
:103190004FF6E0730193064B0093064B1B78064AEB
:1031A00012787821A020FFF7D5F905B05DF804FB6F
:1031B00080F60010B4F80010B5F8001010B400212B
:1031C0000FE001EBC10300EB830302EB420C03EBC6
:1031D0008C034FF0000C83F808C00132022AF0DDA6
:1031E0000131022901DC0022F8E7772202604F2436
:1031F0004460C260026182619F23C3614362846252
:1032000003634263C3630364C7218164C46441658B
:10321000826501664366034B01221A605A605DF8BD
:10322000044B7047942B000808B5FFF77FFEFFF7AB
:1032300027FEFFF7FDFE034B034A04490448FFF74E
:1032400037FF08BDCD38001080969800082C000884
:10325000182C000810B4124B1A68596801EB41048D
:1032600002EBC2039B0003EB84030E4CE35804689B
:103270009C4203D000205DF8044B7047406801EB8E
:10328000410102EBC202920002EB8102054B1A449B
:103290005368984201D00020EDE70120EBE700BF22
:1032A000942B00089C2B00082DE9F04786B01F24C2
:1032B00000940423782263219F20FFF7EDFD009402
:1032C000042378228B219F20FFF7E6FD00947823CA
:1032D000042277218B20FFF7DFFD0094782304225E
:1032E0007721B320FFF7D8FD0025F7E07F4F04EBEF
:1032F000440605EBC5039B0003EB860607EB0608B7
:103300004FF00009CDF8009020231A46B8F80410B9
:10331000B85BFFF7C1FDCDF808904FF6E07301935D
:10332000734B009319231322B8F80410B85BFFF70E
:1033300011F95FE06D4F04EB440605EBC5039B00FC
:1033400003EB860607EB06084FF00009CDF8009066
:1033500020231A46B8F80410B85BFFF79DFDCDF89E
:10336000089040F2FF730193624B009319231322DC
:10337000B8F80410B85BFFF7EDF83BE05E4B1B7844
:10338000782B7BD013238DF8143019238DF815304A
:10339000584E04EB440305EBC502920002EB830395
:1033A000524A13441B7A002B70D1904604EB440719
:1033B00005EBC5039B0003EB870702EB07094FF4FE
:1033C000FC6ACDF800A020231A46B9F8041038F89A
:1033D0000700FFF761FDCDF808A0002301930096D8
:1033E0009DF815309DF81420B9F8041038F807003E
:1033F000FFF7B0F80134022C6FDC04EB440305EB5B
:10340000C500800000EB830338481844FFF722FF13
:103410000028B3D104EB440305EBC502920002EB94
:103420008303324A13441B7A6F2B83D0782B3FF4EB
:103430005DAF002BDED1174604EB440605EBC50358
:103440009B0003EB860602EB06094FF00008CDF85F
:10345000008020231A46B9F80410B85BFFF71CFD62
:10346000CDF80880CDF80480224B00931923132255
:10347000B9F80410B85BFFF76DF8BBE713238DF8BC
:10348000143019238DF81530194E82E7DFF85C806F
:1034900004EB440705EBC5039B0003EB870708EB30
:1034A00007094FF4784ACDF800A020231A46B9F84E
:1034B000041038F80700FFF7EFFCCDF808A0002350
:1034C000019300969DF815309DF81420B9F804106A
:1034D00038F80700FFF73EF88CE70135022D01DCD4
:1034E000002488E706B0BDE8F08700BF9C2B0008E9
:1034F00064F4001018F400102F23000808B50E48DB
:10350000FFF75CFE0D4B1B78782B0ED078230C4A0E
:1035100013700A4A1370FFF723FD0528FBD1002022
:10352000FEF7E4FFFFF7C0FE08BD6F23044A1370E7
:10353000024A1370EFE700BF9C2B000830230008FD
:103540002F23000810B5894A137A92F82C00834281
:1035500022D0864A117D8B4237D0844A92F8382097
:1035600093424BD0914263D0804991F8203091F83A
:1035700044108B4276D0904200F08D807B4991F8C8
:10358000500091F85C10884200F09C809A4200F054
:10359000B38000200124DBE092F850209342D8D180
:1035A0006F2B0AD0782B40F0D8800020FEF79EFFCA
:1035B000FFF7B6FDFFF7A2FFCFE00020FEF796FF72
:1035C000FFF7C8FDFFF79AFFC7E092F8202093426B
:1035D000C3D16F2B0AD0782B40F0BF800020FEF7BC
:1035E00085FFFFF79DFDFFF789FFB6E00020FEF79E
:1035F0007DFFFFF7AFFDFFF781FFAEE05B4C94F876
:103600006840A342AED16F2B0AD0782B40F0A58042
:103610000020FEF76BFFFFF783FDFFF76FFF9CE0D5
:103620000020FEF763FFFFF795FDFFF767FF94E0CB
:103630004E4B93F85C30994296D16F290AD0782985
:1036400040F08B800020FEF751FFFFF769FDFFF788
:1036500055FF82E00020FEF749FFFFF77BFDFFF7F3
:103660004DFF7AE0414C94F86840A34283D16F2B20
:1036700009D0782B71D10020FEF738FFFFF750FDFD
:10368000FFF73CFF69E00020FEF730FFFFF762FD27
:10369000FFF734FF61E088427FF470AF6F2809D0F4
:1036A00078285AD10020FEF721FFFFF739FDFFF7F8
:1036B00025FF52E00020FEF719FFFFF74BFDFFF753
:1036C0001DFF4AE0294991F8681088427FF45EAFF7
:1036D0006F2809D0782840D10020FEF707FFFFF7B8
:1036E0001FFDFFF70BFF38E00020FEF7FFFEFFF79E
:1036F00031FDFFF703FF30E0834202D000200124B8
:1037000026E06F2B09D0782B27D10020FEF7EEFEA4
:10371000FFF706FDFFF7F2FE1FE00020FEF7E6FED2
:10372000FFF718FDFFF7EAFE17E00133022B0EDC6E
:1037300003EB43018A0000EBC00C4FEA8C010A4402
:103740000A490A44127A002AEFD10024EDE7013039
:10375000022801DC0023E9E704B910BD0020FEF7D0
:10376000C5FEFFF711FDFFF7C9FEF6E79C2B000829
:1037700010B5374B1B88A3F53A530B3B9BB24AF26B
:10378000E822934209D8334B1B884DF273129342BF
:1037900003D842F68A62934208D8FFF779FC2C4B93
:1037A0001880FFF77DFC2B4B188010BDFFF770FCD5
:1037B000274C2080FFF774FC264B188023884DF29D
:1037C000731293421CD9244B1B68002B14DD013B60
:1037D000214A1360FFF768FD1E4B1B884DF27312E0
:1037E000934223D91C4B5B68002B1BDD013B1A4A1B
:1037F0005360FFF759FDD8E7174B02221A60E9E73B
:1038000042F68A629342E7D8134B1B68012B05DD11
:10381000114B00221A60FFF747FDDDE701330E4A26
:103820001360F8E70C4B02225A60E2E742F68A6224
:103830009342BAD8084B5B68012B05DD064B00228A
:103840005A60FFF731FDB0E70133034A5360F8E7F0
:10385000502C0008522C0008942B000808B5FFF7E4
:103860007FFB012801D0002008BD154A136851686C
:1038700001EB410003EBC302920002EB800211480E
:103880000244127AD2B9104A107801EB410103EBDD
:10389000C3039B0003EB81030A4A13441872782880
:1038A00008D0094B78221A70FFF7FEFCFFF74AFE9A
:1038B0000120D9E7044B6F221A70F5E70020D3E707
:1038C000942B00089C2B00082F23000808B5FFF755
:1038D0004FFFFFF7C3FF08BD08B50348FFF76EFCB5
:1038E000FFF7E2FCFEE700BF9C2B000808B500F0E4
:1038F00039F800F003F800F015F808BD08B500210C
:10390000084606F057FAFF220021084606F0C6F8DE
:103910000021084606F00CFA014802F0E7F808BD5D
:10392000E4FA001010B5094C094A0621204604F0BB
:1039300003FD084802F0DAF8074A0721204604F0A0
:10394000FBFC064802F0D2F810BD00BF0003314076
:1039500020FB001054FB0010E8FA00101CFB0010C4
:10396000FEE7000010B59621002007F003FA0120C1
:1039700007F010FD07F0B6FC07F090FD07F07AFDA8
:103980000021084606F08CFB002006F0F7FA012023
:1039900006F0DCFA002006F089FA4A4B1B6893F81F
:1039A0003F4003E0204606F0F1FD013C002CF9D138
:1039B0000021012006F0FAFB002006F05FFB002842
:1039C00069D006F0A7FC0021084606F0EFFB0021B5
:1039D000084606F033FB002006F0D0FA002006F07F
:1039E000B5FA002006F062FA0021012006F0DEFBA5
:1039F0000021084606F0DAFB0021022006F0D6FB83
:103A00000021032006F0D2FB0021042006F0CEFBAB
:103A10002D4806F099FC002848D12C4806F044FDBA
:103A2000002846D10021084606F008FB0021084680
:103A300006F036FB2649012006F0CEFD00283BD1DA
:103A400042F21071012006F055FEC0BB06F074FA78
:103A5000002006F045FA002006F058FA06F062FA57
:103A60006421002007F086F900F044F806F056FBC8
:103A7000002006F067FB174802F038F8164802F0FD
:103A800035F8164802F032F8154802F02FF81548BC
:103A900002F02CF810BD06F0B7FB40F2111398426B
:103AA0008FD10121002006F0C9FA8AE70420FFF730
:103AB00057FF0420FFF754FF0320FFF751FF0320B7
:103AC000FFF74EFF3030000858FB0010400D030098
:103AD00080FB00106CFB001070FB001074FB0010EA
:103AE00078FB00107CFB001008B5012004F054FEA8
:103AF00008BD704710B5002007F006F800B910BDEA
:103B00000446114B186006F02FFA0130B4FBF0F0B8
:103B10000E4B186006F040FA0130B4FBF0F40C4B89
:103B20001C60013C0B4BA3FB04239B0C01330A4A92
:103B300013700A4BA3FB04239B090133084A13604B
:103B4000DB03084A1360DAE7382300083C23000847
:103B50003423000883DE1B4348230008D34D621042
:103B6000442300084023000808B5094803F07CFFFF
:103B7000FFF7BFFFFFF7BEFF00221146032004F04E
:103B800061FE044804F0C2FC034804F017FD08BDC0
:103B900080060110542C000888FB0010EFF3108100
:103BA00072B6074AD2F8883043F47003C2F88830FE
:103BB000BFF34F8FBFF36F8F81F31088704700BF43
:103BC00000ED00E008B5044807F056FA08B10020FF
:103BD00008BD0248FCE700BF4C23000800000206B5
:103BE00010B501F081FF044628B144B1FFF77EFE15
:103BF0005CB1204610BD02F0CFFC0446F5E740F66C
:103C0000E441002002F010FDF0E7FFF7DBFF04467F
:103C1000EFE7000010B5FFF7E3FF00B101BEFEF7CC
:103C2000D7FB62B60D4808F075FE0D4C204608F033
:103C300071FE0C490C4808F06DFE0C490C4808F068
:103C400069FE0C490C4808F065FE204608F062FE4B
:103C5000FFF7EAFAFFF740FEFEE700BFBCFB0010EB
:103C6000C8FB0010FC22000800FC001008FC00103B
:103C700014FC001024FC001030FC001000000000B8
:103C80000230800803D001300238FCD100BF00BFF1
:103C90007047EFF3108072B6704780F3108870475A
:103CA000272804D0282804D001BE00207047002017
:103CB000704701207047836E4BB990F855301BB3A5
:103CC000B0F85630C3F3080303B3012200E0012229
:103CD0004168D1F81832DAB143F0010222EA030355
:103CE00033F0F70C00D001BE03F0F703C1F8103237
:103CF000D1F81032436832F0F70100D001BE02F073
:103D0000F702C3F8182270470122E1E70022DFE73B
:103D100023F00102E2E701460023184601E00133E7
:103D2000DBB20F2B06D89A1C51F82220002AF6D0BD
:103D30001846F4E77047000000F00700014B53F805
:103D4000200070479403011000F0070019B1044BE4
:103D500053F820007047034B53F82000704700BF12
:103D6000F4030110B403011000F0070011B1034B7C
:103D7000185C7047024B53F8200070471404011080
:103D8000D4030110032809D8DFE800F0020B040671
:103D900040207047702070476020704701BE40206F
:103DA0007047502070470000202816D800283CD0CB
:103DB00001381F283BD8DFE800F021213A243A3AA5
:103DC0003A283A3A3A3A3A3A3A2C3A3A3A3A3A3A73
:103DD0003A3A3A3A3A3A3A3A3A30802821D0B0F56B
:103DE000807F03D170230B7000207047402803D1DF
:103DF00050230B70002070470E4870470020087059
:103E0000704710230B700020704720230B70002098
:103E1000704730230B700020704740230B70002048
:103E2000704760230B7000207047024870470148BC
:103E3000704700BF0001020410F0020F05D110F01E
:103E4000080F04D04FF4C0707047002070478020E6
:103E500070470000012800D901BE014B185C704773
:103E60009003011008B512B2406805F067F908BD6B
:103E700008B590F86C10406805F08AF808BD00009D
:103E800070B588B0EFF30580103800B2FFF708FF77
:103E90004A4B53F8204062680123C2F81032D2F82E
:103EA000102284F8553094F85630002B37D1A36E89
:103EB000002B74D02046FFF72EFF461CF6B294F874
:103EC0006D30012B46D094F86420002A44D103B110
:103ED00001BE636803F5C07301930123ADF8083098
:103EE000226E0392ADF8103020228DF81220059634
:103EF000002206928DF81C3004F1700501A92846B5
:103F000000F0EEFF034600283BD0002B3ED003B16B
:103F100001BE94F86C30002B3DD0012540E0606874
:103F200005F043F8C3E7236E1860236E043323665D
:103F30000135EDB2B54211D22946606805F094F81A
:103F400094F86430002BEED0024629462046FFF755
:103F500089FFE8E70025EDE70025EBE7A36E013BCD
:103F6000A36623B9C4F8F0302366032518E094F85B
:103F70006C300BB1012513E02046FFF779FF0125D6
:103F80000EE0284600F0D2FF0346BEE7284600F0C8
:103F9000BAFF0346BBE72046FFF76AFFBDE70125EE
:103FA0002046FFF788FE94F85710294003D0A36DF0
:103FB0000BB1E06D984708B070BD00BFDC2D000864
:103FC00008B5437B012B09D0032B0CD083B1022B06
:103FD00000D001BE002002F031FB0BE0836803B982
:103FE00001BE806806E0002002F028FB400801E0E6
:103FF0004FF4966008BD00002DE9F04182B0044600
:104000000D4688220021284607F030FF63780C2BEC
:1040100039D1636803F00A030A2B39D088220021C2
:10402000284607F023FF0A23AB6001232B6685F89F
:104030007430607BFFF7A6FE40F4604040F0400023
:10404000E37BF3B180231843237B0BB14FF4606310
:1040500043EA00070DF107016088FFF7A5FE064659
:1040600090B99DF8078048F00C086068FFF7E4FEFF
:1040700048EA00002F6068602046FFF7A1FFA867AC
:1040800002E00023DFE7034E304602B0BDE8F081D6
:10409000004EF9E70001020410B5044603684179B7
:1040A000586804F09AFF024623685868036832B1E2
:1040B00003F46063B3F5606F06D0002200E00022D5
:1040C000617904F0D5FF10BD004AF9E700F8FFFF61
:1040D0002DE9F04188B004464C3000F09DFE80464A
:1040E00010B14B4BB3FBF0F8002306930793B8F1E4
:1040F000000F3DD09C46184627E007F120026A4495
:1041000002F8183C01210133DBB2C1B9032B16D8E8
:10411000B5689E4608AA02EB430232F8082C954285
:10412000EBD0002AEFD108AA02EB430E2EF8085C70
:1041300007F120026A4402F8183C0121E3E701B9C3
:1041400034480CF1010C5FFA8CFCBCF10F0F10D855
:1041500067460CF1020354F8236000220CF120039F
:104160006B4403F8182C002EEBD000231946CCE743
:104170002948F8B108B0BDE8F0810223013308AD49
:1041800005EB410121F8203C0132D2B2032A13D8B9
:10419000114608AB03EB420333F8083C4344013BB0
:1041A000B3FBF8F3012BE8D9B3F5806FE6D340F207
:1041B000FF33E3E70022E9E7BDF80030BDF8021065
:1041C000626843EA01431361BDF80430BDF806108C
:1041D000626843EA01435361002315E0656803F117
:1041E000200255F8221021F4405145F8221065684C
:1041F00055F822100DEB020616F8186C41EA06314C
:1042000045F822100133DBB20F2BE7D9B2E700BF2C
:1042100000CA9A3B000102040101020430B5A3B0B8
:10422000044608460B7884F86C300B7CFF2B14D0C6
:104230002B4D427B013A18BF01228368B3FA83F306
:104240005B099A4210D0264D002D39D163681B6A54
:10425000069300238DF874301AE08B7BFF2B01D07E
:104260001F4DE6E70025E4E7002DEDD16946FFF795
:10427000C3FE0546E8E7626803F1200152F8211009
:104280009A1D22A800EB820242F8841C0133DBB2A3
:104290000F2BF0D9606804F04FFE0021606804F035
:1042A00071FD6946606804F06BFB05462046FFF728
:1042B0000FFF63680122C3F81822606804F010FE43
:1042C00094F86C3013B9284623B030BD002384F82D
:1042D00055302046FFF7EFFC2046FFF7C9FDF2E717
:1042E0000001020410B403685C68427902F1200303
:1042F00054F8233003F0773323F07623497841B123
:104300004FF480610B43203244F822305DF8044BB7
:1043100070470021F6E770B50546084616460121AC
:10432000FFF722FD0446FF2E06D000213046FFF79E
:104330001BFD044344F080742B685A686B7920336A
:1043400042F8234070BD38B50D460446C8B16B68CD
:10435000A72B38BFA723A36029462046FFF7C2FF3B
:104360002B7883B1236859680B6A607901228240F7
:1043700013430B622046FFF78FFE2068FFF7A8FE6D
:1043800038BD01BEE3E7236859680B6A60790122F2
:10439000824023EA02030B62ECE70268002A4FD056
:1043A000F8B5044643790233002142F8231005682A
:1043B0002B782BB90679FF2E0FD1A579FF2D22D1AD
:1043C00023685A6863792033002142F82310236858
:1043D0001B7873B300232360F8BD01213046FFF73B
:1043E000B3FC07463046FFF7A7FC064600233A46D3
:1043F0001946686804F0D2FE2368002231465868E6
:1044000004F0E0FED9E72846FFF796FC06460021B7
:104410002846FFF799FC024625680023194668687C
:1044200004F0BCFE236800223146586804F0CAFE3E
:10443000C6E7201D03F0F9F9A01D03F0F6F9C9E75E
:10444000704700002DE9F04B82B00E4690461F46A3
:10445000044658B366B3002323606360A360FF2261
:104460002271A271009310225849404603F08AF944
:10447000814698B396F8492003789A421AD04FF0B3
:10448000000C534D65B9266084F805C00CF1020C90
:1044900046F82C400A9B5B68A72B38BFA723A36074
:1044A00095BBFF2F20D14FF0000B2FE001BED1E7CD
:1044B00001BED0E74FF0000CBCF10F0F09D80CF192
:1044C000020356F8233023B10CF1010C5FFA8CFC87
:1044D000F2E7BCF10F0F05D80025D3E74FF0000C31
:1044E0003B4DCFE73B4DDBE70023009310223749DC
:1044F000384603F047F98346E0B196F8492003783F
:104500009A4203D0324D02E04FF0000B65B11DB965
:1045100084F80480FF2F0FD1A5B1CDB1002D51D16A
:10452000284602B0BDE8F08B0021484603F088F928
:104530000546ECE7264DEAE70021584603F080F9EE
:104540000546E9E7A7712068FFF7C2FD0546E4E7E5
:1045500001214046FFF7F8FB81464046FFF7ECFBA0
:104560000646206801234A460021406804F016FEF2
:10457000236801223146586804F024FEFF2F0AD137
:10458000A27921792046FFF7C6FE0A992046FFF757
:10459000DAFE0546C2E700213846FFF7D5FB804624
:1045A0003846FFF7C9FB0646206801234246002132
:1045B000406804F0F3FD236801223146586804F096
:1045C00001FEDDE72046FFF7E8FEA9E740FC00100A
:1045D000000102040301020470B5044601684B683F
:1045E0005A6891F86C1000293AD102F4807240792F
:1045F00000F1200153F8211001F4806112B169BB70
:10460000002600E000261D6A01228240110C0904E8
:1046100001B101BE1A622368002283F85520236885
:1046200083F856602068FFF746FB236831465868D8
:1046300004F0AEFC236893F85520002AFAD0617983
:10464000586804F011FD236893F86C202AB95A6861
:104650002B0C1B0403B101BE156270BD0126D2E70D
:104660000025E7E708B5FFF7B7FF80B200F5006067
:1046700080B2000180B208BD0AB10948704738B560
:1046800004460D460021406804F098FC94F8490067
:10469000FFF7E0FB0146284601F07CFC38BD00BF77
:1046A0000001020431B94268536823F0804353602B
:1046B00000207047004870470001020400285CD0C9
:1046C00010B504464368ABB390F849202B4B33F93F
:1046D0001230002B0CDB03F01F015B0901228A4022
:1046E0002033274941F82320BFF34F8FBFF36F8F4B
:1046F00094F849200021234B43F822102046FFF76D
:10470000D1FF00B101BEB4F8EC10A1B900224FF402
:104710008031606804F056FD00234FF48032194662
:10472000606804F03BFD606804F03FFC237853B1FF
:104730000023636010BD00222046FFF79DFF002884
:10474000E4D001BEE2E7606804F0F6FB94F8543070
:1047500033B900F041F904F1480001F00BFAE7E742
:1047600094F84C0094F84D1000F0030005F022FB83
:1047700004F14C0000F09BFBEBE770478C03011049
:1047800000E100E0DC2D0008F8B50E4617461D4696
:104790000446002868D0F4220021204607F066FB7A
:1047A0001E2384F84830012384F86D302570336867
:1047B000002B5BD0002B7DD01A889B78A4F8482072
:1047C00084F84A3094F84930594A52F823206260FC
:1047D000584AD75CB268002A5AD004F14C0392E8D8
:1047E000030083E80300002584F85450002D64D0B2
:1047F0001DB994F85430002B6CD1002D00F08E8040
:10480000002D40F0918001224FF48031606804F067
:10481000D9FC01234FF480320021606804F0BEFC13
:1048200000F0B8F82046FFF746FA94F84930424ABB
:1048300042F82340414E424A032136F9130001F069
:1048400003FC94F8493036F91330002B07DB03F0F2
:104850001F015B0901228A403A4941F82320606820
:1048600004F03EFB2846F8BD01BE94E7FF2FA1D01F
:104870001023354A0021384602F0B1FFB8B10023B9
:1048800084F84830027884F8492084F84A3099E75F
:1048900001231A4604F1480104F14C0003F092F898
:1048A00005460028A2D1012384F854309EE7002752
:1048B000264D9BE70027254D98E794F84C1094F877
:1048C0004D2001F00301384605F0F6F900288FD09D
:1048D0001F4D92E706F028F91E4AA2FB0032520D46
:1048E0001D4B984201D21A4D8AE794F84C00013AC8
:1048F00094F84D1000F0030005F0D0F808B1144D05
:104900007EE794F84C0094F84D1000F0030005F099
:104910000FFA00283FF471AF0D4D71E771686068C0
:1049200004F02EF805466BE72046FFF7C7FE99E72F
:104930008003011088030110DC2D00088C03011096
:10494000813E001000E100E040FC00100001020484
:104950000101020483DE1B4300127A0070B5A8B087
:1049600006460C46154606A90948FFF745FB08B15F
:1049700028B070BD0346019006AA029203958DF8F7
:104980001000224601A93046FFF7FEFEF0E700BF07
:104990006C03011010B5FFF77CF904460B4B1B8824
:1049A0003BB10A4A1388013313802046FFF775F99B
:1049B00010BD074805F03EF8064B1B68DA69D2F8CF
:1049C000003E43F00043C2F8003EEAE7E42D000851
:1049D000400701103030000808B5FFF75AF90D4BB9
:1049E0001B8803B901BE0B4A1388013B9BB213809D
:1049F00063B9094B1A68D169D1F8003E23F000432E
:104A0000C1F8003ED3690022C3F8002EFFF745F934
:104A100008BD00BFE42D00083030000801BE014889
:104A2000704700BF02020204024B0B6007231360B1
:104A300000207047BC23000808B5407806F064F8F1
:104A400008BD000038B5054614468A4294BF0023CD
:104A50000123834209D080F001038A422CBF002148
:104A600001218B4201D04DB138BD06F035FC05491E
:104A7000A1FB0431890C06F07DF9F4E7FFF73AF861
:104A8000F2E700BF83DE1B432DE9F04104460A78BC
:104A9000A2F10D03DBB2012B04D90F2A2FD14E78DE
:104AA000013600E04E78002005F01AFB0746002092
:104AB00005F0E4FA06F008F820FA07F8304606F0A8
:104AC00003F820FA07F763786BB1F1B2607805F06C
:104AD000B5FA054663789BB958B93A464146002075
:104AE000FFF7B0FF0CE03A4641460120FFF7AAFF6E
:104AF000EBE7424639460020FFF7A4FF00E0024DF5
:104B00002846BDE8F08100BF01020204F8B5054661
:104B10000139072935D8DFE801F00426340634349A
:104B20003424002600E00226002005F0D9FA0746CA
:104B3000002005F0A3FA05F0C7FF20FA07F720FAD6
:104B400006F46B788BB13146687805F0A9FA064611
:104B50006B78BBB978B9224639460020FFF772FF5F
:104B600010E00326E0E70126DEE722463946012071
:104B7000FFF768FFE7E73A4621460020FFF762FFAC
:104B800000E0014E3046F8BD0002020408B519B13C
:104B9000407805F00DFA08BD407805F033FAFAE7E1
:104BA00008B5407805F01CFA08BD00002DE9F8436F
:104BB00004460E461546DDF82080DDF824900127D6
:104BC0009F404FEA520C1CEB00004FF0000341F1F4
:104BD000000106F07DFFC9F80000B84201D9C9F80C
:104BE0000070B8F1000F19D0D9F80020002320463A
:104BF000314606F06DFF0246294698F8000002F0A3
:104C000093FE0028B8BF4042B8F1000F08D0D8F892
:104C10000430834206D30020BDE8F8830020F3E788
:104C20000020F9E70048F7E70002020408B590F811
:104C300000C01CF0020F06D14A1E41780CF00300A0
:104C400004F02CFF08BD00234A1E41780CF003003D
:104C500004F088FFF6E770B584B004460D461646AA
:104C600005F062FF0146237813F0020F0ED013F017
:104C7000010F24D01D2303AA019200962A46480161
:104C8000C90EFFF793FFE0B104B070BD13F0010F40
:104C900013D0102303AA019200962A460846002149
:104CA000FFF784FF0028EFD12078039A013A61785A
:104CB00000F0030004F0F2FEE6E70823EAE715231C
:104CC000D9E7039B5A09207803F01F03013A617862
:104CD00000F0030004F046FFD6E708B503784178FA
:104CE00003F0030005F039FF08BD08B531B10378C2
:104CF000417803F0030005F01BF808BD0378417804
:104D000003F0030005F056F8F7E708B5037841789B
:104D100003F0030005F080F808BD0000004870476C
:104D2000540401102DE9F04182B007460D4690462B
:104D3000084602F02BFEC6B2002401E00134E4B2C2
:104D4000B44213D205238DF804308DF805508DF848
:104D5000064001A800F0CAFE03460028EED13D70CF
:104D60007C700122BA70C7F8048000E0024B18463C
:104D700002B0BDE8F08100BF020E020430B583B07E
:104D80000C46054678B184B105238DF804302378AC
:104D90008DF8053063788DF8063001A800F0A6FE86
:104DA00028B103B030BD01BEEDE701BEECE72268DB
:104DB00063682A606B600123AB70F2E708B50346B5
:104DC00048B11A78122A08D0032A0AD95A681268F8
:104DD0001846904708BD01BEF3E71846FFF7E0FE0E
:104DE000F8E71846FFF791FFF4E710B5034648B11E
:104DF0001878122808D003280AD958684468184639
:104E0000A04710BD01BEF3E71846FFF7BFFEF8E765
:104E10001846FFF76AFFF4E710B5044668B120466C
:104E2000FFF7CCFF98B12378122B08D0032B0AD9B7
:104E300063689B68204698470AE001BEEFE720467A
:104E4000FFF7FAFD04E02046FFF747FF00E00020EF
:104E500010BD10B5034648B11878122808D00328B1
:104E60000AD95868C4681846A04710BD01BEF3E7C8
:104E70001846FFF7D3FDF8E71846FFF7ECFEF4E716
:104E800008B5034648B11A78122A08D0032A0AD96D
:104E90005A6812691846904708BD01BEF3E71846E4
:104EA000FFF734FEF8E71846FFF7C0FEF4E710B549
:104EB00082B0044690B1A37803B901BE05238DF8F2
:104EC000043023788DF8053063788DF8063001A81A
:104ED00000F050FE0023A37002B010BD01BEEAE74F
:104EE00008B5034648B11A78082A08D0092A00D024
:104EF00001BE184600F0E8FB08BD01BEF3E7184606
:104F000000F018F9F8E708B5034648B11A78082AFE
:104F100008D0092A00D001BE184600F07BFC08BD6D
:104F200001BEF3E7184600F0A5F9F8E708B5034617
:104F300048B11A78082A08D0092A00D001BE1846BC
:104F400000F078FB08BD01BEF3E7184600F0D4F886
:104F5000F8E7000038B5EFF30583103BDBB2343BD4
:104F6000DBB2012B00D901BE012B1CD901BEFF22EF
:104F7000012B00D901BE012B01D901BEFF231C4624
:104F800003EB4202234951F82250032B00D901BE02
:104F9000230203F1804303F5281341F28C02995850
:104FA0000023184603E00022E2E70133DBB251B1EF
:104FB000072B08D801229A401142F6D0164A32F83F
:104FC00013201043F1E710F0010F0FD0B5F8643053
:104FD00063B1013B9BB2A5F864303BB940F00200DD
:104FE0006B7D012B13D00123A5F86430E96E0140DD
:104FF0002B6F1BB111B189B2686F9847032C00D990
:1050000001BE2402054BFF221A511B5938BDAB8F3C
:10501000EAE700BFE82D00089404011080102A4040
:1050200070B5044600F11401443002F017FF002867
:105030004FD1221DA1782A4802F0ACFE00284AD1A7
:10504000A378032B00D901BE254A02EB032341F2CA
:105050008801FF205850136843F000431360A37881
:10506000032B00D901BE1B021E4AD35813F0180FA0
:105070001AD160784000C0B2A3781844C0B200F1E1
:1050800034063546E36EDBB90321174A284600F0A3
:10509000DBFF10BB06F01F066D09012303FA06F6BD
:1050A000124B43F8256015E0A378032B00D901BE0D
:1050B0001A020C4B1344FF221A601B680C4809E0CB
:1050C00006F1604303F5614393F800134909C9B23F
:1050D000DBE7084870BD0748FCE70648FAE700BF71
:1050E00000002A4080102A40554F001000E100E0E7
:1050F00003060204010602048378032B00D901BED3
:10510000044910331B02CA5842F00042CA50002022
:10511000704700BF00002A40054B9B68DBB28178D6
:1051200001228A401A4214BF01200020704700BFAC
:1051300000002A4038B504460D46FFF7EDFF002871
:1051400040F085806B69B3F5803F00F28280012BCF
:1051500012D91BB12A69B2EB034F7CD82B682362AA
:10516000AB686362AB7B082B0CD0102B40D0202B9C
:1051700073D10223A37607E02A69B2F5803FE8D90C
:10518000384857E00023A37600232377E376A36E05
:10519000022B30D0012B31D004F1440323642B7E49
:1051A000012B2DD90123E375B5F90430A362B5F9BC
:1051B0000C30E3626B6933B32A69B2FBF3F103FB92
:1051C0001123002B4BD1022363776A6922632B6979
:1051D000B3FBF2F3E363B5F904306A6902FB03F34E
:1051E0006363B5F90C306A6902FB03F3A3630EE055
:1051F0000123A376C8E70123E376CDE72377CBE746
:105200000023E375D0E7012363772B6923636B6980
:105210001BB12B7E7BB1022B0DD00123A4F864308F
:1052200002236375B4F878300BB902232376204645
:10523000FFF7F6FE38BDE36BA4F864300123637515
:10524000B4F87830002BF2D101232376EFE706483B
:10525000F0E70448EEE70348ECE70448EAE70448CF
:10526000E8E700BF0806030405060204000602047E
:105270000406020410B50446FFF74EFF18BB144B9A
:105280001B7813BB6278A37802325200D2B2134467
:10529000DBB21049CC5CCA56002A0DDB0E4AD05C4A
:1052A00040EA0420022140F0804006F0FBFA0B4B5C
:1052B000984206D0002010BD02F06F0242F01004A8
:1052C000ECE70748F7E70648F5E70648F3E700BFCD
:1052D000F02D0008F0FC0010D00201100200CE00FA
:1052E00006060104031A020438B5EFF30583103BE8
:1052F0009AB21BB2A2F1380189B21C290ED9AE2B89
:1053000020D0A2F1550189B21C291DD9A2F1AB010F
:1053100089B202291AD901BEFF2100E00021A2F1C1
:10532000380080B21C2813D9AE2B7BD0A2F15500D7
:1053300080B21C2879D9AB3A92B2022A78D901BE40
:10534000FF2307E00021EAE70121E8E70121E6E782
:10535000383BDBB2C1EB011042001D461344424A08
:1053600052F82320002966D1404C404B9C4264D027
:105370003F4B1B6893F836309D4234BF0023012316
:1053800003B101BE3A4B1968B1F85E302344B1F85D
:10539000601001FB05335B6803F00F03082B00D995
:1053A00001BE082B52D8334931F8131011F0010F08
:1053B0000FD0B2F8643063B1013B9BB2A2F8643005
:1053C0003BB941F00201537D012B41D00123A2F8EA
:1053D0006430D36E1940136F1BB111B189B2506F95
:1053E0009847224B9C4235D0214B1B6893F83630AE
:1053F0009D4234BF0023012303B101BE1C4B1A6838
:10540000B2F85E302344B2F8601001FB053301218D
:105410001961B2F85E302344B2F8602002FB053314
:105420001B6938BD6F33DBB294E7553BDBB291E7C4
:105430007233DBB28EE7104C97E70D4B1B6893F885
:1054400035309D4234BF0023012399E70021ADE7A9
:10545000938FBCE7064B1B6893F835309D4234BFF1
:1054600000230123C8E700BFF42D000800002840F6
:1054700030300008A40401100000294038B504466B
:1054800000F11401443002F0F5FA002840F0BE802B
:105490006378002B63D1604D221DA178284602F06D
:1054A000EBFB002840F0B480A1785B4B9D4258D0C4
:1054B0005A4B1B6893F83620914234BF00220122D8
:1054C00002B101BE554B1A68B2F85E302B44B2F8F7
:1054D000602002FB013301229A612B6843F00043F4
:1054E0002B60A1784C4B9D4244D04C4B1B6893F8E9
:1054F0003620914234BF0022012202B101BE474B47
:105500001A68B2F85E302B44B2F8602002FB013317
:105510001B69043B012B36D9637813B9A5781C2D80
:105520005DD913B9A5781D2D5BD9012B5BD0012B5B
:105530005ED001BE40F2FF35E36E002B5DD103214A
:10554000374A284600F080FD002863D105F01F028D
:105550006D0901239340334A42F8253059E0324D1A
:105560009AE72E4B1B6893F83520914234BF0022F6
:105570000122A5E7294B1B6893F83520914234BFDF
:1055800000220122B9E7A178234B9D421ED0234B74
:105590001B6893F83630994234BF0023012303B1CE
:1055A00001BE1E4B1A68B2F85E302B44B2F86000A0
:1055B00000FB013301201861B2F85E301D44B2F8DF
:1055C000603003FB01552B69184822E0134B1B6820
:1055D00093F83530994234BF00230123DFE7383593
:1055E000AAE79135A8E7A5781C2DA0D85535A3E7E3
:1055F000A5781F2D9DD88E359EE705F1604303F5F4
:10560000614393F800134909C9B299E7084800E0DB
:10561000074838BD0648FCE7000028403030000845
:10562000E952001000E100E00000294003060204F6
:10563000010602044378EBB9144A837813498A427D
:105640001AD01349096891F836108B4234BF0021F3
:10565000012101B101BE0E490968B1F85E00B1F83F
:105660006010024401FB03F3D15841F00041D150D6
:1056700000207047074AE0E70549096891F83510AE
:105680008B4234BF00210121E3E700BF0000284026
:10569000303000080000294043786BB9074B084AB6
:1056A0001268B2F85E100B448178B2F8602002FBF9
:1056B00001335868C00F7047024BF0E700002840E4
:1056C000303000080000294038B504460D46FFF789
:1056D000E3FF002840F08C806B69B3F5807F00F217
:1056E0008980012B1BD923B12A69B2EB032F00F269
:1056F00083802B682362AB68636204F144032364F4
:105700002B7E012B11D90123E375AB7B082B0FD026
:10571000102B50D0202B71D1022363760AE02A6926
:10572000B2F5807FDFD9374844E00023E375ECE72A
:10573000002363760023E376A376A36E022B3DD08D
:10574000012B3ED06B6933B12A69B2FBF3F103FB45
:105750001123002B54D1B5F90430A362B5F90C30F4
:10576000E3626B697BB3022323776A6922632B6947
:10577000B3FBF2F3E363B5F904306A6902FB03F3A8
:105780006363B5F90C306A6902FB03F3A3636B69C9
:105790001BB12B7E03B3022B1ED00123A4F864306F
:1057A00002236375B4F878300BB9022323762046C0
:1057B000FFF764FE38BD01236376BBE70123A376C0
:1057C000C0E7E376BEE7012323772A692263E36318
:1057D00000236363A363DAE7E36BA4F86430012377
:1057E0006375B4F87830002BE1D101232376DEE72E
:1057F0000548DFE70348DDE70248DBE70348D9E770
:105800000348D7E70806030405060204000602045D
:105810000406020410B50446FFF73EFF30BB154BEB
:105820001B782BBB6278A378C2EB02125200D2B273
:105830001344DBB20633DBB20F49CC5CCA56002AF4
:105840000DDB0E4AD05C40EA0420022140F080408B
:1058500006F028F80A4B984206D0002010BD02F04E
:105860006F0242F01004ECE70648F7E70548F5E759
:105870000548F3E7EC2E0008F0FC0010D002011000
:105880000200CE0006060104031A020408281CD8F0
:10589000DFE800F00923051E0B0D0F1113000A208D
:1058A000012917D07047082070470C20F8E70D2019
:1058B000F6E70E20F4E70F20F2E74B1EDBB2012BD8
:1058C00001D90820ECE70E20EAE701BE0820E7E74F
:1058D0000B20E5E700F0070070470020E2E700003A
:1058E0002DE9F04387B00F4616461D462F4B1B7817
:1058F000FBB94FF0000C07E02D4C002344F82C308E
:105900000CF1010C5FFA8CFCBCF10E0FF4D94FF0D6
:10591000000C08E0264B03EB4C0300229A870CF1A5
:10592000010C5FFA8CFCBCF1050FF3D91F4B01226F
:105930001A700B238DF80830C4088DF8094000F068
:1059400007088DF80A80029BADF814301B0C8DF807
:105950001630059BADF810301B0C8DF81230049BEF
:10596000ADF80C301B0C8DF80E3003A800F0BEF81B
:10597000814618B1484607B0BDE8F0833946304645
:10598000FFF784FF02460E2C0BD80A4B1B68986960
:1059900000EBC410002300932B46414602F0E8FBC5
:1059A000E8E7044B1B689869F4E700BFED2E000898
:1059B000882900083030000870B504280DD00D4645
:1059C000114602463C4C34F810E0441C1D2C07D80C
:1059D000E4B2394E36F8144004E00D250520F0E716
:1059E00040F205144FF0010C0CFA02FC334A0CEAA9
:1059F00002023AB9AE44A3F800E01B88A34258D291
:105A0000002070BDC21E182A32D8DFE802F00D3126
:105A10003431310F25312931313131312B312D31B3
:105A200031313131312F2700254A00E0254A1C80D1
:105A3000002AE2D00338182836D8DFE800F01E35F7
:105A40003835351E2F353135353535351E351E3552
:105A50003535353535331E001B4AE8E71B4AE6E786
:105A60001B4AE4E71B4AE2E71B4AE0E71B4ADEE782
:105A700001BE0022DBE71A4AD9E70126B542BCD2B3
:105A800032F81500704411FA80F11980691CB14296
:105A9000B3DA32F811407444A4B2AEE70226EDE75F
:105AA0001026EBE70226E9E701BE0026E6E71A2604
:105AB000E4E70C48A5E700BF28050110280B0A0CF5
:105AC000B8040110F0040110F404011024050110C1
:105AD000F8040110180501101C0501102005011023
:105AE000BC040110000E020400207047F0B583B022
:105AF00004460027FEF7CDF806460DF10603A2780E
:105B000061782078FFF758FF054668B9BDF8063080
:105B1000C3F3C70203F007031449895C012202FAA8
:105B200003F3194218BF174605B9EFB92DB1304636
:105B3000FEF7B3F8284603B0F0BD0DF10603A278D6
:105B400061782078FFF738FF05460028EFD1BDF8CF
:105B50000630C3F3C70103F00703044801229A404B
:105B6000435C13434354E2E7014DE0E7F02E0008A5
:105B7000010E020430B583B00446FEF78AF80546EC
:105B80000DF10603A27861782078FFF715FF024631
:105B900060B9BDF80630C3F3C70003F00703074C34
:105BA00001219940235C23EA0103235402B101BE81
:105BB0002846FEF772F803B030BD00BFF02E000893
:105BC0002DE9F04F85B080460F46924601935D4B1C
:105BD00033F81020431C1D2B12D8DBB2594931F881
:105BE0001390012303FA08F3DFF884B103EA0B0BE7
:105BF000A9EB02091FFA89F900252E462C4617E069
:105C000040F20519EDE70123BAF1000F08D0314643
:105C10002046019B98479AF8001000F0C0F903460F
:105C2000BBB9BBF1000F26D10134E4B20135ADB2EE
:105C30004D4580F08180002FE5D0314620460E9BF7
:105C400098470146388800F0AAF903460028E7D0B3
:105C5000DAE78DF80C808DF80D408DF80E6003A802
:105C6000FFF744FF03460028DBD10F9A82F800803B
:105C70005470967061E0A8F10303182B30D8DFE868
:105C800003F00D2F322F2F0F232F272F2F2F2F2FE2
:105C9000292F2B2F2F2F2F2F2F2D25002A4A00E0C1
:105CA0002A4AA8F10303182B32D8DFE803F01E318B
:105CB0003431311E2B312D31313131311E311E3114
:105CC00031313131312F1E00214AEAE7214AE8E71C
:105CD000214AE6E7214AE4E7214AE2E7214AE0E7F0
:105CE00001BE0022DDE7204ADBE70121631C0846F4
:105CF0008B4204DA32F813106B1C99420DDD013629
:105D0000F6B293E70221F1E71021EFE70221EDE778
:105D100001BE0021EAE71A21E8E70134E4B2631C7E
:105D2000984207DD32F8131032F814309942F4D05B
:105D300000267BE7002679E70C4B184605B0BDE846
:105D4000F08F00BF28050110B8040110F004011005
:105D5000F404011024050110F804011018050110C5
:105D60001C05011020050110BC040110020E0204E4
:105D7000280B0A0C00B583B00191002100910B465D
:105D80000A46FFF71DFF03B05DF804FB024600233F
:105D9000184603B1704702B118460133DBB2F8E789
:105DA00010B50446FFF7F2FF204610BD002001E0C9
:105DB0000130C0B2142805D8044B1B5C002BF7D06F
:105DC00040B270474FF0FF30704700BF60FD0010D9
:105DD00038B504460D46FFF7E9FF114B1B5D83B153
:105DE000104B1A689368B2F870100B44201A1030E8
:105DF000B2F8721001FB00F000EB8501C858C0B288
:105E000038BD084B1A689368B2F870100B44B2F8AA
:105E1000720004FB00F000EB8500C058EFE700BF04
:105E200060FD0010303000082DE9F84304461E469E
:105E30009DF820809DF82470224B1B5CC3B1411A51
:105E4000CCB22046FFF7ACFF46EA00262046FFF71B
:105E50009DFF46EA004040F0804040F4805027B16A
:105E60004246002105F090FC23E005F0DBFC20E039
:105E70001546FFF795FF4FEA002945EA0025204621
:105E8000FFF784FF45EA004549EA060949EA004967
:105E900049F080417FB90C4B1A689368B2F87010D2
:105EA0000B44B2F8720000FB04F404EB86040020FB
:105EB000E050BDE8F88343460022284605F008FC80
:105EC000F7E700BF60FD0010303000082DE9F04713
:105ED00082B00C469046C0F3470600F00107FFF77A
:105EE00065FF8146244B1D5D1B57002B04DB234BB4
:105EF00013F804A0002416E005F07F0555FA80F59C
:105F0000EDB2F4E7B8F1010F14BF002301230193B0
:105F100000975346E2B25FFA89F12846FFF784FF03
:105F200022E00134A4B22A46154B33F81530A342BF
:105F300019D9144B53F825301B5DB342F1D1124BE4
:105F40009B5C1BB11FFA8AF3A34210D1B8F1020F78
:105F500004D051462846FFF73BFF50B9B8F1000F77
:105F6000D0D1002000E0094802B0BDE8F087074822
:105F7000FAE70748F8E700BFF0FC0010D002011074
:105F8000400301106823000860FD0010010D0204A9
:105F9000000D020408B50222FFF798FF08BD08B5FE
:105FA0000022FFF793FFB0FA80F0400908BD00001F
:105FB00070B582B00D468378772B16D8DA0813496E
:105FC00009688E6906EBC216C27803F007040092D6
:105FD00001232A462146304602F0CAF80A2D08D08D
:105FE0000B2D0CD0002002B070BD084A12689669D3
:105FF000EAE701222146304602F014F9F2E70022D6
:106000002146304602F00EF9ECE700BF30300008C0
:1060100010B582B00146772810D8C308094A126823
:10602000906900EBC310002400940123082201F0C2
:10603000070102F09DF8204602B010BD014B1B681D
:106040009869F0E73030000800B583B0ADF8000083
:1060500001911146684604F0E3FD03B05DF804FBCE
:10606000123820281CD8DFE800F0191B1B1B1B1B53
:106070001B1B1B1B1B1B1B1B1B1B1B1B1B1B1B1B70
:106080001B1B1B1B1B111E131B1517000020704729
:106090000220704704207047052070470620704793
:1060A00001BE0020704701207047000038B503464C
:1060B000084850F82340084850F8235044B12DB107
:1060C000002318460BB92046A84738BD0123F8E73E
:1060D0000123F6E7302F0008142F00082DE9F041C6
:1060E00005460E46084601F007FC074600244FF01F
:1060F000010817E0022229463846FFF7D7FF01378B
:10610000FFB2BC42F6D8022E1AD0082E18D0012EAB
:1061100019D1B8F1000F16D00C4B01221A7012E001
:106120000134E4B2062CEED83A4629462046FFF761
:10613000BDFF80460028F3D1012EF1D10027E0E712
:10614000024B00221A704046BDE8F081112F000872
:1061500008B5EFF30580103800B240F2FF339842E3
:1061600005D0FFF77DFF034B53F8200008BD00204A
:10617000FCE700BF302F00082DE9F04383B08046D4
:106180000E4617469946002416E099F802206B78CF
:106190009A4201D0002325E0012323E017238DF844
:1061A0000430735C8DF805306B788DF8063001A8EB
:1061B000FFF79CFCC8B10134BC421AD2A10006EB27
:1061C000840595F802C0C445F5D1B9F1000FE5D0BA
:1061D00099F80030172BE1D199F80120735C9A42AD
:1061E000D3D00023002BE6D004E001A8FFF7C2FCC7
:1061F00000E00025284603B0BDE8F0832DE9F04318
:1062000083B007460D4616460024A14600E001343F
:10621000B44220D24FEA840805EB840393F802C00D
:10622000BC45F4D117228DF8042015F824208DF8F0
:1062300005205B788DF8063001A8FFF757FC002891
:10624000E5D101A8FFF796FC15F80820012393403B
:1062500049EA0309DBE7484603B0BDE8F0830000E4
:10626000014B1878704700BF112F000808B5124B7A
:1062700043F82010114B43F8202000231A4601E078
:106280000133DBB2062B08D80B4850F82300002856
